:020000040800F2
:10000000785E00202903000825460008413A0008D0
:1000100021460008091600084156000800000000AB
:10002000000000000000000000000000690200085D
:100030004116000800000000C5020008394F000802
:100040004303000843030008430300084303000878
:100050004303000843030008430300084303000868
:100060004303000843030008430300084303000858
:100070004303000843030008430300084303000848
:100080004303000843030008430300084303000838
:100090004303000843030008430300084303000828
:1000A0004303000843030008430300084303000818
:1000B0004303000843030008430300084303000808
:1000C00043030008430300084303000843030008F8
:1000D00043030008430300084303000831560008A7
:1000E00043030008430300084303000843030008D8
:1000F000430300084D500008430300084303000871
:1001000043030008430300084303000843030008B7
:100110004303000843030008430300083D50000860
:100120004303000843030008430300084303000897
:100130004303000843030008430300084303000887
:100140004303000843030008430300084303000877
:100150004303000843030008430300084303000867
:100160004303000843030008430300084303000857
:100170004303000843030008430300080000000095
:10018000430300084303000800F002F800F05CF8A5
:100190000AA090E8000C82448344AAF10107DA45E2
:1001A00001D100F051F8AFF2090EBAE80F0013F0D8
:1001B000010F18BFFB1A43F0010318472069000024
:1001C000406900000A444FF0000C10F8013B13F0A6
:1001D000070408BF10F8014B1D1108BF10F8015BA0
:1001E000641E05D010F8016B641E01F8016BF9D193
:1001F00013F0080F1EBF10F8014BAD1C0C1B09D1EA
:100200006D1E58BF01F801CBFAD505E014F8016B5B
:1002100001F8016B6D1EF9D59142D6D370470000ED
:100220000023002400250026103A28BF78C1FBD8FF
:10023000520728BF30C148BF0B6070471FB506F09A
:1002400068FB1FBD10B510BD00F083F91146FFF724
:10025000F5FF05F02DFA00F0A1F903B4FFF7F2FF66
:1002600003BC00F0A9F900002C4B19680868B0E83D
:10027000F04F80F30988BFF36F8F4FF0000080F3D9
:10028000118870470000000008480068006880F38B
:1002900008884FF0000080F3148862B661B6BFF39F
:1002A0004F8FBFF36F8F00DF00BF00BF08ED00E08E
:1002B000DFF80C00016841F470010160704700BF75
:1002C00088ED00E0EFF30980BFF36F8F134B1A68DE
:1002D0001EF0100F08BF20ED108A20E9F04F1060CB
:1002E00009B44FF0500080F31188BFF34F8FBFF374
:1002F0006F8F05F01BFF4FF0000080F3118809BCE1
:1003000019680868B0E8F04F1EF0100F08BFB0EC95
:10031000108A80F30988BFF36F8F70476C0100204B
:10032000EFF30580704700000948804709480047FF
:10033000FEE7FEE7FEE7FEE7FEE7FEE7FEE7FEE795
:10034000FEE7FEE704480549054A064B70470000F2
:100350002950000889010008784C0020785E0020B0
:10036000784E0020784E002053EA020C00F069809D
:100370002DE9F04B4FF00006002B1FBFB3FA83F5B9
:1003800003FA05F424FA05F65E4012BF1643B2FAEA
:1003900082F502FA05F4C5F120051EBF22FA05FC1C
:1003A00044EA0C04203556EA044C4FEA144418BFC2
:1003B000641C4FF000084FF00009904271EB030CF1
:1003C00039D3002919BFB1FA81F701FA07F6B0FA5B
:1003D00080F700FA07F6C7F120071EBF20FA07FCD6
:1003E00046EA0C062037B6FBF4FCA7EB0507103FE6
:1003F00007F01F0BCBF120060CFA0BFB2CFA06F6CC
:1004000044BFB3460026202FA4BF5E464FF0000B2A
:100410005BEA060C08BF4FF0010B19EB0B09ABFBB5
:10042000027C48EB0608C01B06FB02CC0BFB03CC8E
:1004300071EB0C01C1E70B46024641464846BDE858
:10044000F08B13B54FF000004FF00001AFF30080C8
:10045000BDE81C40704710B5203AC0F00B80B1E8F1
:100460001850203AA0E81850B1E81850A0E81850E9
:10047000BFF4F5AF5FEA027C24BFB1E81850A0E8F2
:10048000185044BF18C918C0BDE810405FEA827C0C
:1004900024BF51F8043B40F8043B08BF7047D20723
:1004A00028BF31F8023B48BF11F8012B28BF20F8C4
:1004B000023B48BF00F8012B70474FF000020429AF
:1004C000C0F0128010F0030C00F01B80CCF1040C83
:1004D000BCF1020F18BF00F8012BA8BF20F8022BB7
:1004E000A1EB0C0100F00DB85FEAC17C24BF00F85D
:1004F000012B00F8012B48BF00F8012B70474FF08B
:10050000000200B5134694469646203922BFA0E863
:100510000C50A0E80C50B1F12001BFF4F7AF09076F
:1005200028BFA0E80C5048BF0CC05DF804EB890060
:1005300028BF40F8042B08BF704748BF20F8022BA3
:1005400011F0804F18BF00F8012B704770477047BB
:100550007047754600F02CF8AE46050069465346D4
:1005600020F00700854618B020B5FFF7EBFEBDE888
:1005700020404FF000064FF000074FF000084FF00A
:10058000000B21F00701AC46ACE8C009ACE8C0099B
:10059000ACE8C009ACE8C0098D46704710B5044608
:1005A000AFF300802046BDE81040FFF756BE0000C4
:1005B00000487047184C002001491820ABBEFEE7E8
:1005C000260002007047000070B500F087FA40492D
:1005D00008700846007810B100F092F870BD012252
:1005E00010213C4801F04CFC3B480068B0F57A6FA4
:1005F00001D8012000E000200546002201213748F3
:1006000001F03EFC00222021344801F039FC34483E
:10061000008800F012FB044632480068A04205D86A
:1006200001203149087000F001F9D7E72F48008810
:1006300000F003FB04442B480068A04206D80220C7
:1006400029490870284600F02BF9C7E72848008898
:1006500000F0F3FA044423480068A04205D80320C0
:100660002149087000F0B4F8B8E72248008800F08B
:10067000E4FA04441B480068A04205D804201A4943
:10068000087000F077F9A9E71B48008800F0D5FA58
:10069000044414480068A04206D805201249087096
:1006A000284600F09FF999E71448008800F0C5FA41
:1006B00004440C480068A04205D806200A49087086
:1006C00000F02AF98AE700200649086000BF85E7A4
:1006D000F00000200004024004010020001002404D
:1006E00090000020D8000020080100209200002087
:1006F00094000020980000209A0000209C00002018
:100700001CB52C48006844F62061B0FBF1F201FBF7
:1007100012004910884201D8012000E00020044660
:100720000020009001900C202349087000224FF413
:100730000071224801F0A4FB002220211F4801F093
:100740009FFB002201211E4801F09AFB002210218C
:100750001B4801F095FB00220421194801F090FB91
:1007600000222021164801F08BFB002210211348A3
:1007700001F086FB7CB101221102104801F080FBE0
:10078000012208210E4801F07BFB01208DF80100B9
:100790008DF804000AE000224FF48071074801F050
:1007A0006FFB00220821064801F06AFB684600F052
:1007B00055F91CBDDC0000200801002000040240A7
:1007C0000010024010B500F03DFAFFF7FDFE10BD2D
:1007D0001CB5134903C9CDE900010122510211489A
:1007E00001F04EFB002220210E4801F049FB0022BF
:1007F0004FF480710B4801F043FB012210210A489D
:1008000001F03EFB00220421074801F039FB0022E1
:100810000821054801F034FB684600F01FF91CBDB3
:100820008869000800040240001002401CB5194904
:1008300003C9CDE9000100224FF40071164801F010
:100840001FFB01222021144801F01AFB00224FF463
:100850008071114801F014FB012210210F4801F0B2
:100860000FFB002204210D4801F00AFB00220821A1
:100870000A4801F005FB00220121084801F000FBB5
:1008800001222021054801F0FBFA684600F0E6F855
:100890001CBD0000786900080004024000100240FE
:1008A0001CB50446194903C9CDE9000100224FF4E3
:1008B0000071174801F0E4FA00222021144801F0E9
:1008C000DFFA01221102124801F0DAFA01221021A6
:1008D000104801F0D5FA002204210E4801F0D0FAA8
:1008E000002208210B4801F0CBFA2CB10122202173
:1008F000084801F0C5FA04E000222021054801F073
:10090000BFFA684600F0AAF81CBD00008069000824
:1009100000040240001002401CB5134903C9CDE990
:10092000000101225102114801F0AAFA00222021FF
:100930000E4801F0A5FA00224FF480710B4801F037
:100940009FFA012210210A4801F09AFA002204219C
:10095000074801F095FA00220821054801F090FAB5
:10096000684600F07BF81CBDA06900080004024046
:10097000001002401CB5184903C9CDE9000101224D
:100980005102164801F07CFA00222021134801F0A0
:1009900077FA00224FF48071104801F071FA0022BA
:1009A00010210F4801F06CFA012204210C4801F0DB
:1009B00067FA002208210A4801F062FA0122114672
:1009C000074801F05DFA00222021054801F058FA9D
:1009D000684600F043F81CBD90690008000402401E
:1009E000001002401CB50446194903C9CDE90001B5
:1009F00001225102174801F043FA00222021154834
:100A000001F03EFA00224FF48071124801F038FAEA
:100A100000221021104801F033FA002204210E4870
:100A200001F02EFA012208210B4801F029FA2CB11D
:100A300001221146084801F023FA04E000220121B6
:100A4000054801F01DFA684600F008F81CBD0000DA
:100A500098690008000402400010024070B5044686
:100A600000F072FB0546207868806078A880A07846
:100A7000E880E0782881207968816079A88170BD5C
:100A800001880D4A118041880C4A118081880C4AE6
:100A90001180C1880B4A118001890B4A118041895C
:100AA0000A4A118081890A4A1180C189094A118044
:100AB000018A094A118070479000002098000020A8
:100AC000A0000020920000209A000020A200002038
:100AD000940000209C000020A40000202DE9F04795
:100AE00000250026204A1178204A107800F09FF84F
:100AF00007461F48007898B11E4801781E480078C4
:100B000000F095F880461D4801781D48007800F0F7
:100B10008EF8814642464946384600F075F805464B
:100B20001848007898B1184801781848007800F003
:100B30007EF88046164801781648007800F077F86D
:100B4000814642464946384600F05EF8064612485D
:100B5000007800F0010445EA0600204310B10120AE
:100B6000BDE8F0870020FBE7FE0000200001002028
:100B7000EC000020F4000020F2000020F300002030
:100B8000F1000020ED000020F8000020F600002019
:100B9000F7000020F5000020EE0000202DE9F041D4
:100BA0000024124A1178124A107800F040F80546E5
:100BB00010480078012813D10F4801780F480078B9
:100BC00000F035F806460E4801780E48007800F02F
:100BD0002EF8074632463946284600F015F80446F6
:100BE00014B10120BDE8F0810020FBE7FE000020E9
:100BF00000010020EF000020FC000020FA0000208F
:100C0000FB000020F90000200346914207DC8B42E4
:100C100003DB934201DA012070470020FCE78B429E
:100C200001DA934201DA0120F6E70020F4E70246F8
:100C3000C2EB021001EB80007047014642F21070D7
:100C40004843704700B58BB029480088ADF81800BC
:100C500028480088ADF81A0027480088ADF81C0025
:100C600026480088ADF81E0025480088ADF8200011
:100C700024480088ADF8220023480088ADF82400FD
:100C800022480088ADF8260021480088ADF82800E9
:100C900020480088ADF804001F480088ADF8060021
:100CA0001E480088ADF808001D480088ADF80A000D
:100CB0001C480088ADF80C001B480088ADF80E00F9
:100CC0001A480088ADF8100019480088ADF81200E5
:100CD00018480088ADF81400FFF760FF18B101A8AC
:100CE000FFF7CEFE02E006A8FFF7CAFE0BB000BD7C
:100CF000A8000020B0000020B8000020AA000020BA
:100D0000B2000020BA000020AC000020B400002097
:100D1000BC000020C0000020C8000020D00000203F
:100D2000C2000020CA000020D2000020C400002021
:100D3000CC000020D400002010B500242EE004EBED
:100D40008402184B03EB8202918804EB840253F86F
:100D5000220001F08DF804EB8401124A02EB8101BC
:100D6000887104EB840102EB8101881D00F069FCAD
:100D700004EB84000B4901EB8000C17B04EB840091
:100D8000084A02EB8000417404EB840102EB81010C
:100D900001F1100000F024FC601CC4B2052CCEDB75
:100DA00010BD00000000002010B50446204600F0F1
:100DB00055F808B9002010BD04EB8400044901EB8C
:100DC0008000C07B08B90120F5E70020F3E70000B0
:100DD0000000002070B500243BE004EB84021E4BB1
:100DE00003EB8202918804EB840253F8220001F0A5
:100DF0003FF8054604EB8400174901EB800085713C
:100E000004EB840001EB8000C573002104EB840037
:100E1000114A02EB8000018104EB840002EB8000A8
:100E2000418104EB8400114601EB8000057404EB62
:100E3000840001EB80004574002104EB840002EB88
:100E40008000817404EB840002EB8000C174601C9C
:100E5000C4B2052CC1DB70BD00000020014605298D
:100E600001DA012070470020FCE770B504460D460A
:100E7000164604B105B970BD022020702878607054
:100E80006878A070A878E070E8782071287960719F
:100E90006879A071A879E071E8792072287A607287
:100EA000687AA072A87AE072E87A2073287B60736F
:100EB000687BA073E6731021204604F0E9FB2074E0
:100EC00000BFD8E770B504460D46164604B105B913
:100ED00070BD03202070287860706878A070A878B2
:100EE000E070E8782071287960716879A071A8793C
:100EF000E071E8792072287A6072687AA072A87A24
:100F0000E072E87A2073287B6073A6730F21204675
:100F100004F0BEFBE07300BFDAE770B504460D468F
:100F2000164604B105B970BD0120207028786070A4
:100F30006878A070A878E070E878207128796071EE
:100F40006879A071A879E071E8792072287A6072D6
:100F5000687AA072A87AE072E87A2073287B6073BE
:100F6000687BA073E6731021204604F091FB207487
:100F700000BFD8E710B5044604B910BD0B4920687E
:100F80000860A0880A4908800A49A0680860112101
:100F90000948FFF792FA11210848FFF78EFA10214D
:100FA0000748FFF78AFA00BFE7E700002C0100209E
:100FB0003001002034010020F40E0020050F002035
:100FC000160F002030B50446002004F001050DB1D5
:100FD00040F0010001F001050DB140F0020002F007
:100FE00001050DB140F0040003F001050DB140F022
:100FF000080030BD06480078401C054908700846C6
:10100000007808B901200870014800787047000096
:101010003801002070B504460CB9012070BDFFF7FF
:10102000E9FF0646324621461548FFF776FF1121B3
:10103000134800F02BF805460DB12846EEE70520D1
:1010400000F09CFD324604F10E010E48FFF70DFF43
:1010500011210C4800F01AF805460DB12846DDE7CD
:10106000052000F08BFD324604F11C010648FFF715
:1010700029FF1021044800F009F805462846CDE76D
:10108000F40E0020050F0020160F002038B504468E
:101090000D460B48006800B10CB9012038BD094865
:1010A00000680090084800884FF6FF7202EA40018D
:1010B0002B4622460248006800F0D6FFEEE700000B
:1010C0002C010020340100203001002070B50446BE
:1010D000A01CB0F5807F00D970BD2146084800F003
:1010E00011F80546280A064908550A46601C155499
:1010F000A01C81B2104600F01BFA00BFECE7000014
:10110000D809002030B502460B464FF6FF7000218B
:1011100012E0545C604000240AE000F0010525B1B3
:1011200040104AF20105684000E04010651CACB276
:10113000082CF2D34C1CA1B29942EADB010241EA2D
:10114000202188B230BD000000487047E001002037
:101150002DE9F05F04462D48C0782C49897840EA93
:1011600001292A4840792949097940EA012614B120
:10117000042C00D80EB9BDE8F09F701E012101EBD0
:10118000D000C5B2EF1CB81CB0F5807F00D9F2E7E3
:10119000601E00F0FF081E48807A1E49087008464D
:1011A000447085702946C01CFFF787F9002025E0B0
:1011B00009EB000C1FFA8CF1C0F3C70200F0070323
:1011C000FF2919D2C8EB082CDFF84CA00AEB4C0C15
:1011D0001CF811C00CF0010C0CFA03FC0CF0FF0C15
:1011E00002F1030ADFF82CB01BF80AA04CEA0A0C43
:1011F00002F1030A0BF80AC0411C88B2B042D7DBE7
:101200003846FFF763FF00BFB5E700006F0000201E
:10121000D4010020D8090020E00100202DE9F0478A
:1012200004462948C0782849897840EA0129264897
:1012300040792549097940EA0125042C01D1681D2E
:1012400085B214B1042C00D80DB9BDE8F0874FF673
:10125000FF7000EA4506F01C87B2B81CB0F5807F2D
:1012600000D9F2E7601E00F0FF081848807A18499C
:101270000870084644708E7000201EE0002109EBC3
:1012800000039AB2FF2A07D2C8EB0823DFF844C054
:101290000CEB430333F812100B0A4FF0030C0CEB6A
:1012A000400CDFF82CA00AF80C30032303EB4003BA
:1012B0005B1C0AF80310411C88B2A842DEDB3846EA
:1012C000FFF704FF00BFC0E76F000020D40100203B
:1012D000D8090020E001002070B51048C0780F49FF
:1012E000897840EA01240D4840790C49097940EA9F
:1012F0000125FF2C08D2B5F57F4F01D1012000E078
:101300000020074921F81400064804490A680260D1
:10131000898881800620FFF7D9FE70BD6F0000200C
:10132000E0010020D809002070B50D48C0780C49B4
:10133000897840EA01240A4840790949097940EA54
:101340000125FF2C02D2074820F814500648044912
:101350000A680260898881800620FFF7B7FE70BDA9
:101360006F000020DC050020D809002010B50446DD
:1013700004B910BD1C4894E80E000EC00C38807AE9
:1013800010B90A20184988724FF4FF611748FFF717
:1013900094F81748002101604160164801604160DF
:1013A0004FF480711448FFF7AAF800201349087021
:1013B00013490870134908700B4A118950680022BC
:1013C00000F05EFD084800680068C06840F020003A
:1013D000054909680968C8600349012208680A4983
:1013E00002F0B2FA00BFC4E7D4010020E0010020FF
:1013F000670000206F000020D80900206500002051
:1014000066000020770000206400002070B50446CC
:101410004048006830B12CB13E492068096809682D
:10142000884200D070BD3C480078082862D2DFE8CE
:1014300000F0041824252627333B3648807A3749A4
:101440000978884207D1354800783549087001206D
:101450003149087004E000202F49087031490870B4
:101460004EE02E480078304908702C4800782C490E
:10147000487002202849087042E000BF00BF00BF4A
:10148000264800782649244A127888542248007851
:10149000401C2149087033E02048007820498871B9
:1014A00007201D4908702BE01C4800781C49C871B2
:1014B00006211B48FFF726FE05461948C079184942
:1014C000897940EA0126B54209D1184814490A68C9
:1014D00002608988818001201249087006E0134863
:1014E00000210160416000200E49087000200A4977
:1014F000087005E00020084908700A49087000BF1C
:1015000000BF044901220868044902F01DFA00BF27
:1015100088E70000D401002065000020640000205E
:101520006700002077000020660000206F00002088
:1015300070B504460D460F48006820B10D4840685C
:1015400008B104B105B970BD0A4A11895068012279
:1015500000F096FC0749FF232A460868214602F05E
:101560000FFA044A11895068002200F089FC00BF7C
:10157000E9E70000D401002010B51648007800B952
:1015800010BD72B60020134908701348047862B683
:101590004FF480711148FEF7B2FF072C15D2DFE837
:1015A00004F0140405090A0E110000BF2046FFF7DD
:1015B000CFFD0BE000BF2046FFF730FE06E0FFF74F
:1015C0008BFE03E0FFF7B0FE00E000BF00BF00BFEE
:1015D000D6E700007700002066000020D809002030
:1015E00000B970470178012904D1417811B901216E
:1015F000817005E0017819B94178012900D1C170E5
:101600004178017000BFECE700BFFEE710B5034969
:101610004CF2503000F004F810BD0000240100200E
:101620000246064803680868181A904204D30868FE
:1016300010440860012070470020FCE7DC00002017
:10164000704700B97047017871B14188C2889142F2
:1016500005DA4188491C41800021818010E0017A2F
:1016600081F0010141720BE08188C288914205DA64
:101670008188491C81800021418001E0017A41720A
:1016800000BFDFE772B600BFFEE7000010B5002222
:1016900001B909E0012901D10A0205E0022901D1BD
:1016A0000A0201E04FF440720E4B1B6823F44073B2
:1016B0000C4C236023461B681343236023461B689E
:1016C00023F07803236023461B68022444EAC00405
:1016D0002343044C236023461B6843F48033236078
:1016E00010BD0000103C0240074A126822F440720C
:1016F000054B1A601A4612681A601A46126842F0C0
:1017000001021A6001707047103C024010B50A498E
:10171000096821F44071084C21602146096841F4B0
:10172000407121602146096841F001012160026099
:10173000BFF36F8F436010BD103C0240084A12682F
:1017400022F44072064B1A601A46126842F4807204
:101750001A601A46126842F001021A60018070474E
:10176000103C0240084A126822F44072064B1A608C
:101770001A46126842F400721A601A46126842F061
:1017800001021A6001607047103C02402348006863
:1017900000F0100040B12248C06940F0100020491C
:1017A000C86110201D4908601C48006800F0200036
:1017B00040B11B48C06940F008001949C8612020A9
:1017C000164908601548006800F0400040B1144810
:1017D000C06940F004001249C86140200F49086008
:1017E0000E48006800F0800040B10D48C06940F02C
:1017F00002000B49C861802008490860074800685A
:1018000000F0020040B10648C06940F020000449E1
:10181000C861022001490860704700000C3C02408A
:101820003C01002070B50446002500201449C86121
:1018300000F02CFB054609E0601C38B124B100F033
:1018400025FB401BA04201D9032070BD0D48006854
:1018500000F480300028EFD10A48006800F0010051
:1018600010B10120074908600648006800F0F20046
:1018700018B1FFF78BFF0120E7E70020E5E7000044
:101880003C0100200C3C024030B503460C46154696
:10189000002207E003EB820002F01AFF44F8220066
:1018A000501CC2B2AA42F5DB30BD2DE9F04105461D
:1018B0000E46174600F0C8F902210520FFF7E6FEA4
:1018C000002407E056F8241005EB840003F0BAFE6C
:1018D000601CC4B2BC42F5DB00F064F9BDE8F081E5
:1018E000F0B50346002603B109B90120F0BD00BFE1
:1018F0005879012801D10220F8E70120587100BF72
:10190000022018711868046802F0100740F6FE7093
:10191000B8408443D1E9000740EA070502F010000F
:1019200005FA00F00443186804601868006802F0C3
:10193000100CC02707FA0CF7B8431F683860012065
:10194000187100BF0020587100BF3046CEE710B5B7
:1019500004460CB9012010BD207920B90020607127
:10196000204600F009F802202071002020610120AB
:1019700020710020EFE7000010B586B00446142166
:1019800001A8FEF7BCFD1949206888422BD100BF91
:10199000002000901648006840F00050144908608C
:1019A0000846006800F00050009000BF00BF00BF74
:1019B000002000900E481038006840F001000C49EB
:1019C000103908600846006800F00100009000BF70
:1019D00000BF30200190032002900020039001A955
:1019E000044800F04BF906B010BD00000074004040
:1019F000403802400000024038B504460020009004
:101A00000CB9012038BD2068009029B902F1080006
:101A1000009D2844009004E002F11400009D284439
:101A20000090009803600020ECE710B502460AB968
:101A3000012010BD00BF5079012801D10220F8E734
:101A40000120507100BF022010711068006801F081
:101A500010040123A34018431368186061B910688B
:101A6000006800F03C003C2816D11068406840F047
:101A70000100136858600FE01068006800F47013EC
:101A800001F010043C20A040834205D1106840685A
:101A900040F00200136858600120107100BF002060
:101AA000507100BF00BFC4E770B50446A56D00F0DB
:101AB000EDF9064694F83500022808D080206065CC
:101AC00000BF002084F8340000BF012070BD2068F2
:101AD000006820F01600216808602068406920F046
:101AE000800021684861206C08B9A06C28B120688A
:101AF000006820F00800216808602068006820F075
:101B000001002168086010E000F0C0F9801B052882
:101B10000BD920206065032084F8350000BF002029
:101B200084F8340000BF0320D0E72068006800F08C
:101B300001000028E8D194F85C103F208840A8609C
:101B4000012084F8350000BF002084F8340000BF75
:101B500000BFBBE7014691F83500022803D0802082
:101B6000486501207047052081F835000868006845
:101B700020F001000A6810600020F3E770B5044609
:101B800000F084F906462546681C10B10448007828
:101B9000054400BF00F07AF9801BA842FAD370BD5B
:101BA000640100200348006840F0004001490860DB
:101BB00000207047103C02402DE9F041064688465F
:101BC00014461D4600BF1E48007E012802D1022097
:101BD000BDE8F08101201A49087600BF4CF2503070
:101BE000FFF720FE07461FBB26B9E1B24046FFF7CC
:101BF0007BFD12E0012E04D1A1B24046FFF79EFD0D
:101C00000BE0022E04D121464046FFF7ABFD04E075
:101C100022462B464046FFF779FD4CF25030FFF745
:101C200001FE07460748006820F0010005490860EA
:101C300000BF00200249087600BF3846C8E7000010
:101C40003C010020103C024000200949096801F0D5
:101C5000004159B10749064A0C3A11600649116022
:101C60000349096801F0004101B1012070470000FB
:101C7000103C024023016745AB89EFCDF8B5024621
:101C80000B460025002400200021D6E0012606FA9C
:101C900001F51E6806EA0504AC4274D11E7906F00F
:101CA0000306012E04D01E7906F00306022E13D17E
:101CB00090684F000326BE40B0434F00DE68BE4030
:101CC00030439060506801268E40B0431E79C6F3C1
:101CD00000168E40304350601E7906F00306032E36
:101CE00009D0D0684F000326BE40B0434F009E6825
:101CF000BE403043D0601E7906F00306022E13D199
:101D0000CF0802F1200656F827004E07F70E0F26DF
:101D1000BE40B0434F07FF0E1E69BE403043CF08A0
:101D200002F1200646F8270010684F000326BE4047
:101D3000B0431E7906F003064F00BE4030431060EA
:101D40005E6806F44036002E76D000BF002600966E
:101D50003C4E366846F480463A4F3E603E46366812
:101D600006F48046009600BF00BF374E8F0856F835
:101D700027008E07370F0F26BE40B043334EB242C6
:101D800002D1002624E057E0314EB24201D10126B3
:101D90001EE0304EB24201D1022619E02E4EB24270
:101DA00001D1032614E02D4EB24201D104260FE0EA
:101DB0002B4EB24201D105260AE02A4EB24201D191
:101DC000062605E0284EB24201D1072600E008268B
:101DD0008F073F0FBE4030431B4E8F0846F8270049
:101DE000224E3068A0435E6806F4801606B1204398
:101DF0001E4E3060361D3068A0435E6806F4001643
:101E000006B12043194E361D3060184E361F30681B
:101E1000A0435E6806F4003606B12043134E361F19
:101E20003060361F3068A0435E6806F4803606B125
:101E300020430E4E083E3060491C1029FFF426AFA7
:101E4000F8BD00004438024008380140000002405C
:101E50000004024000080240000C02400010024052
:101E60000014024000180240001C0240083C0140DF
:101E7000024613690B400BB1012000E000207047BF
:101E80000AB1816101E00B04836170470148006879
:101E9000704700005C01002070B504460CB90120B9
:101EA00070BD94F83D0028B9002084F83C0020461D
:101EB00000F092F9242084F83D002068006820F0AA
:101EC0000100216808602068006840F40040216833
:101ED00008602068006820F400402168086000F075
:101EE0008DFC05465C496068884206D85B4885429F
:101EF00001D2012007E0002005E05948854201D2C7
:101F0000012000E00020012800D1C9E75548B5FBB9
:101F1000F0F62068406820F03F00304321684860B8
:101F20004D496068884201D8701C07E04FF49670F4
:101F300070434FF47A71B0FBF1F0401C2168096ADC
:101F400021F03F01084321680862434960688842E4
:101F500014D8681E61684900B0FBF1F0401CC0F362
:101F60000B00042801D204203DE0681E616849008E
:101F7000B0FBF1F0401CC0F30B0034E0A06838B9AE
:101F8000681E616801EB4101B0FBF1F0401C0AE002
:101F9000681E616801EBC10202EB0111B0FBF1F0B8
:101FA000401C40F48040C0F30B0008B901201AE047
:101FB000A06848B9681E616801EB4101B0FBF1F00F
:101FC000401CC0F30B000CE0681E616801EBC1020D
:101FD00002EB0111B0FBF1F0401CC0F30B0040F428
:101FE000804040F400402168C9694CF6FF7291437B
:101FF00008432168C861D4E90701084321680968DA
:1020000021F0C001084321680860D4E903100843A7
:102010002168896848F2FF3291430843216888604B
:10202000D4E9050108432168C96821F0FF0108438C
:102030002168C8602068006840F0010021680860DD
:1020400000202064202084F83D000020206384F8D4
:102050003E0000BF24E70000A086010080841E002F
:1020600000093D0040420F002DE9F843044689462F
:1020700016461F46DDF82080FFF708FF054694F856
:102080003D0020287ED11923012251492046009588
:1020900001F08FFE10B10220BDE8F88300BF94F874
:1020A0003C00012801D10220F6E7012084F83C0021
:1020B00000BF2068006800F0010028B920680068AF
:1020C00040F00100216808602068006820F400608A
:1020D00021680860212084F83D00102084F83E002B
:1020E0000020206466626785608D20853948E06243
:1020F0002B4642464946204601F0C4FC08B1012067
:10210000CAE700BF00200090206840690090206866
:102110008069009000BF00BF44E02A464146204647
:1021200001F023FF50B1206C042805D1206800681D
:1021300040F40070216808600120ADE7606A007813
:1021400021680861606A401C6062608D401E608585
:10215000208D401E208520684069C0F3800070B14A
:10216000208D60B1606A007821680861606A401C57
:102170006062608D401E6085208D401E20852A464D
:10218000414600E022E0204601F0E0FD50B1206C25
:10219000042805D12068006840F4007021680860B8
:1021A000012079E7208D0028B7D12068006840F42D
:1021B000007021680860202084F83D00002084F829
:1021C0003E0000BF84F83C0000BF65E7022063E7E3
:1021D000020010000000FFFF10B586B00446142175
:1021E00001A8FEF78CF91B49206888422FD100BF57
:1021F000002000901848006840F00200164908606E
:102200000846006800F00200009000BF00BFC02038
:1022100001901220029000200390032004900420DB
:10222000059001A90D48FFF729FD00BF002000908F
:1022300009481030006840F4001007491031086068
:102240000846006800F40010009000BF00BF06B010
:1022500010BD00000054004030380240000402402D
:102260000348006803490978084401490860704739
:102270005C0100206401002010B50D48006840F4A6
:1022800000700B4908600846006840F480600860F0
:102290000846006840F480700860032000F0E0F811
:1022A0000F2000F007F800F05FF8002010BD0000DC
:1022B000003C02402DE9F04188B004460027B846B2
:1022C00000BF002001902348006840F4807021493D
:1022D00008600846006800F48070019000BF00BFED
:1022E00002A903A800F062FA069F1FB900F086FA5F
:1022F000054602E000F082FA45001748B5FBF0F011
:10230000A0F1010815481649086040F2E731144869
:10231000C160C0F80480002101618160816100F02A
:102320005FFF064696B90E4800F0B2FF06466EB94A
:102330002D2000F043F8102C07D2002221462D203A
:1023400000F050F80748046000E00126304608B06D
:10235000BDE8F0814038024040420F0000200040BC
:10236000AC0E00206001002008B500BF00200090E6
:102370001148006840F480400F4908600846006832
:1023800000F48040009000BF00BF00BF002000901C
:10239000081F006840F08050091F08600846006868
:1023A00000F08050009000BF00BF00220F21901E5F
:1023B00000F018F808BD0000443802400146084605
:1023C00000280DDB00BF00BF00F01F0301229A4070
:1023D00043099B0003F1E023C3F8002100BF00BFC5
:1023E00000BF70472DE9F05F80460D461646002776
:1023F00003F032F9074639462A46334601F0070012
:10240000C0F1070ABAF1040F02D94FF0040A01E043
:10241000C0F1070AD14600F1040ABAF1070F02D24F
:102420004FF0000A01E0A0F1030AD4464FF0010A80
:102430000AFA09FAAAF1010A0AEA020A0AFA0CFAE5
:102440004FF0010B0BFA0CFBABF1010B0BEA030B8A
:102450004AEA0B042146404603F006F9BDE8F09F26
:1024600000BF00F00702064B19684FF6FF03194042
:10247000044B0B4343EA0221014B196000BF704734
:102480000CED00E00000FA05F8B504460025002632
:10249000207800F0010020B9207800F00400042822
:1024A0002FD100205B498866FFF7F0FC054606E067
:1024B000FFF7ECFC401B022801D90320F8BD564869
:1024C0000068C0F3C0600028F2D160688101207A02
:1024D00041EA007050498431086001204D49886606
:1024E000FFF7D4FC054606E0FFF7D0FC401B0228AE
:1024F00001D90320E2E748480068C0F3C060002823
:10250000F2D0207800F0020002287DD100BF002028
:10251000009041484030006840F080503E494031D2
:1025200008600846006800F08050009000BF00BFBF
:102530003A48006840F4807038490860FFF7A6FC0C
:10254000054606E0FFF7A2FC401B022801D9032044
:10255000B4E73248006800F480700028F2D02E48BA
:102560007030006800F440764EB3A08900F44070EB
:10257000B04224D028487030006820F44076012012
:102580002749086000200860234870300660006812
:1025900000F0010098B1FFF779FC054608E0FFF76D
:1025A00075FC401B41F28831884201D9032085E740
:1025B000194870300068C0F340000028EFD000BF19
:1025C000A08900F44070B0F5407F0CD1124808306B
:1025D000006820F4F810134AE168114008430E49DE
:1025E0000831086007E00C480830006820F4F81053
:1025F000094908310860084870300068A189C1F3B2
:102600000B010843044900E002E07031086000BF9C
:10261000002053E7000047420038024000700040AD
:10262000400E4742FFFCFF0F70B504460D460CB943
:10263000012070BD5848006800F00700A84209D288
:1026400055490D700846006800F00700A84201D007
:102650000120EEE7207800F0020002281DD120784A
:1026600000F00400042805D14C48006840F4E05014
:102670004A490860207800F00800082805D147483A
:10268000006840F46040454908604448006820F014
:10269000F000A168084341490860207800F001007B
:1026A000A8B36068012807D13C4808380068C0F327
:1026B0004040B8B90120BCE76068022802D06068D9
:1026C000032807D1354808380068C0F3406048B98E
:1026D0000120AEE7314808380068C0F3400008B96F
:1026E0000120A6E72D48006820F003006168084338
:1026F0002A490860FFF7CAFB064609E0FFF7C6FB58
:10270000801B41F28831884202D9032091E707E01B
:102710002248006800F00C006168B0EB810FEDD139
:102720001D48006800F00700A84209D91A490D7039
:102730000846006800F00700A84201D0012078E7B1
:10274000207800F00400042807D11448006820F421
:10275000E050E168084311490860207800F0080063
:10276000082808D10D48006820F46040216940EA3B
:10277000C1000A49086000F061F808490968C1F31E
:102780000311074A515CC8400649086006480068C2
:10279000FFF790FD00204CE7003C02400838024063
:1027A000A66A000868010020600100200F22026074
:1027B0000D4A126802F0030242600B4A126802F0EE
:1027C000F0028260084A126802F4E052C260064ACF
:1027D000126802F46042D2080261044A126802F0F0
:1027E00007020A607047000008380240003C0240BF
:1027F00001480068704700006801002000B5FFF73D
:10280000F7FF04490968C1F38221034A515CC840BB
:1028100000BD000008380240B66A000800B5FFF7A6
:10282000E7FF04490968C1F34231034A515CC840DB
:1028300000BD000008380240B66A00082DE9F047E4
:10284000002400250026A1462548006800F00C0061
:1028500020B1042805D008283AD105E0DFF884909B
:1028600039E0DFF8849036E01D48001F006800F072
:102870003F041B48001F006800F4800078B11A482C
:102880001749091F0968C1F38811A0FB01700146AF
:10289000224600233846FDF767FD05460EE0114845
:1028A0000F49091F0968C1F38811A0FB0170014697
:1028B000224600233846FDF757FD05460848001F0D
:1028C0000068C0F30140401C4600B5FBF6F902E089
:1028D000DFF8109000BF00BF4846BDE8F087000059
:1028E000083802400024F40040787D01F8B5044621
:1028F0000CB90120F8BD207800F00100002874D048
:10290000F948006800F00C0004280DD0F648006873
:1029100000F00C00082813D1F348001F006800F4F1
:102920008000B0F5800F0BD1EF4808380068C0F385
:102930004040002859D06068002856D10120D9E7CE
:1029400000BF6068B0F5803F08D1E74808380068EC
:1029500040F48030E449083908601EE06068B0F552
:10296000A02F0DD1E0480838006840F48020DE49EF
:10297000083908600846006840F4803008600CE0C0
:10298000D9480838006820F48030D74908390860F1
:102990000846006820F48020086000BF606890B19D
:1029A000FFF774FA054606E0FFF770FA401B64284B
:1029B00001D903209EE7CC4808380068C0F34040A6
:1029C0000028F1D011E0FFF761FA054606E0FFF7B5
:1029D0005DFA401B642801D903208BE7C248083800
:1029E0000068C0F340400028F1D1207800F00200D8
:1029F00002285FD1BC48006800F00C0058B1BA480A
:102A0000006800F00C0008281CD1B748001F0068BF
:102A100000F48000B0B9B44808380068C0F3400042
:102A200020B1E068012801D0012063E7AE480838F2
:102A3000006820F0F800216940EAC100AA4908397D
:102A4000086037E0E06800B30120A8490860FFF79C
:102A50001DFA054606E0FFF719FA401B022801D9C6
:102A6000032047E7A04808380068C0F3400000286A
:102A7000F1D09D480838006820F0F800216940EA4C
:102A8000C10099490839086014E00020974908609E
:102A9000FFF7FCF9054606E0FFF7F8F9401B0228AE
:102AA00001D9032026E7904808380068C0F34000A9
:102AB0000028F1D1207800F0080008282CD16069A6
:102AC000A8B101208A490860FFF7E0F9054606E051
:102AD000FFF7DCF9401B022801D903200AE78248EE
:102AE0006C300068C0F340000028F1D014E00020F2
:102AF0007F490860FFF7CAF9054606E0FFF7C6F907
:102B0000401B022801D90320F4E677486C300068A6
:102B1000C0F340000028F1D1207800F00400042820
:102B200070D1002770483830006800F0805090B9AC
:102B300000BF002000906C483830006840F08050A2
:102B40006949383108600846006800F080500090FC
:102B500000BF00BF01276748006800F48070B0B96B
:102B60006448006840F4807062490860FFF78EF99D
:102B7000054606E0FFF78AF9401B022801D9032029
:102B8000B8E65C48006800F480700028F2D000BF0E
:102B9000A068012808D154486830006840F001005E
:102BA0005149683108601DE0A06805280DD14E48E4
:102BB0006830006840F004004B49683108600846FE
:102BC000006840F0010008600CE047486830006889
:102BD00020F001004449683108600846006820F090
:102BE0000400086000BFA068A8B1FFF74FF90546D0
:102BF00009E0FFF74BF9401B41F28831884202D9C6
:102C0000032077E626E0384868300068C0F34000CB
:102C10000028EED013E0FFF739F9054608E0FFF78A
:102C200035F9401B41F28831884201D9032061E621
:102C30002D4868300068C0F340000028EFD1012F14
:102C400007D129483830006820F0805026493831B3
:102C5000086000BFA069002845D02348006800F044
:102C60000C0008285DD0A069022845D100201F492A
:102C70000866FFF70BF9054606E0FFF707F9401B6A
:102C8000022801D9032035E6174808380068C0F348
:102C900040600028F1D1D4E907010843616A40EAA5
:102CA00081110122A06AC2EB500041EA00412C20B0
:102CB000005D41EA00600C49091F086001200B49D2
:102CC0000866FFF7E3F8054606E0FFF7DFF8401B6C
:102CD000022801D903200DE6034808380068C0F334
:102CE00040600028F1D049E0083802400000474227
:102CF000800E474200700040002021490866FFF71F
:102D0000C5F8054606E0FFF7C1F8401B022801D9C7
:102D10000320EFE51B480068C0F340600028F2D1B3
:102D20002CE0A069012800D1E4E51648001D0668E2
:102D3000A069012820D006F48001E06981421BD1FE
:102D400006F03F01206A814216D147F6C07030403C
:102D5000616AB0EB811F0FD106F440310122A06AF5
:102D6000C2EB5000B1EB004F06D106F070612C2091
:102D7000005DB1EB006F01D00120BBE50020B9E59B
:102D8000000047420038024002460023106800F16C
:102D9000500303EB81031868704710B500230468E3
:102DA00004F1500303EB81031A6010BD70B50546B2
:102DB0000B4616460024286840680E4900EA0104C4
:102DC000200CD870C4F30420587004F03F009870B1
:102DD000C4F3423018705EB9D87801F025FCD87081
:102DE000587801F021FC5870987801F01DFC98701B
:102DF000002070BD3FFFFF0070B504460B4616462D
:102E000000252068806A586020680069C0F30E00C1
:102E10009860206800680E4900EA0105C5F3054086
:102E20001870C5F30620587005F07F009870A80D43
:102E3000D8705EB9187801F0F7FB1870587801F077
:102E4000F3FB5870987801F0EFFB9870002070BD8C
:102E50007F7F7F0070B504460CB9012070BD607F94
:102E600020B900202077204600F04EF8022060773D
:102E70002068C068C0F3001000283CD100BFCA2001
:102E80002168486253202168486200BF204601F053
:102E9000E3FB0546EDB9206880681A4908402168BF
:102EA000886021696068084361690843216889680E
:102EB0000843216888602168E0680861206801692A
:102EC000208941EA004021680861204601F0E9FBC1
:102ED00005465DB92068006C20F4802021680864F4
:102EE0002068006CA16908432168086400BFFF20C6
:102EF0002168486200E000250DB90120607728466E
:102F0000ACE70000BFFF8FFF1FB504460020009014
:102F10000190029003900949206888420CD1022058
:102F20000090C00103906846FFF7AEFA08B1FEF7C3
:102F3000A9FB0120024908601FBD000000280040D5
:102F40003C0E47422DE9F04105460C4617464FF02E
:102F5000000800BF287F012802D10220BDE8F081CF
:102F60000120287700BF022068774FB9607800F011
:102F70001000102804D1607800F0EF000A30607073
:102F800087B9E07801F05BFB0304607801F057FB40
:102F900043EA0023A07801F052FB0343207843EA80
:102FA000403809E0E0780004617840EA0120A17827
:102FB0000843217840EA413800BFCA2029684862A6
:102FC00053202968486200BF284601F045FB0646A9
:102FD00046B90B4808EA000029684860284601F015
:102FE00060FB06460EB90120687700BFFF20296804
:102FF000486200BF00BF0020287700BF3046ADE721
:103000003FFFFF002DE9F04104460D4617464FF003
:10301000000800BF207F012802D10220BDE8F08116
:103020000120207700BF02206077CFB92068806838
:1030300000F0400000B102E00020E87000BF2878F6
:1030400001F0FDFA0304687801F0F9FA43EA00237D
:10305000A87801F0F4FA0343E87843EA805812E0D4
:103060002068806800F0400000B102E00020E870B5
:1030700000BF28780004697840EA0120A978084355
:10308000E97840EA815800BFCA202168486253208D
:103090002168486200BF204601F0DEFA0646B6B954
:1030A000124808EA0000216808602068806820F45F
:1030B000802021688860D5E9030108432168896878
:1030C000084321688860204601F0EBFA06460EB9F5
:1030D0000120607700BFFF202168486200BF00BF69
:1030E0000020207700BF304698E700007F7F7F00F8
:1030F00070B5044600250B482168C860FEF7C6FE7F
:10310000054607E0FEF7C2FE401BB0F57A7F01D905
:10311000032070BD2068C06800F020000028F1D0B6
:103120000020F6E75F7F01007047704730B5024628
:103130000B4600BF92F83C00012801D1022030BDAF
:10314000012082F83C0000BF022082F83D00106898
:1031500044681068816824F070041868044310689B
:103160004460184D1068A8421BD01068B0F1804F21
:1031700017D0154D1068A84213D0144D1068A842FE
:103180000FD0134D1068A8420BD0124D1068A84202
:1031900007D0114D1068A84203D0104D1068A84206
:1031A00005D121F080015868014310688160012039
:1031B00082F83D0000BF002082F83C0000BF00BF45
:1031C000BDE700000000014000040040000800408E
:1031D000000C004000040140004001400018004085
:1031E00010B504460CB9012010BD94F83D0028B973
:1031F000002084F83C00204600F026F8022084F8E5
:103200003D00211D206801F029FF012084F84600BF
:1032100000BF84F83E0001213F20015540200155A8
:103220004120015500BF00BF012084F84200432027
:103230000155442001554520015500BF012084F867
:103240003D000020D0E7000038B504460E49206854
:10325000884217D100BF002000900C48006840F061
:1032600020000A4908600846006800F0200000902D
:1032700000BF00BF002205213720FFF7B3F8372039
:10328000FFF79CF838BD00000014004040380240B1
:10329000014691F83D00012801D00120704702202D
:1032A00081F83D000868C06840F001000B68D860F4
:1032B0001A4B086898421BD00868B0F1804F17D0AD
:1032C000174B0868984213D0164B086898420FD0E5
:1032D000154B086898420BD0144B0868984207D0E9
:1032E000134B0868984203D0124B086898420CD1DF
:1032F0000868806800F00702062A0CD00868006899
:1033000040F001000B68186005E00868006840F0B4
:1033100001000B6818600020C0E7000000000140B9
:103320000004004000080040000C00400004014080
:103330000040014000180040704770B50446206806
:10334000C5682068066906F00200022819D105F058
:103350000200022815D1401F216808610120207752
:103360002068806900F0030018B12046FFF7E4FFF1
:1033700005E0204600F097F8204600F095F8002080
:10338000207706F00400042819D105F00400042871
:1033900015D1C04321680861022020772068806928
:1033A00000F4407018B12046FFF7C6FF05E0204644
:1033B00000F079F8204600F077F80020207706F03A
:1033C0000800082819D105F00800082815D1C043C5
:1033D00021680861042020772068C06900F003009C
:1033E00018B12046FFF7A8FF05E0204600F05BF883
:1033F000204600F059F80020207706F01000102831
:1034000019D105F01000102815D1C04321680861BA
:10341000082020772068C06900F4407018B1204669
:10342000FFF78AFF05E0204600F03DF8204600F057
:103430003BF80020207706F0010048B105F00100BC
:1034400030B16FF0010021680861204600F02EF8CD
:1034500006F08000802809D105F08000802805D181
:10346000C043216808612046FFF75EFE06F0400079
:10347000402809D105F04000402805D1C04321680B
:103480000861204600F050F806F02000202809D1FD
:1034900005F02000202805D1C0432168086120469E
:1034A000FFF743FE70BD70477047000010B504463B
:1034B00017492068884201D1FEF7D2FE15492068DD
:1034C000884224D114480068401C134908601348FE
:1034D0000068401C1149086011480078401C1049E0
:1034E0000870084600780A2803D300200870FDF70A
:1034F00023FC0C480068401C0A4908600846006824
:1035000042F21071884202D300200649086010BDC3
:103510000020004000140040D8000020DC00002003
:103520001801002004010020704770477047000018
:103530002DE9F84F0446206805682068C6682068B1
:1035400047694FF00009CA4605F00F09B9F1000FAD
:103550000AD105F0200038B106F0200020B1204645
:1035600001F03BFEBDE8F88FB9F1000F7CD007F009
:10357000010018B906F49070002875D005F001001C
:1035800030B106F4807018B1606C40F001006064E6
:1035900005F0040030B107F0010018B1606C40F094
:1035A0000200606405F0020030B107F0010018B1BC
:1035B000606C40F00400606405F0080048B106F05B
:1035C000200010B907F0010018B1606C40F008004D
:1035D0006064606C002846D005F0200028B106F039
:1035E000200010B1204601F0F8FD20684069C0F3CA
:1035F000801A606C00F0080010B9BAF1000F2DD0ED
:10360000204601F0A4FD2068406900F040004028F9
:1036100020D100BF00BF2168143151E8001F21F004
:1036200040002168143141E80002002AF3D100BFB4
:10363000E06B50B17F48E16B0865E06BFEF78AFAFA
:1036400088B1E06B016D88470DE02046FFF76EFF03
:1036500009E009E02046FFF769FF04E02046FFF794
:1036600065FF002060647DE7206B012878D105F0BC
:103670001000002874D006F010000028FAD000BF17
:10368000002000902068006800902068406800904A
:1036900000BF00BF2068406900F04000402870D1A2
:1036A000E06B006840681FFA80F8B8F1000F58D04E
:1036B000A08D404555DDA4F82E80E06BC069B0F5C3
:1036C000807F43D000BF00BF21680C3151E8001F4C
:1036D00021F4807021680C3141E80002002AF3D106
:1036E00000BF00BF00BF2168143151E8001F21F066
:1036F00001002168143141E80002002AF3D100BF23
:1037000000BF00BF2168143151E8001F21F04000C4
:103710002168143141E80002002AF3D100BF2020C3
:1037200084F842000020206300BF00BF21680C31F4
:1037300051E8001F21F0100021680C3141E800021F
:10374000002AF3D100BFE06BFEF7AEF90220606300
:10375000A08DE28D801A81B22046FFF7E6FE0EE0D2
:1037600052E0A08D40450AD1E06BC069B0F5807F82
:1037700005D102206063A18D2046FFF7D6FEF1E659
:10378000FFE7A08DE18D401A1FFA80F8E08DD0B3DD
:10379000B8F1000F37D000BF00BF21680C3151E8ED
:1037A000001F21F4907021680C3141E80002002ACA
:1037B000F3D100BF00BF00BF2168143151E8001FE2
:1037C00021F001002168143141E80002002AF3D100
:1037D00000BF202084F842000020206300BF00BF0B
:1037E00021680C3151E8001F21F0100021680C31D4
:1037F00041E80002002AF3D100BF02206063414685
:103800002046FFF792FEADE605F0800030B106F0ED
:10381000800018B1204601F095FEA3E605F04000B7
:1038200030B106F0400018B1204601F0C6FC99E620
:1038300000BF97E63D51000810B504460CB90120C1
:1038400010BDA06900B100E000BF94F8410028B9A4
:10385000002084F84000204600F02AF8242084F854
:1038600041002068C06820F400502168C8602046EC
:1038700001F032FD2068006920F490402168086161
:103880002068406920F02A00216848612068C068EB
:1038900040F400502168C86000206064202084F853
:1038A000410084F842000020606300BFC8E70000C8
:1038B00010B586B00446142101A8FCF720FE1F496C
:1038C0002068884238D100BF002000901C48006862
:1038D00040F480201A4908600846006800F48020FF
:1038E000009000BF00BF00BF0020009014481038B7
:1038F000006840F008001249103908600846006866
:1039000000F00800009000BF00BF4FF4407001902D
:1039100002200290002003900320049007200590CD
:1039200001A90848FEF7AAF9002205212720FEF781
:1039300059FD2720FEF742FD06B010BD00480040AB
:1039400040380240000C024070B504460D46164651
:1039500094F8420020280BD105B10EB9012070BDAA
:103960000020206332462946204601F0CBFDF6E7D1
:103970000220F4E710B504462046FDF747FD10BDD0
:103980002DE9F84F04460E46174699464FF0000AB7
:1039900094F84100202850D106B117B90120BDE8A4
:1039A000F88F00206064212084F84100FEF76EFA51
:1039B0008246A784E784A068B0F5805F04D12069BF
:1039C00010B90025B04602E035464FF000081EE071
:1039D0005346002280212046CDF8009001F0E2FD00
:1039E00020B1202084F841000320D8E745B9B8F879
:1039F0000000C0F308002168486008F1020803E0F5
:103A00002878216848606D1CE08C401EE084E08CC2
:103A10000028DDD15346002240212046CDF80090F9
:103A200001F0C0FD20B1202084F841000320B6E75A
:103A3000202084F841000020B1E70220AFE7704762
:103A400000BFFEE7014608684069C0F38020B0B1BE
:103A50006FF480600A68506100200863202081F8BC
:103A60003D00002081F83E00086C40F0040008642E
:103A700000BF002081F83C0000BF012070470020FB
:103A8000FCE700002DE9F84304460D46174698462A
:103A9000E66A082E04D0012E02D016F5803F06D12A
:103AA0002068006840F480702168086008E0206B9E
:103AB000122805D12068006840F4807021680860F1
:103AC0003B4600224FF001112046CDF8008000F067
:103AD00070F960B12068006800F48070B0F5807FF4
:103AE00002D14FF4007020640320BDE8F883206900
:103AF000B0F5804F04D105F0FE002168086112E0A6
:103B000005F44070F02141EAE01021680861434665
:103B10003A460B49204600F0ABF908B10120E4E732
:103B2000E8B22168086143463A460549891F2046A4
:103B300000F09EF908B10120D7E70020D5E700008A
:103B40000800010000B58BB0584880788DF800005F
:103B5000564840788DF801005448C0788DF802002E
:103B6000534800788DF80300514840788DF80400E0
:103B70004F4880788DF805004E4800788DF8060093
:103B80004D4800788DF807004C4800788DF8080003
:103B90004B4800788DF809004A4800788DF80A00F3
:103BA000494800788DF80B00484800788DF80C00E3
:103BB000474800788DF80D0046480378464802785B
:103BC0004648017846480078FDF7FCF98DF80E006C
:103BD000444801788DF80F10434801788DF8101093
:103BE000424801788DF81110414801788DF8121083
:103BF000404801788DF813103F4801788DF8141073
:103C00003E4801788DF815103D4801788DF8161062
:103C10003C4801788DF817103B4801788DF8181052
:103C20003A4801788DF81910394801788DF81A1042
:103C3000384801788DF81B10374800788DF81C0043
:103C4000364801788DF81D10354801788DF81E1022
:103C5000344801788DF81F10334801788DF8201012
:103C6000324801788DF82110314801788DF8221002
:103C7000304801788DF823102F4801788DF82410F2
:103C80002E4801788DF825102D4801788DF82610E2
:103C90002C4801788DF827102B4801788DF82810D2
:103CA0006846FDF7B7F90BB000BD000085000020A5
:103CB0001C0C0020090100200A0100200B0100203B
:103CC0000C010020F1000020F3000020F200002091
:103CD000F4000020EF000020EE000020ED000020A6
:103CE000EC000020A8000020AA000020AC0000206A
:103CF000B0000020B2000020B4000020B800002076
:103D0000BA000020BC000020F5000020F7000020D1
:103D1000F6000020F8000020F9000020FB00002041
:103D2000FA000020FC000020C0000020C20000209B
:103D3000C4000020C8000020CA000020CC000020E1
:103D4000D0000020D2000020D400002070B504462E
:103D50000D46164625E02046FFF774FE08B1012007
:103D600070BD681CE8B1FEF791F8801BA84200D82E
:103D7000BDB920684069C0F3800090B9002020637D
:103D8000202084F83D00002084F83E00206C40F0A4
:103D90002000206400BF002084F83C0000BF012008
:103DA000DEE720684069C0F380000028D3D00020FF
:103DB000D6E72DE9F04104460D4617461E46DDF8CC
:103DC000188038E0701CA8B3FEF760F8A0EB08007C
:103DD000B04200D876BBC5F3074001280AD120685D
:103DE0004069A9B20840A9B2884201D101200BE084
:103DF000002009E020688069A9B20840A9B2884281
:103E000001D1012000E00020B84214D1002020633D
:103E1000202084F83D00002084F83E00206C40F013
:103E20002000206400BF002084F83C0000BF012077
:103E3000BDE8F081FFE7C5F3074001280AD12068FB
:103E40004069A9B20840A9B2884201D101200BE023
:103E5000002009E020688069A9B20840A9B2884220
:103E600001D1012000E00020B842ABD00020DFE704
:103E70002DE9F04104460D4616461F4658E02068DD
:103E80004069C0F38020E8B12068006840F4007009
:103E9000216808606FF48060216848610020206319
:103EA000202084F83D00002084F83E00206C40F083
:103EB0000400206400BF002084F83C0000BF012003
:103EC000BDE8F081701C90B3FDF7E0FFC01BB0426D
:103ED00000D866BBC5F3074001280AD120684069B5
:103EE000A9B20840A9B2884201D101200BE000200C
:103EF00009E020688069A9B20840A9B2884201D1CE
:103F0000012000E0002090B900202063202084F8E8
:103F10003D00002084F83E00206C40F0200020642A
:103F200000BF002084F83C0000BF0120C8E7FFE785
:103F3000C5F3074001280AD120684069A9B20840AA
:103F4000A9B2884201D101200BE0002009E02068DD
:103F50008069A9B20840A9B2884201D1012000E0DD
:103F6000002000288BD00020AAE770B504460D463B
:103F7000164625E02046FFF765FD08B1012070BD1B
:103F8000681CE8B1FDF782FF801BA84200D8BDB9CC
:103F900020684069C0F3C01090B900202063202041
:103FA00084F83D00002084F83E00206C40F02000A2
:103FB000206400BF002084F83C0000BF0120DEE741
:103FC00020684069C0F3C0100028D3D00020D6E795
:103FD000644800786449088062480088C0F307207C
:103FE000624908805F480068C0F307406049088064
:103FF0005C480068000E5F4908805A4800795E49B5
:10400000088058488088C0F307205C4908805548DC
:104010004068C0F307405A49088052484068000E83
:10402000584908804F48007A574908704D48008920
:10403000000A564908704B488068000C54490870C3
:1040400048488068000E534908804648007B524922
:10405000086044488089C0F3072008604148C06870
:10406000000C4E4908703F48C068000E4C4908706B
:104070003C48007C4B4908803A48008AC0F307203E
:104080004949088037480069C0F30740474908801C
:1040900034480069000E464908803248007D454991
:1040A00008803048808AC0F30720434908802D48A3
:1040B0004069C0F30740414908802A484069000E22
:1040C0003F4908802748007E3E4908702548008BFC
:1040D000000A3D49087023488069000C3B4908707C
:1040E00020488069000E3A4908801E48007F2A490E
:1040F00008601C48808BC0F3072008601948C0691D
:10410000000C344908701748C069000E3249087025
:10411000144890F82000314908701248008C000AB9
:104120002F4908700F48006A000C2E4908700D488E
:10413000006A000E2C4908700A4890F824002B49A8
:1041400008700848808CC0F30720134908600548B0
:10415000406AC0F3074008600248406A000E2449E4
:1041600008707047300C0020B0000020AC00002028
:10417000AA000020A8000020BA000020B8000020FB
:10418000B4000020B2000020F2000020F300002064
:10419000F1000020A4000020E8000020EC00002036
:1041A000F4000020C8000020C4000020C20000204D
:1041B000C0000020D2000020D0000020CC00002051
:1041C000CA000020FA000020FB000020F9000020B7
:1041D000D4000020EF000020FC000020F8000020A8
:1041E000F6000020F7000020F5000020EE0000207F
:1041F000ED0000201CB50020009001900E480F49F2
:1042000008600846FDF7A3FB08B1FDF73BFA002064
:1042100000900190002269460848FDF761FB08B153
:10422000FDF730FA102269460448FDF759FB08B142
:10423000FDF728FA1CBD000000740040D80A0020D9
:1042400000B587B0142102A8FCF759F900BF00207F
:1042500001909448006840F01000924908600846B8
:10426000006800F01000019000BF00BF00BF0020F8
:1042700001900846006840F00400086008460068A5
:1042800000F00400019000BF00BF00BF00200190BB
:104290000846006840F0800008600846006800F0AA
:1042A0008000019000BF00BF00BF002001900846C1
:1042B000006840F0010008600846006800F0010056
:1042C000019000BF00BF00BF0020019008460068B9
:1042D00040F0020008600846006800F0020001900B
:1042E00000BF00BF00BF002001900846006840F0FA
:1042F000080008600846006800F00800019000BF50
:1043000000BF00227F216848FDF7BAFD002242F27B
:10431000CD116648FDF7B4FD002201216448FDF788
:10432000AFFD002248F232316248FDF7A9FD0022BC
:104330004FF400416048FDF7A3FD7F20029001206B
:10434000039000200490059002A95748FDF796FCC1
:1043500042F2CD10029001200390002004900590BD
:1043600002A95248FDF78AFC012002900390002028
:104370000490059002A94E48FDF780FC862002902B
:104380000220039000200490032005900B2006904B
:1043900002A94748FDF772FC4820029003200390D1
:1043A0000020049002A94248FDF768FC30200290EA
:1043B0000220039000200490032005900B2006901B
:1043C00002A93A48FDF75AFC48F232300290012027
:1043D000039000200490059002A93648FDF74EFC9A
:1043E0004FF46050029002200390002004900320BC
:1043F00005900B20069002A92E48FDF73FFC44F2E1
:104400001800029000200390049002A92A48FDF7AA
:1044100035FC4FF4004002900120039000200490EE
:10442000059002A92448FDF729FC4FF4C0600290D2
:10443000022003900020049003200590072006909E
:1044400002A91B48FDF71AFC4FF40040029000201F
:104450000390049002A91648FDF710FC602002901A
:10446000022003900020049003200590072006906E
:1044700002A91148FDF702FC802002904FF4881039
:1044800003900020049002A90B48FDF7F7FB0820D9
:10449000029000200390049002A90648FDF7EEFB6D
:1044A00007B000BD30380240001002400008024052
:1044B0000000024000040240000C024010B50B480E
:1044C0000B4908600B484860002109488160C160C1
:1044D0004FF480410161002141618161C16101624C
:1044E000FDF7DAFC08B1FDF7CDF810BD005400402F
:1044F000EC0A0020A086010010B586B0142101A8A6
:10450000FBF7FDFF002000902248234908600020AF
:1045100048607F2120488160FF21C1600021016146
:1045200041618161FEF796FC08B1FDF7ABF801210E
:104530001948FEF729FC0446122C29D000208DF8DA
:1045400004008DF805008DF8060004900590012206
:1045500001A91148FEF756FD08B1FDF793F80220B6
:104560008DF8000004208DF8010014208DF8020061
:1045700026208DF80300012269460748FEF7E2FC79
:1045800008B1FDF77FF8122201210348FEF705FC70
:1045900006B010BD00280040400B00201CB50020D4
:1045A000009001900E480F490860002048600021EB
:1045B0000C48816042F2D001C16000218161FEF7A8
:1045C0000FFE08B1FDF75EF80020009001906946EB
:1045D0000448FEF7ABFD08B1FDF754F81CBD000020
:1045E00000140040600B002010B50B480B49086018
:1045F0004FF4E1304860002108488160C1600161EA
:104600000C21416100218161C161FFF715F908B1F9
:10461000FDF738F810BD000000480040A80B00204E
:1046200000BFFEE700BFFEE7014600BF080900EB40
:104630008000420001F00F001044C0B270470146F4
:10464000002203E0521CA1F10A00C1B20A29F9D2EA
:10465000100741EA1060704770B504460026002537
:104660002068C06800F04000C8B92068C06840F009
:1046700080002168C860FDF709FC064608E0FDF7E8
:1046800005FC801BB0F57A7F02D9042060770125F4
:104690002068C06800F0400008B9012DEFD128461D
:1046A00070BD70B5044600252068C06820F0800009
:1046B0002168C8602068806800F0200030B920467A
:1046C000FEF716FD10B1042060770125284670BD65
:1046D0000146086870470000FCF736FD044600BF3D
:1046E0000022FE49FE48FEF787FB0022FD49FC48F8
:1046F000FEF75CFBF9484078FB490880F7480078F2
:10470000FA490880FCF782FF08B1FFF71BFAFCF7B3
:1047100033FFF7480088B0F5966F7DDCF4480088D9
:10472000401CF3490880F3480188A4F8EC14F248CF
:104730000188A4F8EE14F1480188A4F8F014F048B8
:104740000188A4F8F214EF480188A4F8F414EE48A4
:104750000188A4F8F614ED480178A4F8F814EC48A0
:104760000178A4F8FA14EB480178A4F81415EA4883
:104770000178A4F81615E9480078A087E848008871
:10478000E84909880844E84909880844E74909884C
:104790000844E7490860E7480188A4F89214E6480D
:1047A0000188A4F89414E5480188A4F89614E44814
:1047B0000188A4F89814E3480188A4F89A14E24800
:1047C0000188A4F89C14E1480178A4F89E14E048FC
:1047D0000178A4F8A014DF480178A4F8B014DE48EA
:1047E0000178A4F8B214DD480078E087D448008846
:1047F000D44909880844D14909880844D24909881C
:104800000844D7490860D7480178A4F89215D648DB
:104810000178A4F8941500E00FE0D4480178A4F8DA
:104820009615D3480178A4F89815D2480078A4F8D2
:104830004000D1480078A4F84400D0480088401CCB
:10484000CE49088008460088B0F5487F02DB00208A
:10485000E0820880CA4800884EF66021884204DC65
:10486000C7480088401CC6490880B4F8C200012827
:1048700008D1C34800884FF6FF71884202D100205A
:10488000BF490880BE4800884EF2786188421BDB31
:10489000BB4800884EF66021884215DC4FF6FF7059
:1048A000B74908800021A4F87014A4F87214A4F881
:1048B0008814A4F88A14A4F88C14A4F88E14A4F80C
:1048C00090140020A4F8C20084480178A4F864146D
:1048D0004178A4F866148178A4F868148148817836
:1048E000A4F86A144178A4F86C14C178A4F86E1482
:1048F000B4F8C00001283DD194F87004A1490870B3
:1049000094F87204487094F8880488700020C86095
:10491000086100227248FEF775FBB4F89004012884
:1049200004DD94F89004401E97490870B4F8900490
:10493000012802D107209449087094F88C04924908
:10494000487094F88A04887094F88E04C870002225
:104950006348FEF7F7FA122201216148FEF71DFABB
:104960000020A4F8C0000120E082002083490880D4
:1049700083490880B4F8BC0001287DD1B4F8EC0468
:104980005C490880B4F8EE045B490880B4F8F00490
:104990005A490880B4F8F20459490880B4F8F4047C
:1049A00058490880B4F8F6045749088094F8F80488
:1049B0005649087094F8FA045549087094F814059B
:1049C0005449087094F816055349087094F83C004F
:1049D000524908700A226D496D48FCF755FFB4F83A
:1049E000EC046A490860B4F8EE04096840EA012062
:1049F00066490860B4F8F004096840EA0120634998
:104A00000860B4F8F204096840EA01205F490860D0
:104A1000B4F8F4044860B4F8F604496840EA0120A8
:104A20005A49486008464068DD2141EA002057495C
:104A3000486008464068DD2141EA0020534948604B
:104A4000DD208860084680683049097841EA002006
:104A50004E498860084680682D49097841EA00205F
:104A60004A498860084680682A49097841EA002056
:104A700046498860284800E08DE00078C860084614
:104A8000C0682649097841EA00204049C8600846C4
:104A9000C068EE2141EA00203C49C8600846C06871
:104AA000EE2141EA00203949C8600A223848FCF763
:104AB000FCFE1B4800881B49098808441A490988DC
:104AC00008441A4909880844194908600020A4F8D4
:104AD000BC000120E082002028495BE01C0C002083
:104AE000400B002085000020FE0000200001002077
:104AF0008E000020A8000020AA000020AC000020AA
:104B0000B0000020B2000020B4000020F10000201E
:104B1000F3000020F2000020F4000020EC00002050
:104B20009000002092000020940000209C000020B3
:104B3000E0000020C0000020C2000020C4000020CF
:104B4000C8000020CA000020CC000020F90000208E
:104B5000FB000020FA000020FC000020EF000020F5
:104B6000E4000020F5000020F7000020F6000020FF
:104B7000F8000020ED000020EE0000208A00002058
:104B80008C000020080C002081000020300C002048
:104B9000800002080880B4F8BE0001287ED1B4F875
:104BA000920498490880B4F8940497490880B4F8AE
:104BB000960496490880B4F8980495490880B4F89A
:104BC0009A0494490880B4F89C049349088094F8A6
:104BD0009E049249087094F8A0049149087094F8D2
:104BE000B0049049087094F8B2048F49087094F8A2
:104BF0003E008E4908700A228D498E48FCF744FE1B
:104C0000B4F892048A490861B4F89404096940EA46
:104C1000012087490861B4F89604096940EA012037
:104C200083490861B4F89804096940EA0120804981
:104C30000861B4F89A044861B4F89C04496940EAF0
:104C400001207B49486108464069DD2141EA002096
:104C50007749486108464069DD2141EA00207449EE
:104C60004861DD208861084680696C49097841EA1D
:104C700000206F498861084680696949097841EADE
:104C800000206B498861084680696649097841EAD5
:104C90000020674988616448007800E02FE0C8611F
:104CA0000846C0696149097841EA00206049C86145
:104CB0000846C069EE2141EA00205D49C861084606
:104CC000C069EE2141EA00205949C8610A225948C9
:104CD000FCF7EBFD4E4800884E49098808444B49D3
:104CE000098808444C490988084453490860002051
:104CF000A4F8BE000120E082002050490880B4F8EA
:104D0000C400012859D194F892054D49087094F8CF
:104D100094054C49087094F896054B49087094F82E
:104D200098054A49087094F84000494908700A22D9
:104D30003F494048FCF7A8FD414800783C490862DB
:104D40000846006A3F49097841EA0020384908626C
:104D50000846006A3C49097841EA00203449086263
:104D60000846006A3949097841EA0020304908625A
:104D70003748007848620846406AEE2141EA002040
:104D80002B4948620846406AEE2141EA0020284942
:104D900048620846406A2F49097841EA00202449C0
:104DA00048620A222348FCF780FD0020A4F8C400D2
:104DB0000120E082002021490880B4F8C6000128C3
:104DC0001CD194F84400234908700A221849194854
:104DD000FCF75AFD1F4801781548406A61F300004E
:104DE000134948620A221348FCF75FFD0020A4F82B
:104DF000C6000120E0820020104908800A2000F04F
:104E0000C6FC6DE4C0000020C2000020C4000020E9
:104E1000C8000020CA000020CC000020F9000020BB
:104E2000FB000020FA000020FC000020EF00002022
:104E3000300C002080000208E40000208A000020DE
:104E4000F5000020F7000020F6000020F800002008
:104E5000ED000020EE0000202DED028B00BF0020B1
:104E6000FBF7A2FF274908700120FBF79DFF2649A9
:104E700008700220FBF798FF244908700320FBF715
:104E800093FF234908700420FBF78EFF2149087027
:104E90002148006801F0CCFC41EC180B9FED1F0B82
:104EA00053EC102B01F08EFC04D29FED1E0A1A4821
:104EB00080ED000A184890ED000AF0EE080A80EE36
:104EC000201A9FED190A21EE000ADFED180A80EE84
:104ED000201ABCEEC10A164880ED000A00221146D5
:104EE00003681448FCF788FD11480022102103686C
:104EF0001048FCF781FDFBF765FC0A2000F047FC39
:104F0000ADE70000190100201A0100201B0100205C
:104F10001C0100201D01002010010020CDCCCCCCB4
:104F2000CCCC234066661E4100F07F4533335340AE
:104F300014010020D80A002010B500BF502080F3D3
:104F40001188BFF34F8FBFF36F8F00BF01F078FA66
:104F500018B14FF080500449086000BF002080F372
:104F6000118800BF10BD000004ED00E000B593B053
:104F7000302107A8FBF7C3FA142102A8FBF7BFFAF8
:104F800000BF002001902648006840F0805024496E
:104F900008600846006800F08050019000BF00BF24
:104FA00000BF002001901F48006840F480401D4968
:104FB00008600846006800F48040019000BF00BF10
:104FC000052007904FF480300890012009900220BE
:104FD0000D9041050E9119210F914FF4A871109178
:104FE000022111910421129107A8FDF77FFC08B15D
:104FF000FCF748FB0F200290022003900020049051
:105000004FF4A05005904FF480500690052102A85F
:10501000FDF70AFB08B1FCF735FB13B000BD00003B
:1050200040380240007000400348006840F47000BF
:10503000014908607047000088ED00E010B50248A3
:10504000FEF77BF910BD0000600B002010B5024890
:10505000FEF773F910BD0000AC0E002010B5026819
:105060002B4B98420ED0B0F1804F0BD0294B984279
:1050700008D0294B984205D0284B984202D0284BA3
:10508000984203D122F070024B681A43204B984299
:1050900020D0B0F1804F1DD01E4B98421AD01E4B2D
:1050A000984217D01D4B984214D01D4B984211D0F6
:1050B0001C4B98420ED01C4B98420BD01B4B984275
:1050C00008D01B4B984205D01A4B984202D01A4B7D
:1050D000984203D122F44072CB681A4322F0800335
:1050E0004C6943EA04028B68C3620B688362084B15
:1050F000984202D00A4B984201D10B6903630368BE
:1051000043F00403036001234361026010BD00000B
:10511000000001400004004000080040000C004076
:1051200000040140004001400044014000480140AB
:1051300000180040001C00400020004070B50446EC
:10514000A56B0020E8852846FEF7F0F970BD00BF8A
:1051500000BF02680C3252E8002F22F490710268FE
:105160000C3242E80013002BF3D100BF00BF00BF98
:105170000268143252E8002F22F001010268143252
:1051800042E80013002BF3D100BF016B01290ED1BF
:1051900000BF00BF02680C3252E8002F22F010015D
:1051A00002680C3242E80013002BF3D100BF20212B
:1051B00080F8421000210163704710B50446206852
:1051C000C06820F040002168C860202084F84100B9
:1051D0002046FEF734FC002010BDF8B5044600253B
:1051E000002694F84200222873D1A068B0F5805FB1
:1051F0000BD1206948B9A66A20684068C0F308004E
:105200003080A06A801CA06214E0A56AA068B0F596
:10521000805F03D0A06828B9206918B92068406869
:10522000287004E02068406800F07F002870A06AC1
:10523000401CA062E08D401E80B2E085002846D16F
:105240002068C06820F020002168C8602068C0681D
:1052500020F480702168C8602068406920F0010057
:1052600021684861202084F8420000206063206BA0
:10527000012826D10020206300BF00BF21680C3127
:1052800051E8001F21F0100021680C3141E80002B4
:10529000002AF3D100BF2068006800F01000102839
:1052A0000AD100BF002000902068006800902068AC
:1052B0004068009000BF00BFA18D2046FEF735F981
:1052C00002E02046FEF756FB0020F8BD01E000207A
:1052D000FBE70220F9E700002DE9F84F04462068BB
:1052E000006920F44050E1680843216808612169A1
:1052F000A068084361690843E16908430090206899
:10530000C06849F20C618843009908432168C8606D
:105310002068406920F44070A16908432168486111
:1053200076492068884203D075492068884203D1B5
:10533000FDF774FA814602E0FDF760FA8146E06904
:10534000B0F5004F6CD102206168A0FB015003460C
:105350001920A9FB007001462A463846FBF704F8DD
:105360006421B0FBF1F04FEA001A02206168A0FB53
:1053700001510B461920A9FB00712A463846FAF75D
:10538000F3FF834602206168A0FB01500346192009
:10539000A9FB00712A463846FAF7E6FF6421B0FB04
:1053A000F1F000EBC00101EB0010ABEB800032210B
:1053B00001EBC0006421B0FBF1F000F0F8000AEB53
:1053C000400A02206168A0FB015003461920A9FB96
:1053D000007001462A463846FAF7C6FF8346022087
:1053E0006168A0FB015003461920A9FB00712A4601
:1053F0003846FAF7B9FF6421B0FBF1F000EBC001C9
:1054000001EB0010ABEB8000322101EBC000642106
:10541000B0FBF1F000F007005044216888606AE0BA
:1054200004206168A0FB015003461920A9FB00700D
:1054300001462A463846FAF797FF824604206168FB
:10544000A0FB015003461920A9FB007001462A4623
:105450003846FAF789FF6421B0FBF1F000EBC00198
:1054600001EB0010AAEB8000322101EB0010642157
:10547000B0FBF1F000F0F00A04206168A0FB0170BD
:1054800003461920A9FB00513A462846FAF76CFF5B
:105490006421B0FBF1F00AEB001A04206168A0FB64
:1054A00001510B461920A9FB00712A463846FAF72C
:1054B0005BFF834604206168A0FB0150034619206E
:1054C000A9FB007001462A463846FAF74DFF6421D1
:1054D000B0FBF1F000EBC00101EB0010ABEB800082
:1054E000322101EB00106421B0FBF1F000F00F005D
:1054F000504421688860BDE8F88F0000001001402A
:105500000014014010B5034699629A85DA8500209F
:105510005864222083F84200186928B11868C068CE
:1055200040F480701C68E0601868406940F0010039
:105530001C6860611868C06840F020001C68E0606A
:10554000002010BD014691F84100212828D188682B
:10555000B0F5805F0BD1086948B90A6A1088C0F3BA
:1055600008000B685860086A801C086205E00B6A36
:10557000581C086218780B685860C88C401E80B2AE
:10558000C88458B90868C06820F080000B68D860EB
:105590000868C06840F040000B68D8600020704781
:1055A0000220FCE72DE9F84304460D4617469846CD
:1055B000089E31E0701C70B3FCF768FCA0EB08009B
:1055C000B04200D816B90320BDE8F8832068C0684F
:1055D00000F00400F8B1802D1ED0402D1CD02068B2
:1055E0000068C0F3C000B0B100BF00200090206888
:1055F0000068009020684068009000BF00BF20460F
:10560000FFF7A5FD0820606400BF002084F840007B
:1056100000BF0120D8E7FFE7206800682840A842C3
:1056200001D1012000E00020B842C3D00020CBE728
:1056300010B50248FDF77CFF10BD0000A80B00204C
:1056400000BFFEE770B505460C46224600232946FA
:105650000220FCF7B1FA70BD02480068C0F30220D6
:10566000704700000CED00E010B5002804DB0A07CD
:10567000130E054A135406E00A07140E034A00F0FD
:105680000F031B1FD45410BD00E400E018ED00E030
:1056900030B502460B460020002104E0545C444033
:1056A000024D285D491C9942F8D330BDA669000817
:1056B00094B0FCF7E1FDFFF759FCFEF7C1FDFEF7E2
:1056C0006DFFFEF7FBFEFEF717FFFEF793FDFEF7FB
:1056D0008BFF2348FDF7DCFD00212248FCF7A5F9EC
:1056E00010212048FCF7A1F91F4A07CA11AB07C3D4
:1056F0001D4A0C3207CA0EAB07C30A221B491C48BD
:10570000FCF7C2F8FEF764FC0A20FCF737FA002227
:1057100002211848FCF7B4FBFBF75CFB11A8FBF770
:1057200025FE0EA8FBF726FC1C220F49183107A8FE
:10573000FAF791FE002107A800F03AF80E49086038
:105740001C22094934316846FAF785FE0021684673
:1057500000F02EF80949086000F025F800BFFEE7C8
:10576000600B0020D80A002028690008300C0020B7
:105770008000020800040240780000207C00002025
:1057800001460020842901D0CA1C1044704770B51E
:10579000044625460DB1294600E00121084600F0E7
:1057A00037FC002070BD10B500F060FC002010BD7B
:1057B0007FB504460D46606998B1A06988B1B4F917
:1057C0000800FFF7DDFF0646D4E90510CDE90061CA
:1057D00002902B462269D4E9001000F0D3FD03901B
:1057E00013E0B4F90800FFF7CBFF064603A8CDE9A4
:1057F0000060238A9AB22B46D4E9001000F090FD95
:10580000012802D0002004B070BD0398FBE700001F
:105810002DE9F04105460E461C4807681C48006803
:10582000001D00F0F1FA50B91948006890F82C10EA
:105830000120884017490968814316480160681CA7
:1058400038B936B112480168091D134800F026FB2B
:105850001AE07C190E4800684460BC4207D20C482C
:105860000168091D0D48006800F0FEFA0CE00848C8
:105870000168091D0A48006800F0F6FA0948006846
:10588000844201D207480460BDE8F0818001002015
:105890006C0100208401002004100020740100200D
:1058A000700100209C01002010B5044600F002FBAE
:1058B00023480068401C224908602248006840B91B
:1058C000204804600846006801280DD100F03EF928
:1058D0000AE01D48006838B91A480068C06AE16AE1
:1058E000884201D81748046018480068401C1749CE
:1058F000086094F82C100120884015490968084375
:1059000013490860E16A01EB8101124A02EB810050
:10591000211D00F0C3FA00F0F7FA0B48006868B1E7
:1059200008480068C06AE16A884207D24FF0805098
:1059300009490860BFF34F8FBFF36F8F10BD0000A0
:105940007C0100206C0100208801002098010020CB
:1059500084010020280F002004ED00E010B516E0BF
:1059600000F0A8FA0C48C068C468201D00F04CFA8A
:105970000A480068401E0949086009480068401E3E
:105980000749086000F0C0FA204600F00BF8044810
:1059900000680028E4D110BDF00F00207C01002039
:1059A0007801002010B5044694F8510030B9206BFE
:1059B00000F0C8FA204600F0C5FA1AE094F8510049
:1059C000012803D1204600F0BDFA12E094F85100FE
:1059D000022801D1012000E0002050B900BF502072
:1059E00080F31188BFF34F8FBFF36F8F00BF00BFED
:1059F000FEE710BD30B54FF47053174800F00704B0
:105A00002CB1C01D20F00700134C041B1B1B0246C9
:105A1000124C22600024114D6C60D018083820F020
:105A200007000F4C206000240D4D2D686C600C4D5C
:105A30002D682C601146441A4C60094C24680C6097
:105A4000084D4C682C60084D4C682C604FF00044A9
:105A5000064D2C6030BD000018100020A801002069
:105A6000B0010020B8010020B4010020C4010020D2
:105A700000BFFFF773FF064800680128F9D94FF00F
:105A8000805004490860BFF34F8FBFF36F8FF0E77A
:105A9000280F002004ED00E02DE9FF5F81460E464F
:105AA0009246DDE90E7B109CAAF10100216B01EB0F
:105AB000800828F0070808F0070008B9012000E076
:105AC000002050B900BF502080F31188BFF34F8FE2
:105AD000BFF36F8F00BF00BFFEE786B1002507E070
