:020000040800F2
:10000000E0FB002081030008893700085732000810
:1000100085370008AF1300088D3900080000000084
:100020000000000000000000000000008D02000839
:10003000B313000800000000E9020008B937000807
:100040009B0300089B0300089B0300089B03000818
:100050009B0300089B0300089B0300089B03000808
:100060009B0300089B0300089B0300089B030008F8
:100070009B0300089B0300089B0300089B030008E8
:100080009B0300089B0300089B0300089B030008D8
:100090009B0300089B0300089B0300089B030008C8
:1000A0009B0300089D3800089B0300089B03000881
:1000B0009B0300089B0300089B0300089B030008A8
:1000C0009B0300089B0300089B0300089B03000898
:1000D0009B0300089B0300089B0300089B03000888
:1000E0009B0300089B0300089B0300089B03000878
:1000F0009B0300089B0300089B0300089B03000868
:100100009B0300089B0300089B0300089B03000857
:100110009B0300089B0300089B0300089B03000847
:100120009B0300089B0300089B0300089B03000837
:100130009B030008C51400089B0300089B030008EC
:100140009B0300089B0300089B0300089B03000817
:100150009B0300089B0300089B0300089B03000807
:100160009B0300089B0300089B0300089B030008F7
:100170009B0300089B0300089B030008000000008D
:100180009B0300089B03000800F002F800F06EF8E3
:100190000AA090E8000C82448344AAF10107DA45E2
:1001A00001D100F063F8AFF2090EBAE80F0013F0C6
:1001B000010F18BFFB1A43F001031847B8050100EF
:1001C000D80501000A444FF0000C10F8013B13F071
:1001D000070408BF10F8014B1D1108BF10F8015BA0
:1001E000641E05D010F8016B641E01F8016BF9D193
:1001F00013F0080F1EBF10F8014BAD1C0C1B09D1EA
:100200006D1E58BF01F801CBFAD505E014F8016B5B
:1002100001F8016B6D1EF9D59142D6D370470000ED
:100220000023002400250026103A28BF78C1FBD8FF
:10023000520728BF30C148BF0B607047642900F0E7
:10024000A181732900F04B83002070471FB510F087
:1002500013F99DE8030000F09FFE00F0E4F900F0C0
:10026000A7FB1FBD10B500F00CFC10BD00F06FFC2B
:100270001146FFF7EBFF05F0B7FF00F05FFE03B498
:10028000FFF7F0FF03BC01F001F800002C4B1968E8
:100290000868B0E8F04F80F30988BFF36F8F4FF024
:1002A000000080F3118870470000000008480068D3
:1002B000006880F308884FF0000080F3148862B66D
:1002C00061B6BFF34F8FBFF36F8F00DF00BF00BF7A
:1002D00008ED00E0DFF80C00016841F470010160F6
:1002E000704700BF88ED00E0EFF30980BFF36F8F28
:1002F000134B1A681EF0100F08BF20ED108A20E97A
:10030000F04F106009B44FF0500080F31188BFF334
:100310004F8FBFF36F8F0FF0C9F84FF0000080F3DD
:10032000118809BC19680868B0E8F04F1EF0100F7A
:1003300008BFB0EC108A80F30988BFF36F8F704755
:1003400054000020EFF30580704700000B49D1F8FE
:1003500000C04A685CF8043B1068184442F8040B7B
:100360008C4528BFA1F1DC0C8A4228BFA1F1DC0238
:10037000C1F800C04A6020F00040704778E80020D3
:100380000948804709480047FEE7FEE7FEE7FEE729
:10039000FEE7FEE7FEE7FEE7FEE7FEE70448054965
:1003A000054A064B7047000089380008890100089B
:1003B000E0E90020E0FB0020E0EB0020E0EB002083
:1003C00053EA020C00F069802DE9F04B4FF0000673
:1003D000002B1FBFB3FA83F503FA05F424FA05F6E0
:1003E0005E4012BF1643B2FA82F502FA05F4C5F177
:1003F00020051EBF22FA05FC44EA0C04203556EA0B
:10040000044C4FEA144418BF641C4FF000084FF02E
:100410000009904271EB030C39D3002919BFB1FADE
:1004200081F701FA07F6B0FA80F700FA07F6C7F18C
:1004300020071EBF20FA07FC46EA0C062037B6FB51
:10044000F4FCA7EB0507103F07F01F0BCBF12006CC
:100450000CFA0BFB2CFA06F644BFB3460026202FFD
:10046000A4BF5E464FF0000B5BEA060C08BF4FF0DE
:10047000010B19EB0B09ABFB027C48EB0608C01B18
:1004800006FB02CC0BFB03CC71EB0C01C1E70B4666
:10049000024641464846BDE8F08B13B54FF00000D8
:1004A0004FF00001AFF30080BDE81C407047000032
:1004B0000FB4044910B503AA029800F015FA10BC55
:1004C0005DF814FBD4E800202DE9F0410E46044607
:1004D000002020622046E168884730B3252805D0F7
:1004E000D4E901219047206A401CF2E7E1682046E8
:1004F00000278847050018D0A5F14100192802D827
:1005000020354FF400673246294620462760FFF722
:1005100095FE40B1012804D0F61D26F007060836E6
:10052000D8E7361DD6E72846DAE7206ABDE8F0812D
:1005300070B50C460546012A05D02878800600D5FE
:10054000EA69002302E0012305E05B1C934202D22A
:10055000E05C0028F9D1A869E618C01AA861286AE9
:10056000184428622846AFF3008004E0D5E9012151
:1005700014F8010B9047B442F8D32846AFF300803B
:1005800070BD00002DE9F041064600241068752971
:10059000314616A510D0AFF30080002802DA4042A1
:1005A00013A507E031688A0701D512A502E04907C3
:1005B00004D511A5012401E0AFF3008000210A2237
:1005C00006F1240709E0B0FBF2FCB0FBF2F302FBFA
:1005D0001C00303078541846491C0028F3D12346BB
:1005E0002A463046BDE8F04100F00EB90000000098
:1005F0002D0000002B000000200000000B4910B56A
:10060000A1F17C020A4CC2E93712372106E000EB67
:10061000104342F82130074B00FB03400B1EA1F1B1
:100620000101F4DC10BD0120E8E7000018E800201B
:10063000E119D666CD0D010040EA010310B59B0714
:100640000FD1042A0DD310C808C9121F9C42F8D03C
:1006500020BA19BA884201D9012010BD4FF0FF30ED
:1006600010BD1AB1D30703D0521C07E0002010BD03
:1006700010F8013B11F8014B1B1B07D110F8013B8F
:1006800011F8014B1B1B01D1921EF1D1184610BD70
:1006900010B5431C02E010F8011B71B18107FAD1BB
:1006A0004FF0013202C88C1A8C4314EAC211F9D0FF
:1006B000C01A0A0603D0C01E10BDC01A10BD0A041D
:1006C00001D0801E10BD0902FCD0401E10BD032ABF
:1006D00040F2308010F0030C00F0158011F8013B5F
:1006E000BCF1020F624498BF11F801CB00F8013B46
:1006F00038BF11F8013BA2F1040298BF00F801CB0A
:1007000038BF00F8013B11F0030300F0FF80083A06
:10071000C0F0088051F8043B083A51F804CBA0E837
:100720000810F5E7121D5CBF51F8043B40F8043B8C
:10073000AFF30080D20724BF11F8013B11F801CBC1
:1007400048BF11F8012B24BF00F8013B00F801CB92
:1007500048BF00F8012B704702F0FF0343EA032271
:1007600042EA024200F002B84FF000020429C0F051
:10077000128010F0030C00F01B80CCF1040CBCF1D3
:10078000020F18BF00F8012BA8BF20F8022BA1EB25
:100790000C0100F00DB85FEAC17C24BF00F8012B0A
:1007A00000F8012B48BF00F8012B70474FF0000202
:1007B00000B5134694469646203922BFA0E80C5057
:1007C000A0E80C50B1F12001BFF4F7AF090728BF32
:1007D000A0E80C5048BF0CC05DF804EB890028BFAE
:1007E00040F8042B08BF704748BF20F8022B11F0D7
:1007F000804F18BF00F8012B704770477047704753
:10080000004870477CE900202DE9F0470D469946E5
:100810009246044600F124080168880604D5E06980
:1008200021F01001216000E00120A84201DD471BFA
:1008300000E00027A1697A1902EB0900081AA061FB
:100840002078C00602D42046AFF30080002608E0DE
:10085000D4E901211AF806009047206A401C761C52
:1008600020624E45F4DB2078C0060AD52046AFF35F
:10087000008006E0D4E9012130209047206A401C26
:100880002062381EA7F10107F4DC07E0D4E901215A
:1008900018F805009047206A401C2062281EA5F128
:1008A0000105F3DC2046AFF300802078000602D576
:1008B0000220BDE8F0870120FBE710B5436913B1C2
:1008C000AFF3008001E0FFF733FE012010BD127886
:1008D00000F124010A7000224A700122EDE711683C
:1008E0004FF0FF32E9E70000074B70B50D467B443F
:1008F00000F047F80446284600F056F810B14FF0D3
:10090000FF3070BD204670BD8741000010B5203A11
:10091000C0F00B80B1E81850203AA0E81850B1E8B8
:100920001850A0E81850BFF4F5AF5FEA027C24BF6E
:10093000B1E81850A0E8185044BF18C918C0BDE865
:1009400010405FEA827C24BF51F8043B40F8043B2E
:1009500008BF7047D20728BF31F8023B48BF11F8E3
:10096000012B28BF20F8023B48BF00F8012B70473D
:10097000004870477CE9002001694A1C0261087840
:10098000704700B58FB0CDE90131002105910549CF
:100990007944CDE9031011466846FFF795FD0FB085
:1009A00000BD0000E5FFFFFF007B00F08000704706
:1009B00010B542485421FFF7F9FE41485421FFF792
:1009C000F5FE40485421FFF7F1FE3F493B483C4AC1
:1009D0003F4B08603D490A603A491960531C036562
:1009E000481C1065012008653B48344A39A1784409
:1009F00000F008FA20B9384878440A3800F0A7FA1D
:100A000037482F4A35A1784400F0FCF920B9344822
:100A100078440A3800F09BFA32482A4A2FA17844D9
:100A200000F0F0F920B92F4878440A3800F08FFA26
:100A300040232248DC000021224600F0BFF920B10B
:100A400025487844543800F082FA1D482246402355
:100A5000002100F0B3F920B121487844543800F067
:100A600076FA184822461023002100F0A7F9002842
:100A700006D01C487844BDE81040563800F067BAEC
:100A800010BD104870B5006D20F001040B4800F057
:100A90002FFA0B4800F02CFA0A4800F029FA09E076
:100AA000206D20F00105204600F022FA204600F0DB
:100AB00073F82C46002CF3D170BD000080E80020B4
:100AC000D4E8002028E90020A0010020A401002093
:100AD000A8010020720000004AFC0000770000001E
:100AE00036FC000022FC00000EB5CDE90001FFF746
:100AF000CFFD029069460120ABBE0EBD08B5694628
:100B000000900220ABBE08BD1FB58DE80700694606
:100B10000520ABBE04B010BD1FB58DE80F006946BF
:100B20000620ABBEF6E708B5694600900920ABBECB
:100B300008BD1CB5CDE9000169460A20ABBE1CBD4D
:100B4000704708B5694600900C20ABBE08BD7546DD
:100B5000FFF70EFFAE4605006946534620F007003A
:100B6000854618B020B5FFF719FCBDE820404FF0CE
:100B700000064FF000074FF000084FF0000B21F087
:100B80000701AC46ACE8C009ACE8C009ACE8C00954
:100B9000ACE8C0098D46704770B50446051F00F0EB
:100BA000DFF90068002C14BF446870BD002C18BF2A
:100BB000AC423CBF20466468F8D301680A18AA42D8
:100BC00018BF456003D12A680546114401602868B2
:100BD0004119A1421CBF6C6070BD616869602168E9
:100BE0000844286070BD2DE9F04705460C46C868EA
:100BF00020F4201040F48000C860800602D508462A
:100C000000F0FBFAE06841F282014FF0FF39014049
:100C1000022903D0204600F099FAB5E000F4204103
:100C2000B1F5004F0FD1C00306D56168E06A884274
:100C300000D80846606006E02069E0626060606994
:100C4000FFF77FFFA061A0680022EEB200280DDA56
:100C5000E1688B050AD4C043A06041F49030226063
:100C6000E0606068411C61600670A5E0E068904645
:100C7000226040F40050E060206968BB6069FFF7C3
:100C800052FF012704F12405A0B1A08910F4407F90
:100C900008D0E06900F0AFF9206118B1E06840F4D5
:100CA000006016E0E7612561E06820F4407040F4E0
:100CB00080600EE0E06900F09EF900282061F1D02C
:100CC000E06840F4006010F4407FE06002D140F43E
:100CD0008070E06020696060E06825696FF0010A5B
:100CE000C1051FD56168E06A884200D80846411BEB
:100CF00004D02246284600F033FAF0BBE068010237
:100D000003D5E562C4E9015854E0691CE162616001
:100D1000E16940F48030491EC4E9021030462E706B
:100D2000BDE8F087010202D500F480320AE0606875
:100D3000411C61600670E0680A2E40F48030E0607B
:100D400006D00022E16A6068814203D90B4602E0C6
:100D50000122F7E70346A7895B1B7F0503D4E769F8
:100D60009F4200DDE2B1814200D80146E5620F1AE0
:100D7000C4E90158002B09DD00E005E022461946D0
:100D8000284600F0EDF908B14846C9E747B1A06927
:100D9000E5626560C01BA061E06840F01000E060A3
:100DA000E068000208D56168A069E562491B084453
:100DB0006560A0615046B3E73046B1E770B5C468DE
:100DC000A50713D0650211D4B2F5807F09D0B2F522
:100DD000007F06D0B2F5806F08D1012300F1240115
:100DE00006E05D1E6FF07F46B54201D3012070BD65
:100DF0000161C361416024F470611143C16000204E
:100E000070BD00002DE9F0410C460746164610461D
:100E100000F06EF82078611C61280AD0722802D098
:100E200077283CD102E00125002405E002250424B6
:100E300002E0082448F2020511F8010B2B2806D025
:100E4000622809D011F8010C74280AD00BE045F093
:100E5000030544F00204EFE745F0040544F0010403
:100E6000EAE744F0100438462146FFF73DFE411CF6
:100E700015D00021316171604FF40071F560F161AE
:100E80007061200704D530460222002100F0E2F80C
:100E9000306D40F0010030653046BDE8F081002043
:100EA000FBE72DE9F0410D460646104C206DC107C9
:100EB00004D0410804D020F00104F7E722460EE0F8
:100EC000542000F098F807000ED0206D47F0010183
:100ED0000843542120653846FFF768FC3A46294606
:100EE0003046BDE8F0418DE70020D6E780E80020DD
:100EF0002DE9F04704464FF000094FF0FF37C56871
:100F0000D4E90486A80707D0204600F053F93046FC
:100F1000FFF7F4FD002802DA3846BDE8F08728051F
:100F200002D54046FFF738FE4C212046FFF73EFC35
:100F3000206D20F0010020654846EEE710B504461C
:100F4000AFF300802046BDE81040FFF798B910B518
:100F500000F07AF9BDE8104000F070B97047000069
:100F60000048704784E90020704770477047704719
:100F700038B504460A4600206946AFF300800028D1
:100F800008BF38BD02460099204600F08CF90120C8
:100F900038BD012000F072B9F8B5AFF30080054606
:100FA00000200C46102000BF0646A819A0420DD90B
:100FB000324669460020AFF30080070008BF00F00A
:100FC0005DF90098A04218BF0546C419FFF7C8FF95
:100FD00005600746F01D20F007004619284600F07E
:100FE0005BF9B44208BFF8BDA21B31463868BDE8C2
:100FF000F84000F058B970B50646FFF7B1FF056834
:1010000006F10B0020F00704B4429CBF002070BD25
:101010002B466A68BAB11068A04210D304F10801E7
:1010200088423CBF5068586007D35168101941602E
:101030001168091B016058601460101D70BD1346D3
:101040005268002AE7D121462846FFF791FF002881
:10105000DED170BD2DE9F041044616460D464769C4
:10106000007B80072ED03846FFF75DFD50BB3EB3B6
:10107000012E02D0022E25D104E0204600F02DF9E9
:1010800005441DE03846FFF75CFDE168002841F0AB
:101090001001E16005DA204600F058F80120BDE8B3
:1010A000F081C9030BD56268E16A914200D811460C
:1010B000A26911442269891A814200DD084605446B
:1010C000002D01DA0220EAE7E16A6068E268814205
:1010D00006D29103E06203D522F4003141F0100200
:1010E000A6690027AE4213DCE16A814201D90B46B2
:1010F00000E0034603EB060C2369ACEB030CAC45A4
:1011000006DD814201D98C4600E084469C4505D12C
:10111000A760276042F02000A5620DE0AD1BE669E4
:10112000AE1B8142A66000D90846C01A281A20606A
:101130005819606022F0200003490840E060002058
:1011400084F84870ABE70000BFCFD7FFC16821F437
:10115000001141F08001C160002181600160704791
:101160002DE9F047814614460E464FF0FF383248CD
:10117000D5685769054209D03846A169FFF7D9FCFF
:10118000002811DB2C48C0430540E5602B46324661
:1011900049463846FFF7B8FCA16920F00042B21A70
:1011A00011440028A16103D02046FFF7CFFF40463D
:1011B000BDE8F08770B504460569C06A6168884279
:1011C00000D80846E16821F42011E160C90312D576
:1011D000A84208D02246411B2846FFF7C1FF10B1A4
:1011E0004FF0FF3070BD0020E562C4E90150E068B7
:1011F00020F48030E060002070BD10B50446C06867
:1012000020F02000E060A16AA06988420DD020464D
:10121000FFF7D0FFE06820F4405040F01000E0609D
:10122000A06AA0612069E062606044F24001E06869
:101230008843E06010BD000010000200002801D0CB
:1012400000F024B87047000010B5014602A000F07D
:1012500065F8012010BD00005349475254524544DF
:101260003A2052656469726563743A2063616E273F
:1012700074206F70656E3A200000000010B500F019
:1012800067F8BDE81040FFF7D9BF000001491820FA
:10129000ABBEFEE72600020000210160C0E901109C
:1012A000704710207047034640688C46002818BFDE
:1012B00088423CBF03464068F8D318681844884207
:1012C00007D00CF1030020F00700001D411A521A4C
:1012D0000146081D0A60FFF75FBC10B50146C268F1
:1012E000900703D0900607D5886A0AE0FFF788FACE
:1012F00001210160881E10BD8B69486818440B6984
:10130000C01A91F848301BB191F84910401A10BD2D
:101310001103FCD50028FADD401E10BD70B505464E
:101320000C460A2000E06D1C00F03AF835B1287830
:101330000028F8D102E0641C00F032F814B12078E3
:101340000028F8D1BDE870400A2000F029B800005C
:1013500010B5012805D0002103A0FFF7DFFF012011
:1013600010BD09A1F8E7000053494752544D454DBF
:101370003A204F7574206F662068656170206D6536
:101380006D6F7279000000003A2048656170206D31
:10139000656D6F727920636F727275707465640029
:1013A00008B569468DF800000320ABBE08BD00BF3C
:1013B000FEE7704710B50146002227E002EB8204E9
:1013C0000B6903EBC4000023036043608360C360C8
:1013D000036243624FF0004303604B6943F4804370
:1013E0004360436823F00043436001F1480343F83E
:1013F0002200032A07D202EB82040B6903EBC40329
:101400002833C36001E00B69C360521C042AD5D3A2
:101410000024CC650C668C66CC668C650B6803F585
:1014200080530C69DC6010BD10B50146002222E03B
:1014300002EB8204CB6803EBC4000023036043602B
:101440008360C36001F1180343F82200036843F48A
:1014500080130360032A07D202EB8204CB6803EBFC
:10146000C4032833C36001E0CB68C360036843F45E
:1014700040030360521C042ADAD300248C620B68F8
:1014800003F58053CC681C6110BD38B504460020BC
:101490000090206800F58050806940F48011206839
:1014A00000F580508161206800F5805080690090CF
:1014B000012000F0C1FA0099206800F58050816198
:1014C00038BD000010B5024800F05CFB10BD000004
:1014D0008065002030B503461479557944EA05202B
:1014E000084C0C442064D4782406957844EA0544DA
:1014F000557844EA0524157844EA0500014C0C446B
:10150000606430BD0080024010B5A4B004460120E4
:101510008DF83C008DF83D0000200D908DF84B00BB
:1015200001208DF84A0000208DF8480001208DF838
:101530003A008DF8300000208DF84C008DF83B000B
:1015400014908DF854001D908DF878001F908DF840
:1015500082008DF880004FF480401090C0101190F0
:1015600000208DF881000BA9204600F08FF90120A2
:101570008DF80C008DF80D008DF81D008DF80E0013
:10158000002005908DF81C008DF81E0008900120A9
:101590008DF824008DF8040000040290800106906C
:1015A0004012049001208DF8250000200A90009040
:1015B0006946204600F00AF924B010BD00207047AB
:1015C00010B501F047F810BD10B5024800F0DCFD81
:1015D000002010BD8065002070B504460D461646FB
:1015E00033462A462146044800F0FAFC10B14FF079
:1015F000FF3070BD0020FCE78065002070B5044618
:101600000D46164633462A462146044800F0EDFEB4
:1016100010B14FF0FF3070BD0020FCE78065002066
:101620002DE9F04F81460C46174609F1180213695F
:10163000D2F810C04FF0000A52F82310A568D34624
:10164000086800F00040B0F1004F04D002F114002F
:1016500050F8230010B10220BDE8F08F0AF1010A12
:101660002868886048686FF30C00D5F804E040EA09
:101670000E004860207800F0010038B1086820F4BE
:101680004000D4F814E040EA0E000860207800F032
:10169000200038B1086820F04060D4F810E040EA3B
:1016A0000E000860207800F0040018B1086840F0CF
:1016B00080000860086840F08050086053E00868C7
:1016C00020F00050086027B1086840F080400860B2
:1016D00003E0086820F08040086000BF5B1C042B1A
:1016E00000D31B1F00BF52F82310086800F0004011
:1016F000B0F1004F04D002F1140050F82300C8B13B
:10170000634652F823104FF000080FE0BFF35F8FDD
:10171000086820F00040086000BF5B1C042B00D369
:101720001B1F00BF52F8231008F10108D045EDD36C
:10173000022091E7086820F0805008600AF1010A51
:10174000AD682868886048686FF30C00D5F804E03D
:1017500040EA0E0048600BF1010BBFF35F8F086891
:1017600040F000400860A8680028A8D127B10868A8
:1017700040F08040086003E0086820F08040086086
:10178000086840F00050086052F82C10BFF35F8FDB
:10179000086840F00040086002F1140E506A4EF8EC
:1017A0002300136100BFEFF31080064600BF012045
:1017B00080F3108800BF0BF1010E906A70449062B4
:1017C00000BF86F3108800BF002045E770B50546CE
:1017D0000C46286800F5805086692B480640207B1F
:1017E00008B9012000E000208006617B40EA4160EA
:1017F000617F09B9012100E0002140EA0150A17B8D
:1018000040EA415061690843217F40EAC110A17F4D
:1018100040EA8110216A084394F8241040EA8100CC
:101820000643286800F580508661286800F58050DE
:101830008669012000F000F9286800F58050866173
:101840002179A06840EA4160A16908432169084301
:1018500094F8251040EAC110A16A40EA810021688D
:10186000084340F40001286800F5805001602868B2
:1018700000F580500668012000F0DEF8286800F5C9
:101880008050066070BD0000233FDEF870B505464D
:101890000C46286806683B480640A07B4006217C31
:1018A00009B9012100E0002140EAC150617C09B979
:1018B000012100E0002140EA8150A1680843E17F56
:1018C00040EA014061690843A17F09B9012100E0B4
:1018D000002140EA4130217F40EA0130A1690843FC
:1018E000217940EA812094F8201009B9012100E013
:1018F000002140EA4120E17B40EAC110616A0843CF
:1019000094F8281040EA0110064328680660286809
:101910000668012000F090F828680660286886694B
:101920004FF641700640A06C000494F84C1009B9C1
:10193000012100E0002140EAC110216D084394F824
:101940005510012900D100E0002140EAC10094F8BF
:101950005610012900D100E0002140EA810094F8EE
:101960005410012900D100E0002140EA4100064363
:101970002868866128688669012000F05DF828687B
:10198000866170BD0F8120FD2DE9F84304460020DB
:1019900000904FF00109A56E04F1480050F8256051
:1019A000E76E2CE0306A58B9684600F091FB009869
:1019B00010B94FF0000903E0009830620098B06061
:1019C000B9F1000F1BD0A06D30B9606940F0004044
:1019D00040F48040706003E0606940F480407060D3
:1019E000306840F00040306000BF6D1C042D00D313
:1019F0002D1F00BF04F1480050F825607F1E17B16D
:101A0000B9F1000FCED1E06EB8420FD0E81C00F063
:101A10000308BFF35F8F08EB8801206900EBC10169
:101A2000206800F580508160A566E766BDE8F88310
:101A300072B600BFFEE7000070B5044600F00AFE73
:101A400006462546681C10B104480078054400BFCE
:101A500000F000FE801BA842FAD370BD4C000020AD
:101A600010B50446204600F00BF800F080008028F6
:101A700003D10248006805F0D1FE10BD2800002007
:101A80000146D1F88C0070470146D1F888007047B4
:101A9000024609B90120704710680068C0F30010C1
:101AA00081F828001068006800F060004862106843
:101AB0000068C0F3402080F0010081F82000106829
:101AC0000068C0F30040C87710680068C0F3403079
:101AD00080F00100887710680068C0F30030087754
:101AE0001068006800F4006088611068006800F405
:101AF0008040486110680068C0F3805080F00100A9
:101B0000487410680068C0F3C05080F00100087489
:101B100010680068C0F3C010C8731068006800F453
:101B20006020886010680068C0F380200871106829
:101B30000068C0F34060887310688069C0F340009B
:101B400081F8540010688069C0F3C01080F0010073
:101B500081F84C001068806900F03000086510685A
:101B60008069000C886410688069C0F3800081F887
:101B7000560010688069C0F3C00081F8550000204D
:101B800089E700002DE9F04104462068876B206852
:101B900000F580504569206800F58050C6693848D6
:101BA000D0F8008005F0400050B106F0400038B198
:101BB0003449206800F580504161204600F0ACFABD
:101BC00005F0010058B106F0010040B14FF00111DD
:101BD000206800F580504161204600F0F5FB05F4D7
:101BE000004088B306F4004070B3D4F8880040F099
:101BF0000800C4F8880005F40050A8B1206800F57A
:101C00008050406920490840C4F88C00206800F5E5
:101C10008050C06920F4C031206800F58050C16157
:101C2000E020C4F884000CE0206800F58050406992
:101C300048F280610840C4F88C00206800F58050AC
:101C400041612046FFF70CFF07F0080058B12068FB
:101C5000C06A00F06000C4F89400204600F042F929
:101C60000020C4F8940008F4002030B14FF40020A4
:101C700003490860204600F0B7FBBDE8F081000092
:101C8000143C01404000010000207E0038B50446AD
:101C90000CB9012038BDD4F8840028B92020C4F83C
:101CA0008400204600F074F800BF00200090354802
:101CB000006840F48040334908600846006800F43A
:101CC0008040009000BF00BF2F48006820F4000053
:101CD0002D49086008460068A16808432A49086041
:101CE00008460068206800F58050006840F0010157
:101CF000206800F58050016000F0ACFC05460DE066
:101D000000F0A8FC401BB0F5FA7F07D90420C4F806
:101D10008800E020C4F884000120BBE7206800F5BB
:101D20008050006800F001000028E9D12046FFF74C
:101D3000EBFB2046FFF778FB2046FFF73BFB00213B
:101D400020466268FFF7C6FB2068C06B40F4027053
:101D50002168C8632068D0F80C010C490843216849
:101D6000C1F80C012068D0F8100140F4031021687C
:101D7000C1F810010020C4F888001020C4F88400C5
:101D8000002087E744380240043801406000020028
:101D900010B586B00446142101A8FEF707FD4C4992
:101DA000206888427ED100BF00BF002000904948D3
:101DB000006840F00070474908600846006800F07D
:101DC0000070009000BF00BF00BF002000900846D8
:101DD000006840F0806008600846006800F080609D
:101DE000009000BF00BF00BF0020009008460068C0
:101DF00040F0006008600846006800F00060009055
:101E000000BF00BF00BF00BF002000900846006870
:101E100040F0040008600846006800F004000090EC
:101E200000BF00BF00BF002000900846006840F0DF
:101E3000010008600846006800F00100009000BF43
:101E400000BF00BF002000900846006840F002007C
:101E500008600846006800F00200009000BF00BF64
:101E60003220019002200290002003900320049071
:101E70000B20059001A9184800F0ECFA862001908B
:101E80000220029000200390032004900B20059074
:101E900001A9124800F0DEFA4FF4605001900220D0
:101EA000029000E011E000200390032004900B203A
:101EB000059001A90A4800F0CDFA002205213D2035
:101EC00000F086FC3D2000F06FFC06B010BD000065
:101ED000008002403038024000080240000002400A
:101EE0000004024070472DE9F05F04460F464FF0B2
:101EF0000008C34647B9D4F8880040F00100C4F890
:101F000088000120BDE8F09FD4F88400402801D06B
:101F10000120F7E7E66D04F1480050F82650E06E26
:101F2000C0F1040A3EE0286800F4807018B1E96945
:101F3000A167A9696167286800F4007008B9E06FBB
:101F400020B3286800F4007010B10021216661669A
:101F50002868C0F30D49286800F4807018B129681A
:101F600021674FF0010BA86828621FFA89F304F17A
:101F70008001081F2A6A00F0D9F8206E401C2066F4
:101F8000606E00EB090161660020286200BF761CCC
:101F9000042E00D3361F00BF04F1480050F826502D
:101FA00008F10108286800F0004020B9D04502D2AD
:101FB000BBF1000FB7D0E06E00EB0801E166E06E08
:101FC00010B12046FFF7E0FCE665BBF1010F05D13B
:101FD000E06F38600021E167002093E7012091E77E
:101FE0002DE9F04705460E461746984628680469CD
:101FF00004F01C044FF4784000EAC62004434FF478
:10200000F86000EA8710044324F0020444F001045D
:102010002868046100F01EFB81460BE000F01AFB0B
:10202000A0EB0900B0F5803F02D30120BDE8F087A6
:102030002868046904F001000028EFD1286840698D
:1020400080B2C8F800000020F0E72DE9F04706460E
:1020500006F11805AF6AEC6A4FF0010830E04FF066
:1020600001097F1E05F1140050F8240038B900BFA3
:10207000641C042C00D3241F00BF4FF00009B9F1E9
:10208000000F1DD004EB8401F06850F8310000F01F
:10209000004098B905F1140151F8240000F09EF9B0
:1020A000002105F1140040F8241000BF641C042C2A
:1020B00000D3241F00BFAF62EC6201E04FF00008C4
:1020C00017B1B8F1000FCAD10020BDE8F0870000B9
:1020D0007CB504460D4804F089FD054685B105F13F
:1020E000200020600A4828614FF4C06120682B4618
:1020F0004122CDE900010021084605F00FFE04E071
:10210000012004490870002020607CBDCC04010837
:10211000D98300082400002010B504460248006856
:1021200005F07CFB10BD000028000020F0B504463F
:102130000D4621462E460020A2F120000027076010
:10214000078143810F680FB9086001E03768386084
:102150003060086803E007891F4407810068002891
:10216000F9D1F0BD70B504460D460DB9012070BD22
:10217000D4F88400102805D129462046FFF786FBB5
:102180000020F4E70120F2E770B5064630680469E4
:1021900024F01C0400F052FC05460D48854202D292
:1021A00044F0080411E00B48854202D244F00C04CC
:1021B0000BE00948854200D207E00848854202D278
:1021C00044F0040401E044F010043068046170BD80
:1021D000C00E16020087930300E1F50580D1F008D8
:1021E00070B50446D4F88400102849D12020C4F8E2
:1021F00084000121A1650421E1662046FFF7C4FBAC
:10220000206805680120FFF717FC2068056020683A
:1022100000F58050806940F40051206800F580503E
:102220008161206800F58050806940F002012068DB
:1022300000F5805081612046FFF727F9206800688B
:1022400040F0080021680860206805680120FFF759
:10225000F3FB206805602068006840F004002168F6
:102260000860206800F58050C0690649084321686D
:1022700001F58051C8614020C4F88400002070BD81
:102280000120FCE7C1A001002DE9F0410446D4F88B
:102290008400402852D12020C4F88400206800F532
:1022A0008050C06926490840216801F58051C86105
:1022B000206800F58050806920F40051206800F506
:1022C00080508161206800F58050806920F0020113
:1022D000206800F5805081612068006820F00400CB
:1022E00021680860206807680120FFF7A5FB2068C7
:1022F00007602046FFF7C9F82068006820F0080052
:1023000021680860206807680120FFF795FB2068B6
:102310000760002508E004F1480050F82560706867
:1023200040F0004070606D1C042DF4D30021A165C5
:102330001020C4F884000020BDE8F0810120FBE7F4
:102340003E5FFEFF70B504460D463DB9D4F88800E7
:1023500040F00100C4F88800012070BDD4F884006A
:1023600040282FD1696BE163012229462046FFF7FF
:1023700057F938B1D4F8880040F00200C4F888005A
:102380000120EAE7BFF34F8F00BFA06A401CA062A4
:10239000A06A042802D3A06A001FA06200BF2068C0
:1023A00000F58050406900F0040048B10421206825
:1023B00000F5805041610021206800F580504160A7
:1023C0000020CAE70120C8E710B5044602480068AB
:1023D00005F024FA10BD00002C00002010B50446C2
:1023E000204605F041FF10BD70472DE9F047054636
:1023F0000E46174698462868046904F01C044FF4FA
:10240000784000EAC62004434FF4F86000EA8710E1
:10241000044344F0020444F001041FFA88F02968E0
:1024200048612868046100F015F981460BE000F06E
:1024300011F9A0EB0900B0F5803F02D30120BDE8FF
:10244000F0872868046904F001000028EFD100BF7C
:10245000F5E70000F8B502460B46002500240020F1
:102460000021D6E0012606FA01F51E6806EA0504F9
:10247000AC4274D11E7906F00306012E04D01E79F9
:1024800006F00306022E13D190684F000326BE40CB
:10249000B0434F00DE68BE40304390605068012674
:1024A0008E40B0431E79C6F300168E403043506014
:1024B0001E7906F00306032E09D0D0684F000326CC
:1024C000BE40B0434F009E68BE403043D0601E798E
:1024D00006F00306022E13D1CF0802F1200656F8AB
:1024E00027004E07F70E0F26BE40B0434F07FF0EE2
:1024F0001E69BE403043CF0802F1200646F827008F
:1025000010684F000326BE40B0431E7906F0030654
:102510004F00BE40304310605E6806F44036002E27
:1025200076D000BF002600963C4E366846F48046C2
:102530003A4F3E603E46366806F48046009600BF3D
:1025400000BF374E8F0856F827008E07370F0F262B
:10255000BE40B043334EB24202D1002624E057E0E1
:10256000314EB24201D101261EE0304EB24201D1BD
:10257000022619E02E4EB24201D1032614E02D4E60
:10258000B24201D104260FE02B4EB24201D1052602
:102590000AE02A4EB24201D1062605E0284EB24298
:1025A00001D1072600E008268F073F0FBE403043C9
:1025B0001B4E8F0846F82700224E3068A0435E6805
:1025C00006F4801606B120431E4E3060361D30687A
:1025D000A0435E6806F4001606B12043194E361D6E
:1025E0003060184E361F3068A0435E6806F400362F
:1025F00006B12043134E361F3060361F3068A043AB
:102600005E6806F4803606B120430E4E083E306008
:10261000491C1029FFF426AFF8BD000044380240E1
:102620000838014000000240000402400008024057
:10263000000C02400010024000140240001802404A
:10264000001C0240083C01400AB1816101E00B041A
:102650008361704701480068704700004400002013
:102660000348006803490978084401490860704735
:10267000440000204C00002010B50D48006840F4D4
:1026800000700B4908600846006840F480600860EC
:102690000846006840F480700860032000F0D6F817
:1026A0000F2000F007F800F055F8002010BD0000E2
:1026B000003C0240F0B587B004460026002700BF6A
:1026C000002000901E48006840F001001C4908608E
:1026D0000846006800F00100009000BF00BF01A99B
:1026E00002A800F089F900F0AFF946001548B6FBE2
:1026F000F0F0471E14481549086040F2E7311348CE
:10270000C1604760002101618160816100F054FC7B
:10271000054695B90D4800F083FC05466DB91920B2
:1027200000F042F8102C07D200222146192000F0B8
:102730004FF80748046000E00125284607B0F0BDC7
:102740004438024040420F000000014088660020EB
:102750004800002008B500BF002000901148006824
:1027600040F480400F4908600846006800F480404B
:10277000009000BF00BF00BF00200090081F00684D
:1027800040F08050091F08600846006800F0805043
:10279000009000BF00BF00220F21901E00F018F82B
:1027A00008BD0000443802400146084600280DDB01
:1027B00000BF00BF00F01F0301229A4043099B00A5
:1027C00003F1E023C3F8002100BF00BF00BF704742
:1027D0002DE9F05F80460D461646002701F0D8F837
:1027E000074639462A46334601F00700C0F1070A7A
:1027F000BAF1040F02D94FF0040A01E0C0F1070A50
:10280000D14600F1040ABAF1070F02D24FF0000AD4
:1028100001E0A0F1030AD4464FF0010A0AFA09FACE
:10282000AAF1010A0AEA020A0AFA0CFA4FF0010BAD
:102830000BFA0CFBABF1010B0BEA030B4AEA0B049E
:102840002146404601F0ACF8BDE8F09F00BF00F023
:102850000702064B19684FF6FF031940044B0B4360
:1028600043EA0221014B196000BF70470CED00E004
:102870000000FA0570B504460D460CB9012070BD84
:102880005848006800F00700A84209D255490D7069
:102890000846006800F00700A84201D00120EEE7DA
:1028A000207800F0020002281DD1207800F00400FA
:1028B000042805D14C48006840F4E0504A490860BB
:1028C000207800F00800082805D14748006840F447
:1028D0006040454908604448006820F0F000A16865
:1028E000084341490860207800F00100A8B36068FF
:1028F000012807D13C4808380068C0F34040B8B907
:102900000120BCE76068022802D06068032807D174
:10291000354808380068C0F3406048B90120AEE788
:10292000314808380068C0F3400008B90120A6E724
:102930002D48006820F00300616808432A490860B8
:10294000FFF788FE064609E0FFF784FE801B41F290
:102950008831884202D9032091E707E022480068C5
:1029600000F00C006168B0EB810FEDD11D480068EC
:1029700000F00700A84209D91A490D7008460068FE
:1029800000F00700A84201D0012078E7207800F08D
:102990000400042807D11448006820F4E050E168DE
:1029A000084311490860207800F00800082808D181
:1029B0000D48006820F46040216940EAC1000A49DE
:1029C000086000F051F808490968C1F30311074A8B
:1029D000515CC8400649086006480068FFF76AFE77
:1029E00000204CE7003C024008380240D8040108AF
:1029F00050000020480000200F2202600D4A12689B
:102A000002F0030242600B4A126802F0F002826098
:102A1000084A126802F4E052C260064A126802F4E0
:102A20006042D2080261044A126802F007020A609A
:102A30007047000008380240003C0240014800682E
:102A4000704700005000002000B5FFF7F7FF044971
:102A50000968C1F34231034A515CC84000BD00001F
:102A600008380240E80401082DE9F0470024002559
:102A70000026A1462548006800F00C0020B104287B
:102A800005D008283AD105E0DFF8849039E0DFF876
:102A9000849036E01D48001F006800F03F041B488A
:102AA000001F006800F4800078B11A481749091F18
:102AB0000968C1F38811A0FB01700146224600237A
:102AC0003846FDF77DFC05460EE011480F49091F09
:102AD0000968C1F38811A0FB01700146224600235A
:102AE0003846FDF76DFC05460848001F0068C0F336
:102AF0000140401C4600B5FBF6F902E0DFF81090FB
:102B000000BF00BF4846BDE8F0870000083802401B
:102B10000024F40040787D01F8B504460CB901208A
:102B2000F8BD207800F00100002874D0F948006852
:102B300000F00C0004280DD0F648006800F00C00EE
:102B4000082813D1F348001F006800F48000B0F596
:102B5000800F0BD1EF4808380068C0F340400028D0
:102B600059D06068002856D10120D9E700BF6068BD
:102B7000B0F5803F08D1E7480838006840F480305D
:102B8000E449083908601EE06068B0F5A02F0DD157
:102B9000E0480838006840F48020DE4908390860C1
:102BA0000846006840F4803008600CE0D9480838D6
:102BB000006820F48030D74908390860084600686A
:102BC00020F48020086000BF606890B1FFF742FDEC
:102BD000054606E0FFF73EFD401B642801D90320AF
:102BE0009EE7CC4808380068C0F340400028F1D088
:102BF00011E0FFF72FFD054606E0FFF72BFD401B18
:102C0000642801D903208BE7C24808380068C0F364
:102C100040400028F1D1207800F0020002285FD166
:102C2000BC48006800F00C0058B1BA48006800F0D9
:102C30000C0008281CD1B748001F006800F4800071
:102C4000B0B9B44808380068C0F3400020B1E0686B
:102C5000012801D0012063E7AE480838006820F061
:102C6000F800216940EAC100AA490839086037E044
:102C7000E06800B30120A8490860FFF7EBFC0546B7
:102C800006E0FFF7E7FC401B022801D9032047E7D5
:102C9000A04808380068C0F340000028F1D09D48E3
:102CA0000838006820F0F800216940EAC10099491D
:102CB0000839086014E0002097490860FFF7CAFC53
:102CC000054606E0FFF7C6FC401B022801D9032099
:102CD00026E7904808380068C0F340000028F1D18A
:102CE000207800F0080008282CD16069A8B10120E4
:102CF0008A490860FFF7AEFC054606E0FFF7AAFC2C
:102D0000401B022801D903200AE782486C30006882
:102D1000C0F340000028F1D014E000207F49086093
:102D2000FFF798FC054606E0FFF794FC401B0228DD
:102D300001D90320F4E677486C300068C0F3400006
:102D40000028F1D1207800F00400042870D1002779
:102D500070483830006800F0805090B900BF002003
:102D600000906C483830006840F080506949383134
:102D700008600846006800F08050009000BF00BF67
:102D800001276748006800F48070B0B964480068A3
:102D900040F4807062490860FFF75CFC054606E07D
:102DA000FFF758FC401B022801D90320B8E65C4815
:102DB000006800F480700028F2D000BFA0680128ED
:102DC00008D154486830006840F00100514968312A
:102DD00008601DE0A06805280DD14E4868300068E5
:102DE00040F004004B49683108600846006840F034
:102DF000010008600CE047486830006820F00100DE
:102E00004449683108600846006820F00400086002
:102E100000BFA068A8B1FFF71DFC054609E0FFF759
:102E200019FC401B41F28831884202D9032077E621
:102E300026E0384868300068C0F340000028EED033
:102E400013E0FFF707FC054608E0FFF703FC401B13
:102E500041F28831884201D9032061E62D4868306B
:102E60000068C0F340000028EFD1012F07D12948A6
:102E70003830006820F0805026493831086000BFA3
:102E8000A069002845D02348006800F00C000828FD
:102E90005DD0A069022845D100201F490866FFF7D0
:102EA000D9FB054606E0FFF7D5FB401B022801D9F8
:102EB000032035E6174808380068C0F34060002852
:102EC000F1D1D4E907010843616A40EA8111012286
:102ED000A06AC2EB500041EA00412C20005D41EAAB
:102EE00000600C49091F086001200B490866FFF7C4
:102EF000B1FB054606E0FFF7ADFB401B022801D9F8
:102F000003200DE6034808380068C0F3406000283D
:102F1000F1D049E00838024000004742800E4742A5
:102F200000700040002021490866FFF793FB05462A
:102F300006E0FFF78FFB401B022801D90320EFE5D5
:102F40001B480068C0F340600028F2D12CE0A06963
:102F5000012800D1E4E51648001D0668A069012893
:102F600020D006F48001E06981421BD106F03F01C8
:102F7000206A814216D147F6C0703040616AB0EBDA
:102F8000811F0FD106F440310122A06AC2EB50002C
:102F9000B1EB004F06D106F070612C20005DB1EB63
:102FA000006F01D00120BBE50020B9E500004742D9
:102FB000003802407047704710B504460CB9012034
:102FC00010BD94F83D0028B9002084F83C0020464C
:102FD00000F025F8022084F83D00211D206800F053
:102FE00065FC012084F8460000BF84F83E00012102
:102FF0003F200155402001554120015500BF00BF31
:10300000012084F842004320015544200155452009
:10301000015500BF012084F83D000020D0E7704733
:10302000014691F83D00012801D00120704702209F
:1030300081F83D000868C06840F001000B68D86066
:103040001A4B086898421BD00868B0F1804F17D01F
:10305000174B0868984213D0164B086898420FD057
:10306000154B086898420BD0144B0868984207D05B
:10307000134B0868984203D0124B086898420CD151
:103080000868806800F00702062A0CD0086800680B
:1030900040F001000B68186005E00868006840F027
:1030A00001000B6818600020C0E70000000001402C
:1030B0000004004000080040000C004000040140F3
:1030C0000040014000180040704770B50446206879
:1030D000C5682068066906F00200022819D105F0CB
:1030E0000200022815D1401F2168086101202077C5
:1030F0002068806900F0030018B12046FFF7E4FF64
:1031000005E0204600F097F8204600F095F80020F2
:10311000207706F00400042819D105F004000428E3
:1031200015D1C0432168086102202077206880699A
:1031300000F4407018B12046FFF7C6FF05E02046B6
:1031400000F079F8204600F077F80020207706F0AC
:103150000800082819D105F00800082815D1C04337
:1031600021680861042020772068C06900F003000E
:1031700018B12046FFF7A8FF05E0204600F05BF8F5
:10318000204600F059F80020207706F010001028A3
:1031900019D105F01000102815D1C043216808612D
:1031A000082020772068C06900F4407018B12046DC
:1031B000FFF78AFF05E0204600F03DF8204600F0CA
:1031C0003BF80020207706F0010048B105F001002F
:1031D00030B16FF0010021680861204600F02EF840
:1031E00006F08000802809D105F08000802805D1F4
:1031F000C043216808612046FFF7DCFE06F040006E
:10320000402809D105F04000402805D1C04321687D
:103210000861204600F01EF806F02000202809D1A1
:1032200005F02000202805D1C04321680861204610
:10323000FFF7C1FE70BD70477047000010B504462F
:1032400003492068884201D1FFF70AFA10BD000047
:1032500000000140704700BFFEE738B5044600207B
:10326000009063696A46012120689847002802DAC5
:103270006FF0040038BD63696A46012120689847F1
:10328000002802DA6FF0040038BD009810F0040F37
:1032900009D063696A46002120689847002804DA4B
:1032A0006FF0040038BD012038BD009810F4805F35
:1032B00009D063696A461F2120689847002814DAFC
:1032C0006FF0040038BD4FF40451814304D010F472
:1032D000005F03D0032038BD022038BD10F4807F8A
:1032E00001D0042038BD052038BD009810F4805F5F
:1032F00009D000F01C00182807D0082807D014288F
:1033000007D0052038BD062038BD022038BD032077
:1033100038BD042038BDF8B50546002000900024D3
:1033200000266868002821D1A86800B180472020C5
:1033300028606B696A46122120469847002802DA05
:103340006FF0040607E0009800F01F00A04202D1D1
:103350002C60002602E0641C1F2CEAD928681F2874
:1033600001D96FF002060EB9012068603046F8BD41
:10337000002811D0CA687AB18A686AB10A695AB15C
:103380000A6882604A68C260CA6842618A680261EB
:1033900009698161002070474FF0FF3070470000DD
:1033A00070B504460D4604F001024FF480710D48DB
:1033B000FFF74AF9C4F3400280210A48FFF744F9B5
:1033C000C4F3800240210748FFF73EF9C4F3C0026E
:1033D0004FF400410448FFF737F9284603F0EEFFA9
:1033E00070BD000000080240000C024000B587B02C
:1033F000142102A8FDF7DAF900BF00200190464829
:10340000006840F00400444908600846006800F085
:103410000400019000BF00BF00BF002001900846DB
:10342000006840F0800008600846006800F08000F6
:10343000019000BF00BF00BF002001900846006857
:1034400040F0010008600846006800F001000190AB
:1034500000BF00BF00BF002001900846006840F098
:10346000020008600846006800F00200019000BFFA
:1034700000BF00BF002001900846006840F008002F
:1034800008600846006800F00800019000BF00BF17
:10349000002202212148FFF7D7F800224FF4004113
:1034A0001F48FFF7D1F800224FF4E0711D48FFF7E5
:1034B000CBF8022002900120039000200490059098
:1034C00002A91648FEF7C6FF4FF400400290012003
:1034D000039000200490059002A91148FEF7BAFF5E
:1034E0004FF4E070029001200390002004900590BA
:1034F00002A90C48FEF7AEFF602002900220039064
:1035000000200490032005900720069002A904489B
:10351000FEF7A0FF07B000BD3038024000040240B3
:10352000000C0240000802400EB5C0208749087018
:10353000A8204870002088700F20C870FF208449A0
:103540000870487088700020C87082490870487000
:103550008870C870002108460BF0EEF87B480078B0
:1035600000067A49497840EA01407849897840EA7A
:1035700001207649C978084302067448007800069D
:103580007249497840EA01407049897840EA01204F
:103590006E49C978084300F47F4042EA00226B4834
:1035A000007800066949497840EA01416748807817
:1035B00041EA00206549C978084300F47F0042EAE7
:1035C00010226248007801066048407841EA0041D4
:1035D0005E48807841EA00205C49C978084342EAA5
:1035E00010605D4908605A480078000658494978DB
:1035F00040EA01405649897840EA01205449C97897
:10360000084302065248007800065149497840EACA
:1036100001404F49897840EA01204D49C978084363
:1036200000F47F4042EA00224948007800064849F9
:10363000497840EA01414648807841EA00204449FF
:10364000C978084300F47F0042EA1022404800781D
:1036500001063F48407841EA00413D48807841EA10
:1036600000203B49C978084342EA10603B490860A2
:103670003848007800063749497840EA0140354922
:10368000897840EA01203349C97808430206314865
:10369000007800062F49497840EA01402D49897891
:1036A00040EA01202B49C978084300F47F4042EAF0
:1036B00000222848007800062649497840EA01415E
:1036C0002448807841EA00202249C978084300F460
:1036D0007F0042EA10221F48007801061D4840780A
:1036E00041EA00411B48807841EA00201949C97825
:1036F000084342EA10601A4908601A481A49002231
:10370000174BCDE900210290144A1349174803F0E2
:10371000B7FA164803F0E6FC144803F0FDFD14491F
:10372000124803F03BFD24211248FDF73FF812A098
:10373000104908604FF480604861102088610A4693
:103740000A490F4804F096F80EBD0000140000204E
:10375000180000201C000020080000200C000020A1
:103760001000002015E90008A9490008641A00208B
:10377000DD470008981A00204574684C696E6B009C
:10378000E147000800BFFEE700BFFEE700BF0120E1
:1037900003F014FEFBE7FFF7C7FE012400BFC821BA
:1037A0002046FFF7FDFD6006040E082C00DD012415
:1037B000012003F003FEF2E710B54FF0E0200069AE
:1037C0000CF048FC012803D0BDE810400BF026BFE8
:1037D00010BD000000B593B0302107A8FCF7E6FF4C
:1037E000142102A8FCF7E2FF00BF0020019024484A
:1037F000006840F08050224908600846006800F0E8
:103800008050019000BF00BF00BF002001901D4804
:10381000006840F480401B4908600846006800F4D6
:103820008040019000BF00BF012007900004089075
:1038300002200D9041050E910C210F9160211091F5
:10384000022111910421129107A8FFF765F908B12F
:10385000FEF7EEF80F200290022003900020049063
:103860004FF4A05005904FF480500690032102A819
:10387000FFF700F808B1FEF7DBF813B000BD000059
:1038800040380240007000400348006840F4700077
:10389000014908607047000088ED00E010B502485B
:1038A000FFF713FC10BD00008866002010B5026809
:1038B0002B4B98420ED0B0F1804F0BD0294B984241
:1038C00008D0294B984205D0284B984202D0284B6B
:1038D000984203D122F070024B681A43204B984261
:1038E00020D0B0F1804F1DD01E4B98421AD01E4BF5
:1038F000984217D01D4B984214D01D4B984211D0BE
:103900001C4B98420ED01C4B98420BD01B4B98423C
:1039100008D01B4B984205D01A4B984202D01A4B44
:10392000984203D122F44072CB681A4322F08003FC
:103930004C6943EA04028B68C3620B688362084BDC
:10394000984202D00A4B984201D10B690363036885
:1039500043F00403036001234361026010BD0000D3
:10396000000001400004004000080040000C00403E
:103970000004014000400140004401400048014073
:1039800000180040001C00400020004000BFFEE77F
:1039900002480068C0F30220704700000CED00E010
:1039A00010B5002804DB0A07130E054A135406E07D
:1039B0000A07140E034A00F00F031B1FD45410BD56
:1039C00000E400E018ED00E070B505460C4614F088
:1039D000030F06D008A34FF4B67213A11AA0FCF788
:1039E00067FD05F08DFCA96809682160A9680C6075
:1039F000BDE8704005F090BC2E2E2F4D6964646CBC
:103A00006577617265732F54686972645F50617283
:103A100074792F4C7749502F7372632F636F7265DF
:103A20002F6D656D702E63006D656D705F667265DC
:103A3000653A206D656D2070726F7065726C7920CB
:103A4000616C69676E656400417373657274696F58
:103A50006E2022257322206661696C656420617482
:103A6000206C696E6520256420696E2025730A002C
:103A700070B5044605F044FC0546A0680468002CB7
:103A800010D02168016014F0030F06D008A34FF492
:103A90008C7213A11BA0FCF70BFD284605F03CFC23
:103AA000204670BD284605F037FC002070BD0000A0
:103AB0002E2E2F4D6964646C6577617265732F5487
:103AC000686972645F50617274792F4C7749502F26
:103AD0007372632F636F72652F6D656D702E630057
:103AE0006D656D705F6D616C6C6F633A206D656DB7
:103AF000702070726F7065726C7920616C69676E8E
:103B000065640000417373657274696F6E202225CD
:103B10007322206661696C6564206174206C696E33
:103B20006520256420696E2025730A0070B505465E
:103B30000024084E04EB440006EBC000017D29B1CF
:103B40008068A84202D1204600F046F9641C0A2C85
:103B5000F0DB70BDACE600202DE9F74F86B0804663
:103B600091464FF00A0BDA460A2700240A200490F7
:103B70000020039002900190584904EB440001EBAF
:103B8000C0060590357D0A2F01D1002D1ED0002DD5
:103B900028D0012D08D0022D06D251A340F22312C5
:103BA0005DA16DA0FCF784FCB8F1000F10D0D8F82F
:103BB0000000716888420BD1B9F1000F02D0B068E3
:103BC000484505D109B02046BDE8F08F274609E0F9
:103BD000012D10D0022D05D3708A0199884201D39E
:103BE000A2460190601C04B20A2CC5DB079810F0B5
:103BF000020F1DD112E03948059950F8310030B15B
:103C0000708A03998842EDD304940390EAE7708A9E
:103C100002998842E6D3A3460290E3E70A2F03D134
:103C2000079810F0010F03D00A2F06DA3C462BE06C
:103C300009B04FF0FF30BDE8F08FBAF10A0F0EDA8D
:103C40005446264804EB440150F8310080B124A3C7
:103C500040F26D124AA140A0FCF72AFC08E0BBF13B
:103C60000A0F01DA5C4603E004980A2831DA049C62
:103C70000A2C06DB1AA340F27F1247A136A0FCF7FC
:103C800017FC204600F0A8F80A2C06DB14A340F22B
:103C9000831241A130A0FCF70BFC104804EB440157
:103CA00000EBC105287D30B10DA34FF4C2723FA1D6
:103CB00029A0FCF7FDFBB8F1000F02D0D8F80000F6
:103CC000686000206882C5F8089009B02046BDE809
:103CD000F08F09B04FF0FF30BDE8F08FACE6002068
:103CE0002E2E2F4D6964646C6577617265732F5455
:103CF000686972645F50617274792F4C7749502FF4
:103D00007372632F636F72652F697076342F6574D9
:103D1000686172702E6300007374617465203D3DAC
:103D2000204554484152505F53544154455F5045DB
:103D30004E44494E47207C7C207374617465203E5C
:103D40003D204554484152505F53544154455F53C0
:103D50005441424C45000000417373657274696FB1
:103D60006E2022257322206661696C65642061746F
:103D7000206C696E6520256420696E2025730A0019
:103D80006172705F7461626C655B695D2E71203D6C
:103D90003D204E554C4C000069203C204152505F64
:103DA0005441424C455F53495A4500006172705F6F
:103DB0007461626C655B695D2E7374617465203D2E
:103DC0003D204554484152505F53544154455F454E
:103DD0004D5054590000000070B5084D00EB4004F0
:103DE000002655F83400002803D004F03DFA45F8C9
:103DF000346005EBC400067570BD0000ACE6002021
:103E0000F0B587B007460D46002D05D07C682088A8
:103E1000B0F5807F12D108E023A340F28A2230A1BE
:103E200033A0FCF745FB07B0F0BD2079062805D18B
:103E30006079042802D16088082804D0384604F04C
:103E400013FA07B0F0BDD4F80E000690A0690590F3
:103E5000696819B1884203D1012602E0002600E01A
:103E600000260EB1012300E0022304F1080206A996
:103E7000284600F0CDFBE088B0F5807F0ED16EB112
:103E80002B1D022006A9009304F108020291039061
:103E9000223301921946284600F0B0FA384604F061
:103EA000E3F907B0F0BD00002E2E2F4D6964646C5D
:103EB0006577617265732F54686972645F506172CF
:103EC00074792F4C7749502F7372632F636F72652B
:103ED0002F697076342F6574686172702E630000EC
:103EE0006E6574696620213D204E554C4C000000E3
:103EF000417373657274696F6E2022257322206688
:103F000061696C6564206174206C696E652025644C
:103F100020696E2025730A0070B584B004460E46F1
:103F20001546002C06D14CA340F21E3258A15CA0CD
:103F3000FCF7BEFA36B948A340F21F3262A158A07E
:103F4000FCF7B6FA280006D143A34FF4487261A1EA
:103F500053A0FCF7ADFA2146286800F03BFF08B1FA
:103F6000604B44E0286800F0F001E0292AD0A16805
:103F7000636800EA010219408A4208D080B2A0F5C5
:103F80007E41A93903D0E068E0B304F10C05564B3B
:103F900056491A7802EB420001EBC00090F814C0B9
:103FA000BCF1020F33D3D0F808C0A4452FD1D5F807
:103FB00000C0406884452AD13146204600F098F878
:103FC00004B070BD01208DF8080000208DF80900B4
:103FD0005E208DF80A00687800F07F008DF80B00F5
:103FE000A8788DF80C00E8788DF80D0002AB4FF43E
:103FF0000060009004F126023146204600F05AFC91
:1040000004B070BDFFE704B06FF0030070BD002284
:1040100002EB420001EBC00090F814C0BCF1020FAB
:104020000FD3D0F808C0A4450BD1D5F800C0406824
:10403000844506D11A703146204600F059F804B084
:1040400070BD501CC2B20A2AE2D33246294620462D
:1040500000F0D0F804B070BD2E2E2F4D6964646C52
:104060006577617265732F54686972645F5061721D
:1040700074792F4C7749502F7372632F636F726579
:104080002F697076342F6574686172702E6300003A
:104090006E6574696620213D204E554C4C00000031
:1040A000417373657274696F6E20222573222066D6
:1040B00061696C6564206174206C696E652025649B
:1040C00020696E2025730A007120213D204E554C39
:1040D0004C00000069706164647220213D204E55DF
:1040E0004C4C0000F004010890010020ACE60020D8
:1040F000F8B505460E461A4802EB420100EBC10432
:10410000207D022806D217A340F2EE2223A12FA081
:10411000FCF7CEF9207D022816D1618A0327B1F57C
:104120008E7F06D9211D284600F026FA60B9277532
:104130000AE0B1F5877F07D304F10C02211D284660
:1041400000F020FA00B927754FF40060009004F1E8
:104150000C0305F126023146284600F0ABFBF8BD02
:10416000ACE600202E2E2F4D6964646C6577617279
:1041700065732F54686972645F50617274792F4C53
:104180007749502F7372632F636F72652F69707652
:10419000342F6574686172702E6300006172705F05
:1041A0007461626C655B6172705F6964785D2E73C7
:1041B00074617465203E3D204554484152505F5320
:1041C000544154455F535441424C4500417373651B
:1041D0007274696F6E2022257322206661696C6596
:1041E00064206174206C696E6520256420696E20EE
:1041F00025730A002DE9F04F83B082460F4616461C
:104200000AF1260002904FF0FF344FF000085146AB
:10421000386800F0DFFD90B9386800F0F001E0295F
:104220000DD067B158B1524601213846FFF794FCD2
:104230000546002D08DA03B068B2BDE8F08F03B080
:104240006FF00F00BDE8F08F7F2D06D33CA340F246
:10425000C13249A14CA0FCF72BF905F0FF0B5448E3
:104260000BEB4B0900EBC905297D29B94FF001087B
:1042700001212975C5F808A0287D012808D0022849
:1042800006D22FA340F2CD324AA13FA0FCF710F98D
:10429000B8F1000F00D12EB93946504600F06CF944
:1042A000044696B1287D424F022812D34B4880F82D
:1042B00000B04FF40060009005F10C033146504609
:1042C000029A00F0F7FA044635E003B02046BDE854
:1042D000F08F01282FD1002534466089218988423A
:1042E00008D1206830B116A340F2F1323CA126A0DB
:1042F000FCF7DEF8207B10F0400F01D0012502E032
:104300002468002CE9D13DB132464FF420710E20D3
:1043100003F0CCFD064602E0304604F069F946B1F0
:1043200057F8390008B103F09FFF47F839600024BF
:1043300001E04FF0FF3403B02046BDE8F08F0000ED
:104340002E2E2F4D6964646C6577617265732F54EE
:10435000686972645F50617274792F4C7749502F8D
:104360007372632F636F72652F697076342F657473
:10437000686172702E63000074797065206F7665D5
:1043800072666C6F77000000417373657274696FB9
:104390006E2022257322206661696C656420617439
:1043A000206C696E6520256420696E2025730A00E3
:1043B000ACE600206172705F7461626C655B695D80
:1043C0002E7374617465203D3D2050454E44494E26
:1043D00047206F7220535441424C45009001002009
:1043E0006E6F207061636B657420717565756573A0
:1043F00020616C6C6F776564210000002DE9FF4F30
:1044000081B00646DDF84090DDF83C800E9F9A466C
:104410004FF0000B002E06D12DA340F257423AA1D7
:104420003DA0FCF745F84FF420721C210E2003F04C
:10443000EBFA0546280045D068891C2806D224A33B
:1044400040F262423EA134A0FCF732F86C68119849
:1044500001F0B4FEE08096F82C00062806D01CA3DC
:1044600040F2694243492CA0FCF722F8DAF8000038
:10447000A060BAF80400A081D8F80000C4F81200C7
:10448000B8F80400E0823868C4F80E00D9F80000DB
:10449000A0614FF480702080082060800620207189
:1044A0000420607140F60600009029463046039BC8
:1044B000029A00F0FFF9284603F0D6FE05B05846F0
:1044C000BDE8F08F05B04FF0FF30BDE8F08F000081
:1044D0002E2E2F4D6964646C6577617265732F545D
:1044E000686972645F50617274792F4C7749502FFC
:1044F0007372632F636F72652F697076342F6574E2
:10450000686172702E6300006E6574696620213DDB
:10451000204E554C4C000000417373657274696FF6
:104520006E2022257322206661696C6564206174A7
:10453000206C696E6520256420696E2025730A0051
:10454000636865636B207468617420666972737454
:1045500020706275662063616E20686F6C642073E2
:104560007472756374206574686172705F686472D8
:104570000000000030070108014A00F003B8000005
:10458000F004010810B584B001230393DFF818C0CC
:10459000041D029100F12603CDF804C000941946D1
:1045A000FFF72CFF04B010BDF60401082DE9F0411F
:1045B00000240426154D022704EB440005EBC0023D
:1045C000117DE9B1508A401C80B25082B0F5967FCF
:1045D00003D2012905D1052803D32046FFF7FCFBB0
:1045E0000EE0032904D0042904D0012904D007E0F7
:1045F000167505E0177503E0111D9068FFF7BCFF05
:10460000641C0A2CD8DBBDE8F0810000ACE6002079
:10461000F8B504460D4616461F4694F82C000628A9
:1046200006D020A340F2A9122CA135A0FBF740FF31
:104630009DB1286888B1214600F0CCFB68B9287884
:1046400000F0F000E02808D0224639462846FFF75F
:1046500083FA002804DA40B2F8BD6FF00F00F8BD0D
:10466000314A00EB400102EBC10002230375846074
:104670003368C360B38803820023438252F8315009
:1046800075B142F831304FF400600090334604F1C8
:1046900026022946204600F00DF9284603F0E4FDE5
:1046A0000020F8BD2E2E2F4D6964646C6577617211
:1046B00065732F54686972645F50617274792F4C0E
:1046C0007749502F7372632F636F72652F6970760D
:1046D000342F6574686172702E6300006E657469B2
:1046E000662D3E6877616464725F6C656E203D3D47
:1046F000204554485F4857414444525F4C454E0062
:10470000417373657274696F6E202225732220666F
:1047100061696C6564206174206C696E6520256434
:1047200020696E2025730A00ACE600202DE9F041D7
:1047300004460D460E2760890E2840D9E07B18B943
:1047400095F83000401CE07360688689017811F0AC
:10475000010F15D0012905D006221F49FBF76CFF78
:1047600050B10DE0417859B980785E2808D1607B5E
:1047700040F01000607303E0607B40F0080060735D
:10478000082E03D0B6F5C16F19D10EE095F82D00B3
:1047900010F0080F13D03946204603F077FF70B9A8
:1047A0002946204600F08AFC13E095F82D0010F011
:1047B000080F04D03946204603F068FF28B1204690
:1047C00003F052FD0020BDE8F08129462046FFF7A6
:1047D00017FB0020BDE8F081F004010870470000DD
:1047E0009AB00646642101A8FBF7E0FF00240027E9
:1047F000A046A146354600BF2C48FEF72EFD0446D4
:1048000095F82D00C0F3800058B1012C09DC284830
:10481000FDF73AFD284602F06BFC284602F0C2FC88
:104820003FE095F82D00C0F38000002839D1012C1D
:1048300037DD022C06D0032C0AD0042C0ED0052C18
:1048400017D111E04FF400694FF48048012711E0BF
:104850004FF000094FF4804801270BE04FF4006946
:104860004FF00008012705E04FF00009C846012776
:1048700000E000BF00BFA7B101A90D48FDF708F98E
:10488000CDF81C90CDF8188001A90948FDF76AFC05
:104890000748FDF7A5FC284602F03EFD284602F039
:1048A000D9FC642002F08AFDA6E7000068660020BB
:1048B000806500202DE9F04106460F4615461C464E
:1048C000069801F07BFC80460E21384603F030F854
:1048D00018B16FF00100BDE8F0817868A0F80C8095
:1048E00021680160A18881802968C0F80610A98824
:1048F000418196F82C00062806D006A34FF4997241
:1049000012A11FA0FBF7D4FD39463046B269BDE8BD
:10491000F04110472E2E2F4D6964646C65776172EB
:1049200065732F54686972645F50617274792F4C9B
:104930007749502F7372632F6E657469662F6574A3
:104940006865726E65742E63000000006E657469A0
:10495000662D3E6877616464725F6C656E206D756C
:104960007374206265203620666F722065746865F6
:10497000726E65745F6F757470757421000000004D
:10498000417373657274696F6E20222573222066ED
:1049900061696C6564206174206C696E65202564B2
:1049A00020696E2025730A0010B5044600BF44B983
:1049B00000BF0CA340F2FB120FA113A0FBF778FD80
:1049C00000BF00BF732084F82E0074212F200155F2
:1049D000174860611748A061204601F045FA0020A1
:1049E00010BD00002E2E2F5372632F657468657200
:1049F0006E657469662E63006E6574696620213D7C
:104A0000204E554C4C000000417373657274696F01
:104A10006E2022257322206661696C6564206174B2
:104A2000206C696E6520256420696E2025730A005C
:104A3000193F00087D60000806460024354600BF87
:104A40004FF0FF310B48006802F05AFE0028F7D102
:104A500000BF284601F000FB04463CB12946204631
:104A60002A69904710B1204603F0FEFB002CF0D1DC
:104A7000E6E70000280000208A68002A01DCFCF735
:104A8000B2B8521E8A604A68C0B2531C4B601070A4
:104A900070470A46032100F00FB900002DE9F047E6
:104AA00084B004468846504FD7F808A09AF8000012
:104AB0000007850E142DC0F0918060890428C0F095
:104AC0008D8060680178002900F08280082940F01C
:104AD0007F8007F11409786900F0F001E02954D0D3
:104AE000396800F077F900284FD120890828C0F0F4
:104AF000758005F10E01204602F01AFF002838D01B
:104B00002089411989B288423FD84FF420720E2083
:104B100002F07AFF0646002E37D0708905F10801B1
:104B2000884203D2304603F09FFB2EE02A465146CE
:104B30007068FBF7CCFD2946304603F0A7FD00283E
:104B400009D02AA3B62237A144A0FBF7B1FC304616
:104B500003F08AFB19E02146304603F0F7F918B15B
:104B6000304603F081FB10E0204603F07DFB344625
:104B700011E005F10E01204603F088FD58B11BA39A
:104B8000C72240A135A0FBF793FC04B02046BDE846
:104B9000F04703F069BB66682946204602F0C8FE6C
:104BA000B0B96068D9F80010C160396901610021AD
:104BB00031707180FF2202724181012000910190C9
:104BC000FF230022CDF808804946204600F05EFB16
:104BD00004B02046BDE8F04703F046BB04B02046D1
:104BE000BDE8F04703F040BBA4AF00202E2E2F4DB0
:104BF0006964646C6577617265732F546869726467
:104C00005F50617274792F4C7749502F7372632F04
:104C1000636F72652F697076342F69636D702E63D0
:104C20000000000069636D705F696E7075743A20F2
:104C30006D6F76696E6720722D3E7061796C6F6161
:104C40006420746F2069636D7020686561646572AB
:104C5000206661696C65640A000000004173736539
:104C60007274696F6E2022257322206661696C65FB
:104C700064206174206C696E6520256420696E2053
:104C800025730A0069636D705F696E7075743A20F0
:104C9000726573746F72696E67206F726967696E8F
:104CA000616C20702D3E7061796C6F61642066616B
:104CB000696C65640A0000002DE9F04385B0064682
:104CC000884691464FF420722421222002F09CFE57
:104CD0000546280031D06889242806D218A34FF44D
:104CE000B47225A12FA0FBF7E3FB77686C6884F80A
:104CF000008084F801904FF00008A4F80480A4F824
:104D000006806868716808301C22FBF7E0FCF868D0
:104D1000049004A800F0CEFC60B1A4F80280012148
:104D200001910290FF2304AACDF8008000212846BB
:104D300000F0ACFA284603F097FA05B0BDE8F0831E
:104D40002E2E2F4D6964646C6577617265732F54E4
:104D5000686972645F50617274792F4C7749502F83
:104D60007372632F636F72652F697076342F696376
:104D70006D702E6300000000636865636B207468CB
:104D80006174206669727374207062756620636155
:104D90006E20686F6C642069636D70206D6573733D
:104DA00061676500417373657274696F6E202225B7
:104DB0007322206661696C6564206174206C696E81
:104DC0006520256420696E2025730A000A460B21A0
:104DD000FFF772BF81B00090B0F1FF3F0CD002002E
:104DE0000AD091F82D2012F0020F08D04A688242B2
:104DF00008D1002001B07047012001B070470020A9
:104E000001B07047896800EA01030A40934203D168
:104E10000843B0F1FF3F02D0002001B070470120ED
:104E200001B070472DE9F74F8AB0044600270B9870
:104E3000808C1438C11700EB5170C0F3CF0005907F
:104E40001426606807900798017801F00F01052982
:104E500003D00DB0B81FBDE8F08F618914290BD2C3
:104E600069A34FF43F7277A17DA0FBF721FB0DB042
:104E70006FF00500BDE8F08FC08801F09FF9C0F326
:104E80000C01049100F400500390208914381FFA9B
:104E900080F8B8F1000F00F0B38005984FF6FF716D
:104EA00001EAC00009900998404501D9C24601E0D5
:104EB000DDF824A04FF4207214210E2002F0A4FD8E
:104EC00083465FEA0B0000F06A80BBF80A001428F2
:104ED00006D24DA34FF449726BA161A0FBF7E8FA2B
:104EE0000798DBF8041002680A6042684A6082682A
:104EF0008A60C268CA6000690861DBF80400069035
:104F00005546002D35D06089811B8FB2B04206D244
:104F10003DA340F22D3264A151A0FBF7C9FABD4276
:104F200000D22F4677B300F001FC81465FEA09000A
:104F30002BD060684B46304400904122394601979F
:104F4000002002F0EBFE0890089810B3204603F012
:104F50004FFBC9F814405848C9F810005846089942
:104F600002F0FEFEE81B85B20DB100262468002D7C
:104F7000C9D1F01986B20B98808C1438404513DBE8
:104F8000012112E000262468F1E7584603F06CF98D
:104F900005E0484600F0CEFB584603F065F90DB039
:104FA0004FF0FF30BDE8F08F00210498C0F30C00F3
:104FB00009B1039909B140F4005001F0FFF80699D6
:104FC000C8800AF1140080B201F0F8F80699488010
:104FD0000699002048810B9859460C9A43699847D6
:104FE000584603F041F9A8EB0A001FFA80F805992A
:104FF0000498084480B20490B8F1000F7FF453AFD6
:105000000DB00020BDE8F08F2E2E2F4D6964646C2A
:105010006577617265732F54686972645F5061725D
:1050200074792F4C7749502F7372632F636F7265B9
:105030002F697076342F6970345F667261672E63F2
:10504000000000006970345F6672616728293A20A9
:105050007062756620746F6F2073686F72740000E1
:10506000417373657274696F6E2022257322206606
:1050700061696C6564206174206C696E65202564CB
:1050800020696E2025730A0074686973206E656557
:1050900064732061207062756620696E206F6E6592
:1050A0002070696563652100702D3E6C656E203E41
:1050B0003D20706F66660000D15D00082DE9F04765
:1050C00007460E467D6804212878B1EB101F05D0F5
:1050D000384603F0C9F80020BDE8F08700074FEA22
:1050E0009068688801F06AF804463889A04203D9BC
:1050F0002146384603F0E0F97889404505D33889E0
:10510000A04202D3B8F1140F05D2384603F0ACF830
:105110000020BDE8F087DFF840912869C9F8140045
:10512000E968C9F8101000F0F000E02805D030461A
:1051300000F096F860B134461BE096F82D0010F0B0
:10514000010F03D0706808B1344612E0002410E06B
:10515000002499F814007F280BD04048046844B11B
:10516000B44203D0204600F07BF810B92468002C2C
:10517000F6D13146D9F81000FFF72CFE68BB99F83C
:10518000100000F0F000E02827D064B3E88830F089
:10519000C00005D0384600F053F907464FB37D688C
:1051A000C9F80040C9F80460C9F808502878000719
:1051B000800EA9F80C004146384603F067FA687A79
:1051C000012823D006281CD0112815D02146D9F853
:1051D0001400FFF7FFFDF0B12CE0384603F044F86F
:1051E0000020BDE8F087384603F03EF80020BDE817
:1051F000F0870020BDE8F0873146384609F018FDF9
:105200001BE03146384605F0F1F816E031463846E5
:10521000FFF744FC11E099F8140000F0F000E028DA
:1052200008D00FFA88F1384603F00CF9022138460D
:10523000FFF72FFC384603F017F80020C9F80000EC
:10524000C9F80400C9F80800A9F80C00C9F8100052
:10525000C9F81400BDE8F087A4AF00202C0100209D
:1052600010B5014691F82D0010F0010F0AD04A68E0
:1052700042B105484069904202D0FFF7ABFD08B14A
:10528000012010BD002010BDA4AF002070B584B077
:10529000DDF828C0099D089C002A05D00E0001D029
:1052A0000E680EB90CF10401CDF808C00195009408
:1052B00000F002F804B070BD2DE9F84FDDF82CA025
:1052C000DDF828900C9F0546884616469B46A87B2D
:1052D000012806D032A34FF455723EA140A0FBF73F
:1052E000E7F8002E3ED01421284602F021FB18B129
:1052F0006FF00100BDE8F88F6C686889142806D249
:1053000027A34FF4627240A135A0FBF7D1F884F8CF
:1053100008B084F809A0306820614520207084F826
:105320000190288900F04AFF60804FF0000AA4F83D
:1053300006A0DFF80491B9F8000000F03FFFA0805C
:10534000B9F80000401CA9F80000B8F1000F05D022
:10535000D8F80000E060A4F80AA00EE03748006822
:10536000E060F8E76889142803D26FF00100BDE817
:10537000F88F6868006900906E46B88C48B129893A
:10538000814206D9324639462846FFF74BFDBDE833
:10539000F88F7B693246294638469847BDE8F88F32
:1053A0002E2E2F4D6964646C6577617265732F547E
:1053B000686972645F50617274792F4C7749502F1D
:1053C0007372632F636F72652F697076342F697003
:1053D000342E6300702D3E726566203D3D20310005
:1053E000417373657274696F6E2022257322206683
:1053F00061696C6564206174206C696E6520256448
:1054000020696E2025730A00636865636B207468E9
:1054100061742066697273742070627566206361BE
:105420006E20686F6C642073747275637420697089
:105430005F686472000000009201002038060108D5
:105440002DE9F0478246DAF80450287800F00F0082
:10545000052840F0D780E88800F0B0FEC004060CB4
:10546000688800F0ABFE014628780007800E88426D
:1054700000F2C880081A1FFA80F9504602F00CFDAD
:105480008046634F388840440A280BD94146284655
:1054900000F048FC002800F0B580388840440A2815
:1054A00000F2B0807C6874B1E8686169814207D11C
:1054B000A1692A69914203D1A189AA88914202D0A7
:1054C0002468002CF1D134B1E88800F077FEC004E4
:1054D000C00C09D018E04146284600F01FFB0446E6
:1054E000002C00F08F800FE0E08900F067FEC00420
:1054F000C00C09D02868A0606868E060A8682061D6
:10550000E86860612869A061E888012121EA5015F6
:1055100045B106EB090080B2B04263D34FF6EB71A0
:1055200088425FD82A465146204600F04DF9B0F136
:10553000FF3F57D039884144398035B106EB090126
:10554000A183A17F41F00101A177012802D00020B1
:10555000BDE8F087A08B143080B261684E68356872
:10556000A1683160E16871602169B1606169F160D1
:10557000A169316100F022FE70800020F08070810E
:10558000D4F804805DB16E681421284603F07EF8DB
:105590002946404602F0E4FB3568002DF3D17968D6
:1055A0008C4201D1002106E029B10868A04202D056
:1055B00001460029F9D1204600F052FA404602F097
:1055C0006BFC04463888A04206D212A340F29B220C
:1055D0001FA126A0FAF76CFF3888001B38804046D0
:1055E000BDE8F087606868B97868844206D009A38E
:1055F00040F2AB2227A11DA0FAF75AFF0021204656
:1056000000F02EFA504602F02FFE0020BDE8F08791
:10561000940100202E2E2F4D6964646C65776172B1
:1056200065732F54686972645F50617274792F4C8E
:105630007749502F7372632F636F72652F6970768D
:10564000342F6970345F667261672E63000000005A
:1056500069705F72656173735F70627566636F75A1
:105660006E74203E3D20636C656E0000417373656F
:105670007274696F6E2022257322206661696C65E1
:1056800064206174206C696E6520256420696E2039
:1056900025730A006E6F74206669727374616C748E
:1056A000686F756768206A75737420656E717565BB
:1056B0007565640030B404461A48006800281DD09F
:1056C00090F82D1011F0010F15D011F0040F12D029
:1056D000D0F804C0BCF1000F0DD02268836802EA44
:1056E00003050CEA03039D4219D011F0020F02D109
:1056F000C1688A4213D000680028E1D10A480068D6
:1057000060B190F82D1011F0010F07D011F0040FC7
:1057100004D0416811B121787F2900D1002030BC2C
:10572000704700002C01002030010020052001F00E
:105730000BBA000010B50446002C06D106A34FF4A6
:10574000317214A116A0FAF7B3FE2146BDE810404D
:10575000052001F037B900002E2E2F4D6964646CCE
:105760006577617265732F54686972645F50617206
:1057700074792F4C7749502F7372632F636F726562
:105780002F697076342F6970345F667261672E639B
:10579000000000007020213D204E554C4C000000C0
:1057A000417373657274696F6E20222573222066BF
:1057B00061696C6564206174206C696E6520256484
:1057C00020696E2025730A002DE9F04707468846B8
:1057D000914600250126D8F80440608800F0EEFCD0
:1057E000014620780007800E884202D9681EBDE875
:1057F000F087A1EB000AE08800F0E0FCC004000C98
:10580000D8F8044000212160A08000EB0A018AB290
:10581000E280824203D24FF0FF30BDE8F087D7F834
:1058200004C0BCF1000F3BD0DCF8043099888842FA
:105830001DD2C4F800C085B1E988884202D3988897
:10584000824203D94FF0FF30BDE8F087C5F80080F1
:10585000A088814224D0002622E09888824203D981
:105860004FF0FF30BDE8F087C7F8048018E003D19F
:105870004FF0FF30BDE8F087B3F806C0604503D2B3
:105880004FF0FF30BDE8F08725B1B5F806C08C4574
:1058900000D00026D3F800C01D46BCF1000FC3D1D4
:1058A000BCF1000F1ED195B1E888A188884206D9C5
:1058B0002FA34FF4DB723DA144A0FAF7F9FDC5F820
:1058C0000080E888A18888420CD000260AE0786829
:1058D00030B127A34FF4DF7246A13CA0FAF7E8FDF0
:1058E000C7F80480B9F1000F03D1B87F10F0010FA1
:1058F0003BD0002E32D07A6812B15068808808B14F
:1059000000262BE02168204651B14C68C088A18850
:10591000884201D0002603E0216820460029F4D106
:10592000002E1BD032B912A340F2DF123FA127A0F4
:10593000FAF7BEFD78684068A04206D10CA34FF488
:10594000F0723AA121A0FAF7B3FD206830B108A3A4
:105950004FF4F17239A11DA0FAF7AAFD16B101208A
:10596000BDE8F0870020BDE8F0870020BDE8F087A3
:105970002E2E2F4D6964646C6577617265732F54A8
:10598000686972645F50617274792F4C7749502F47
:105990007372632F636F72652F697076342F69702D
:1059A000345F667261672E630000000063686563A0
:1059B0006B20667261676D656E747320646F6E270D
:1059C00074206F7665726C617000000041737365BE
:1059D0007274696F6E2022257322206661696C657E
:1059E00064206174206C696E6520256420696E20D6
:1059F00025730A006E6F2070726576696F7573206B
:105A0000667261676D656E742C2074686973206DB1
:105A1000757374206265207468652066697273749A
:105A200020667261676D656E7421000073616E6936
:105A3000747920636865636B0000000076616C69AF
:105A4000646174655F646174616772616D3A6E650B
:105A500078745F70627566213D4E554C4C000000B5
:105A600070B504460D460C484168A14202D1216838
:105A700041600AE0002D06D108A340F2451216A1AC
:105A80001CA0FAF715FD206828602146BDE870408B
:105A9000042000F097BF0000940100202E2E2F4D0F
:105AA0006964646C6577617265732F5468697264A8
:105AB0005F50617274792F4C7749502F7372632F46
:105AC000636F72652F697076342F6970345F667208
:105AD00061672E630000000073616E697479206352
