:020000040800F2
:10000000F05D002029030008D1340008E12A00082F
:10001000CD340008C7050008254C0008000000008A
:10002000000000000000000000000000690200085D
:10003000F505000800000000C50200081D45000885
:100040004303000843030008430300084303000878
:100050004303000843030008430300084303000868
:100060004303000843030008430300084303000858
:100070004303000843030008430300084303000848
:100080004303000843030008430300084303000838
:100090004303000843030008430300084303000828
:1000A0004303000843030008430300084303000818
:1000B0004303000843030008430300084303000808
:1000C00043030008430300084303000843030008F8
:1000D000430300084303000843030008154C0008CD
:1000E00043030008430300084303000843030008D8
:1000F0004303000831460008430300084303000897
:1001000043030008430300084303000843030008B7
:100110004303000843030008430300082146000886
:100120004303000843030008430300084303000897
:100130004303000843030008430300084303000887
:100140004303000843030008430300084303000877
:100150004303000843030008430300084303000867
:100160004303000843030008430300084303000857
:100170004303000843030008430300080000000095
:10018000430300084303000800F002F800F05CF8A5
:100190000AA090E8000C82448344AAF10107DA45E2
:1001A00001D100F051F8AFF2090EBAE80F0013F0D8
:1001B000010F18BFFB1A43F001031847E05E00006F
:1001C000005F00000A444FF0000C10F8013B13F0F0
:1001D000070408BF10F8014B1D1108BF10F8015BA0
:1001E000641E05D010F8016B641E01F8016BF9D193
:1001F00013F0080F1EBF10F8014BAD1C0C1B09D1EA
:100200006D1E58BF01F801CBFAD505E014F8016B5B
:1002100001F8016B6D1EF9D59142D6D370470000ED
:100220000023002400250026103A28BF78C1FBD8FF
:10023000520728BF30C148BF0B6070471FB505F09B
:100240006CFE1FBD10B510BD00F083F91146FFF71D
:10025000F5FF04F031FD00F0A1F903B4FFF7F2FF60
:1002600003BC00F0A9F900002C4B19680868B0E83D
:10027000F04F80F30988BFF36F8F4FF0000080F3D9
:10028000118870470000000008480068006880F38B
:1002900008884FF0000080F3148862B661B6BFF39F
:1002A0004F8FBFF36F8F00DF00BF00BF08ED00E08E
:1002B000DFF80C00016841F470010160704700BF75
:1002C00088ED00E0EFF30980BFF36F8F134B1A68DE
:1002D0001EF0100F08BF20ED108A20E9F04F1060CB
:1002E00009B44FF0500080F31188BFF34F8FBFF374
:1002F0006F8F05F01FFA4FF0000080F3118809BCE2
:1003000019680868B0E8F04F1EF0100F08BFB0EC95
:10031000108A80F30988BFF36F8F704704010020B3
:10032000EFF30580704700000948804709480047FF
:10033000FEE7FEE7FEE7FEE7FEE7FEE7FEE7FEE795
:10034000FEE7FEE704480549054A064B70470000F2
:100350000D46000889010008F04B0020F05D0020E8
:10036000F04D0020F04D002053EA020C00F06980AF
:100370002DE9F04B4FF00006002B1FBFB3FA83F5B9
:1003800003FA05F424FA05F65E4012BF1643B2FAEA
:1003900082F502FA05F4C5F120051EBF22FA05FC1C
:1003A00044EA0C04203556EA044C4FEA144418BFC2
:1003B000641C4FF000084FF00009904271EB030CF1
:1003C00039D3002919BFB1FA81F701FA07F6B0FA5B
:1003D00080F700FA07F6C7F120071EBF20FA07FCD6
:1003E00046EA0C062037B6FBF4FCA7EB0507103FE6
:1003F00007F01F0BCBF120060CFA0BFB2CFA06F6CC
:1004000044BFB3460026202FA4BF5E464FF0000B2A
:100410005BEA060C08BF4FF0010B19EB0B09ABFBB5
:10042000027C48EB0608C01B06FB02CC0BFB03CC8E
:1004300071EB0C01C1E70B46024641464846BDE858
:10044000F08B13B54FF000004FF00001AFF30080C8
:10045000BDE81C40704710B5203AC0F00B80B1E8F1
:100460001850203AA0E81850B1E81850A0E81850E9
:10047000BFF4F5AF5FEA027C24BFB1E81850A0E8F2
:10048000185044BF18C918C0BDE810405FEA827C0C
:1004900024BF51F8043B40F8043B08BF7047D20723
:1004A00028BF31F8023B48BF11F8012B28BF20F8C4
:1004B000023B48BF00F8012B70474FF000020429AF
:1004C000C0F0128010F0030C00F01B80CCF1040C83
:1004D000BCF1020F18BF00F8012BA8BF20F8022BB7
:1004E000A1EB0C0100F00DB85FEAC17C24BF00F85D
:1004F000012B00F8012B48BF00F8012B70474FF08B
:10050000000200B5134694469646203922BFA0E863
:100510000C50A0E80C50B1F12001BFF4F7AF09076F
:1005200028BFA0E80C5048BF0CC05DF804EB890060
:1005300028BF40F8042B08BF704748BF20F8022BA3
:1005400011F0804F18BF00F8012B704770477047BB
:100550007047754600F02CF8AE46050069465346D4
:1005600020F00700854618B020B5FFF7EBFEBDE888
:1005700020404FF000064FF000074FF000084FF00A
:10058000000B21F00701AC46ACE8C009ACE8C0099B
:10059000ACE8C009ACE8C0098D46704710B5044608
:1005A000AFF300802046BDE81040FFF756BE0000C4
:1005B00000487047904B002001491820ABBEFEE771
:1005C00026000200704700BFFEE7000007480168F0
:1005D00007480068081A4CF25032904203D304488E
:1005E0000160012070470020FCE700008800002027
:1005F000D0000020704772B600BFFEE710B50022A1
:1006000001B909E0012901D10A0205E0022901D15D
:100610000A0201E04FF440720E4B1B6823F4407352
:100620000C4C236023461B681343236023461B683E
:1006300023F07803236023461B68022444EAC004A5
:100640002343044C236023461B6843F48033236018
:1006500010BD0000103C0240074A126822F44072AC
:10066000054B1A601A4612681A601A46126842F060
:1006700001021A6001707047103C024010B50A492F
:10068000096821F44071084C21602146096841F451
:10069000407121602146096841F00101216002603A
:1006A000BFF36F8F436010BD103C0240084A1268D0
:1006B00022F44072064B1A601A46126842F48072A5
:1006C0001A601A46126842F001021A6001807047EF
:1006D000103C0240084A126822F44072064B1A602D
:1006E0001A46126842F400721A601A46126842F002
:1006F00001021A6001607047103C02402348006804
:1007000000F0100040B12248C06940F010002049BC
:10071000C86110201D4908601C48006800F02000D6
:1007200040B11B48C06940F008001949C861202049
:10073000164908601548006800F0400040B11448B0
:10074000C06940F004001249C86140200F490860A8
:100750000E48006800F0800040B10D48C06940F0CC
:1007600002000B49C86180200849086007480068FA
:1007700000F0020040B10648C06940F02000044982
:10078000C861022001490860704700000C3C02402B
:10079000D400002070B50446002500201449C8612B
:1007A00000F024FB054609E0601C38B124B100F0DC
:1007B0001DFB401BA04201D9032070BD0D480068FD
:1007C00000F480300028EFD10A48006800F00100F2
:1007D00010B10120074908600648006800F0F200E7
:1007E00018B1FFF78BFF0120E7E70020E5E70000E5
:1007F000D40000200C3C024030B503460C461546A0
:10080000002207E003EB820002F0B8FE44F8220069
:10081000501CC2B2AA42F5DB30BD2DE9F0410546BD
:100820000E46174600F0C8F902210520FFF7E6FE44
:10083000002407E056F8241005EB840004F0F4F9D6
:10084000601CC4B2BC42F5DB00F064F9BDE8F08185
:10085000F0B50346002603B109B90120F0BD00BF81
:100860005879012801D10220F8E70120587100BF12
:10087000022018711868046802F0100740F6FE7034
:10088000B8408443D1E9000740EA070502F01000B0
:1008900005FA00F00443186804601868006802F064
:1008A000100CC02707FA0CF7B8431F683860012006
:1008B000187100BF0020587100BF3046CEE710B558
:1008C00004460CB9012010BD207920B900206071C8
:1008D000204600F009F8022020710020206101204C
:1008E00020710020EFE7000010B586B00446142107
:1008F00001A8FFF704FE1949206888422BD100BFE8
:10090000002000901648006840F00050144908602C
:100910000846006800F00050009000BF00BF00BF14
:10092000002000900E481038006840F001000C498B
:10093000103908600846006800F00100009000BF10
:1009400000BF30200190032002900020039001A9F5
:10095000044800F04BF906B010BD000000740040E0
:10096000403802400000024038B5044600200090A4
:100970000CB9012038BD2068009029B902F10800A7
:10098000009D2844009004E002F11400009D2844DA
:100990000090009803600020ECE710B502460AB909
:1009A000012010BD00BF5079012801D10220F8E7D5
:1009B0000120507100BF022010711068006801F022
:1009C00010040123A34018431368186061B910682C
:1009D000006800F03C003C2816D11068406840F0E8
:1009E0000100136858600FE01068006800F470138D
:1009F00001F010043C20A040834205D110684068FB
:100A000040F00200136858600120107100BF002000
:100A1000507100BF00BFC4E770B50446A56D00F07B
:100A2000E5F9064694F83500022808D08020606574
:100A300000BF002084F8340000BF012070BD206892
:100A4000006820F01600216808602068406920F0E6
:100A5000800021684861206C08B9A06C28B120682A
:100A6000006820F00800216808602068006820F015
:100A700001002168086010E000F0B8F9801B05282B
:100A80000BD920206065032084F8350000BF0020CA
:100A900084F8340000BF0320D0E72068006800F02D
:100AA00001000028E8D194F85C103F208840A8603D
:100AB000012084F8350000BF002084F8340000BF16
:100AC00000BFBBE7014691F83500022803D0802023
:100AD000486501207047052081F8350008680068E6
:100AE00020F001000A6810600020F3E770B50446AA
:100AF00000F07CF906462546681C10B104480078D1
:100B0000054400BF00F072F9801BA842FAD370BD03
:100B1000FC0000200348006840F0004001490860E4
:100B200000207047103C02402DE9F04106468846FF
:100B300014461D4600BF1E48007E012802D1022037
:100B4000BDE8F08101201A49087600BF4CF2503010
:100B5000FFF720FE07461FBB26B9E1B24046FFF76C
:100B60007BFD12E0012E04D1A1B24046FFF79EFDAD
:100B70000BE0022E04D121464046FFF7ABFD04E016
:100B800022462B464046FFF779FD4CF25030FFF7E6
:100B900001FE07460748006820F00100054908608B
:100BA00000BF00200249087600BF3846C8E70000B1
:100BB000D4000020103C024000200949096801F0DF
:100BC000004159B10749064A0C3A116006491160C3
:100BD0000349096801F0004101B10120704700009C
:100BE000103C024023016745AB89EFCDF8B50246C2
:100BF0000B460025002400200021D6E0012606FA3D
:100C000001F51E6806EA0504AC4274D11E7906F0AF
:100C10000306012E04D01E7906F00306022E13D11E
:100C200090684F000326BE40B0434F00DE68BE40D0
:100C300030439060506801268E40B0431E79C6F361
:100C400000168E40304350601E7906F00306032ED6
:100C500009D0D0684F000326BE40B0434F009E68C5
:100C6000BE403043D0601E7906F00306022E13D139
:100C7000CF0802F1200656F827004E07F70E0F2680
:100C8000BE40B0434F07FF0E1E69BE403043CF0841
:100C900002F1200646F8270010684F000326BE40E8
:100CA000B0431E7906F003064F00BE40304310608B
:100CB0005E6806F44036002E76D000BF002600960F
:100CC0003C4E366846F480463A4F3E603E463668B3
:100CD00006F48046009600BF00BF374E8F0856F8D6
:100CE00027008E07370F0F26BE40B043334EB24267
:100CF00002D1002624E057E0314EB24201D1012654
:100D00001EE0304EB24201D1022619E02E4EB24210
:100D100001D1032614E02D4EB24201D104260FE08A
:100D20002B4EB24201D105260AE02A4EB24201D131
:100D3000062605E0284EB24201D1072600E008262B
:100D40008F073F0FBE4030431B4E8F0846F82700E9
:100D5000224E3068A0435E6806F4801606B1204338
:100D60001E4E3060361D3068A0435E6806F40016E3
:100D700006B12043194E361D3060184E361F3068BC
:100D8000A0435E6806F4003606B12043134E361FBA
:100D90003060361F3068A0435E6806F4803606B1C6
:100DA00020430E4E083E3060491C1029FFF426AF48
:100DB000F8BD0000443802400838014000000240FD
:100DC0000004024000080240000C024000100240F3
:100DD0000014024000180240001C0240083C014080
:100DE0000AB1816101E00B0483617047014800682A
:100DF00070470000F400002070B504460CB90120D3
:100E000070BD94F83D0028B9002084F83C002046CD
:100E100000F092F9242084F83D002068006820F05A
:100E20000100216808602068006840F400402168E3
:100E300008602068006820F400402168086000F025
:100E40008DFC05465C496068884206D85B4885424F
:100E500001D2012007E0002005E05948854201D277
:100E6000012000E00020012800D1C9E75548B5FB6A
:100E7000F0F62068406820F03F0030432168486069
:100E80004D496068884201D8701C07E04FF49670A5
:100E900070434FF47A71B0FBF1F0401C2168096A8D
:100EA00021F03F0108432168086243496068884295
:100EB00014D8681E61684900B0FBF1F0401CC0F313
:100EC0000B00042801D204203DE0681E616849003F
:100ED000B0FBF1F0401CC0F30B0034E0A06838B95F
:100EE000681E616801EB4101B0FBF1F0401C0AE0B3
:100EF000681E616801EBC10202EB0111B0FBF1F069
:100F0000401C40F48040C0F30B0008B901201AE0F7
:100F1000A06848B9681E616801EB4101B0FBF1F0BF
:100F2000401CC0F30B000CE0681E616801EBC102BD
:100F300002EB0111B0FBF1F0401CC0F30B0040F4D8
:100F4000804040F400402168C9694CF6FF7291432B
:100F500008432168C861D4E907010843216809688A
:100F600021F0C001084321680860D4E90310084358
:100F70002168896848F2FF329143084321688860FC
:100F8000D4E9050108432168C96821F0FF0108433D
:100F90002168C8602068006840F00100216808608E
:100FA00000202064202084F83D000020206384F885
:100FB0003E0000BF24E70000A086010080841E00E0
:100FC00000093D0040420F002DE9F84304468946E0
:100FD00016461F46DDF82080FFF708FF054694F807
:100FE0003D0020287ED11923012251492046009539
:100FF00001F079FE10B10220BDE8F88300BF94F83B
:101000003C00012801D10220F6E7012084F83C00D1
:1010100000BF2068006800F0010028B9206800685F
:1010200040F00100216808602068006820F400603A
:1010300021680860212084F83D00102084F83E00DB
:101040000020206466626785608D20853948E062F3
:101050002B4642464946204601F064FD08B1012076
:10106000CAE700BF00200090206840690090206817
:101070008069009000BF00BF44E02A4641462046F8
:1010800001F00DFF50B1206C042805D120680068E4
:1010900040F40070216808600120ADE7606A0078C4
:1010A00021680861606A401C6062608D401E608536
:1010B000208D401E208520684069C0F3800070B1FB
:1010C000208D60B1606A007821680861606A401C08
:1010D0006062608D401E6085208D401E20852A46FE
:1010E000414600E022E0204601F0CAFD50B1206CEC
:1010F000042805D12068006840F400702168086069
:10110000012079E7208D0028B7D12068006840F4DD
:10111000007021680860202084F83D00002084F8D9
:101120003E0000BF84F83C0000BF65E7022063E793
:10113000020010000000FFFF10B586B00446142125
:1011400001A8FFF7DCF91B49206888422FD100BFB6
:10115000002000901848006840F00200164908601E
:101160000846006800F00200009000BF00BFC020E9
:10117000019012200290002003900320049004208C
:10118000059001A90D48FFF731FD00BF0020009038
:1011900009481030006840F4001007491031086019
:1011A0000846006800F40010009000BF00BF06B0C1
:1011B00010BD0000005400403038024000040240DE
:1011C00003480068034909780844014908607047EA
:1011D000F4000020FC00002010B50D48006840F429
:1011E00000700B4908600846006840F480600860A1
:1011F0000846006840F480700860032000F0E0F8C2
:101200000F2000F007F800F05FF8002010BD00008C
:10121000003C02402DE9F04188B004460027B84662
:1012200000BF002001902348006840F480702149ED
:1012300008600846006800F48070019000BF00BF9D
:1012400002A903A800F062FA069F1FB900F086FA0F
:10125000054602E000F082FA45001748B5FBF0F0C1
:10126000A0F1010815481649086040F2E73114481A
:10127000C160C0F80480002101618160816100F0DB
:101280005FFF064696B90E4800F0B2FF06466EB9FB
:101290002D2000F043F8102C07D2002221462D20EB
:1012A00000F050F80748046000E00126304608B01E
:1012B000BDE8F0814038024040420F00002000406D
:1012C000580E0020F800002008B500BF0020009054
:1012D0001148006840F480400F49086008460068E3
:1012E00000F48040009000BF00BF00BF00200090CD
:1012F000081F006840F08050091F08600846006819
:1013000000F08050009000BF00BF00220F21901E0F
:1013100000F018F808BD00004438024001460846B5
:1013200000280DDB00BF00BF00F01F0301229A4020
:1013300043099B0003F1E023C3F8002100BF00BF75
:1013400000BF70472DE9F05F80460D461646002726
:1013500003F074FC074639462A46334601F007007D
:10136000C0F1070ABAF1040F02D94FF0040A01E0F4
:10137000C0F1070AD14600F1040ABAF1070F02D200
:101380004FF0000A01E0A0F1030AD4464FF0010A31
:101390000AFA09FAAAF1010A0AEA020A0AFA0CFA96
:1013A0004FF0010B0BFA0CFBABF1010B0BEA030B3B
:1013B0004AEA0B042146404603F048FCBDE8F09F92
:1013C00000BF00F00702064B19684FF6FF031940F3
:1013D000044B0B4343EA0221014B196000BF7047E5
:1013E0000CED00E00000FA05F8B5044600250026E3
:1013F000207800F0010020B9207800F004000428D3
:101400002FD100205B498866FFF7F0FC054606E017
:10141000FFF7ECFC401B022801D90320F8BD564819
:101420000068C0F3C0600028F2D160688101207AB2
:1014300041EA007050498431086001204D498866B6
:10144000FFF7D4FC054606E0FFF7D0FC401B02285E
:1014500001D90320E2E748480068C0F3C0600028D3
:10146000F2D0207800F0020002287DD100BF0020D9
:10147000009041484030006840F080503E49403183
:1014800008600846006800F08050009000BF00BF70
:101490003A48006840F4807038490860FFF7A6FCBD
:1014A000054606E0FFF7A2FC401B022801D90320F5
:1014B000B4E73248006800F480700028F2D02E486B
:1014C0007030006800F440764EB3A08900F440709C
:1014D000B04224D028487030006820F440760120C3
:1014E00027490860002008602348703006600068C3
:1014F00000F0010098B1FFF779FC054608E0FFF71E
:1015000075FC401B41F28831884201D9032085E7F0
:10151000194870300068C0F340000028EFD000BFC9
:10152000A08900F44070B0F5407F0CD1124808301B
:10153000006820F4F810134AE168114008430E498E
:101540000831086007E00C480830006820F4F81003
:10155000094908310860084870300068A189C1F362
:101560000B010843044900E002E07031086000BF4D
:10157000002053E70000474200380240007000405E
:10158000400E4742FFFCFF0F70B504460D460CB9F4
:10159000012070BD5848006800F00700A84209D239
:1015A00055490D700846006800F00700A84201D0B8
:1015B0000120EEE7207800F0020002281DD12078FB
:1015C00000F00400042805D14C48006840F4E050C5
:1015D0004A490860207800F00800082805D14748EB
:1015E000006840F46040454908604448006820F0C5
:1015F000F000A168084341490860207800F001002C
:10160000A8B36068012807D13C4808380068C0F3D7
:101610004040B8B90120BCE76068022802D0606889
:10162000032807D1354808380068C0F3406048B93E
:101630000120AEE7314808380068C0F3400008B91F
:101640000120A6E72D48006820F0030061680843E8
:101650002A490860FFF7CAFB064609E0FFF7C6FB08
:10166000801B41F28831884202D9032091E707E0CC
:101670002248006800F00C006168B0EB810FEDD1EA
:101680001D48006800F00700A84209D91A490D70EA
:101690000846006800F00700A84201D0012078E762
:1016A000207800F00400042807D11448006820F4D2
:1016B000E050E168084311490860207800F0080014
:1016C000082808D10D48006820F46040216940EAEC
:1016D000C1000A49086000F061F808490968C1F3CF
:1016E0000311074A515CC840064908600648006873
:1016F000FFF790FD00204CE7003C02400838024014
:101700006860000800010020F80000200F2202603D
:101710000D4A126802F0030242600B4A126802F09E
:10172000F0028260084A126802F4E052C260064A7F
:10173000126802F46042D2080261044A126802F0A0
:1017400007020A607047000008380240003C02406F
:1017500001480068704700000001002000B5FFF755
:10176000F7FF04490968C1F38221034A515CC8406C
:1017700000BD0000083802407860000800B5FFF79F
:10178000E7FF04490968C1F34231034A515CC8408C
:1017900000BD000008380240786000082DE9F047DD
:1017A000002400250026A1462548006800F00C0012
:1017B00020B1042805D008283AD105E0DFF884904C
:1017C00039E0DFF8849036E01D48001F006800F023
:1017D0003F041B48001F006800F4800078B11A48DD
:1017E0001749091F0968C1F38811A0FB0170014660
:1017F000224600233846FEF7B7FD05460EE01148A5
:101800000F49091F0968C1F38811A0FB0170014647
:10181000224600233846FEF7A7FD05460848001F6C
:101820000068C0F30140401C4600B5FBF6F902E039
:10183000DFF8109000BF00BF4846BDE8F087000009
:10184000083802400024F40040787D01F8B50446D1
:101850000CB90120F8BD207800F00100002874D0F8
:10186000F948006800F00C0004280DD0F648006824
:1018700000F00C00082813D1F348001F006800F4A2
:101880008000B0F5800F0BD1EF4808380068C0F336
:101890004040002859D06068002856D10120D9E77F
:1018A00000BF6068B0F5803F08D1E748083800689D
:1018B00040F48030E449083908601EE06068B0F503
:1018C000A02F0DD1E0480838006840F48020DE49A0
:1018D000083908600846006840F4803008600CE071
:1018E000D9480838006820F48030D74908390860A2
:1018F0000846006820F48020086000BF606890B14E
:10190000FFF774FA054606E0FFF770FA401B6428FB
:1019100001D903209EE7CC4808380068C0F3404056
:101920000028F1D011E0FFF761FA054606E0FFF765
:101930005DFA401B642801D903208BE7C2480838B0
:101940000068C0F340400028F1D1207800F0020088
:1019500002285FD1BC48006800F00C0058B1BA48BA
:10196000006800F00C0008281CD1B748001F006870
:1019700000F48000B0B9B44808380068C0F34000F3
:1019800020B1E068012801D0012063E7AE480838A3
:10199000006820F0F800216940EAC100AA4908392E
:1019A000086037E0E06800B30120A8490860FFF74D
:1019B0001DFA054606E0FFF719FA401B022801D977
:1019C000032047E7A04808380068C0F3400000281B
:1019D000F1D09D480838006820F0F800216940EAFD
:1019E000C10099490839086014E00020974908604F
:1019F000FFF7FCF9054606E0FFF7F8F9401B02285F
:101A000001D9032026E7904808380068C0F3400059
:101A10000028F1D1207800F0080008282CD1606956
:101A2000A8B101208A490860FFF7E0F9054606E001
:101A3000FFF7DCF9401B022801D903200AE782489E
:101A40006C300068C0F340000028F1D014E00020A2
:101A50007F490860FFF7CAF9054606E0FFF7C6F9B7
:101A6000401B022801D90320F4E677486C30006857
:101A7000C0F340000028F1D1207800F004000428D1
:101A800070D1002770483830006800F0805090B95D
:101A900000BF002000906C483830006840F0805053
:101AA0006949383108600846006800F080500090AD
:101AB00000BF00BF01276748006800F48070B0B91C
:101AC0006448006840F4807062490860FFF78EF94E
:101AD000054606E0FFF78AF9401B022801D90320DA
:101AE000B8E65C48006800F480700028F2D000BFBF
:101AF000A068012808D154486830006840F001000F
:101B00005149683108601DE0A06805280DD14E4894
:101B10006830006840F004004B49683108600846AE
:101B2000006840F0010008600CE047486830006839
:101B300020F001004449683108600846006820F040
:101B40000400086000BFA068A8B1FFF74FF9054680
:101B500009E0FFF74BF9401B41F28831884202D976
:101B6000032077E626E0384868300068C0F340007C
:101B70000028EED013E0FFF739F9054608E0FFF73B
:101B800035F9401B41F28831884201D9032061E6D2
:101B90002D4868300068C0F340000028EFD1012FC5
:101BA00007D129483830006820F080502649383164
:101BB000086000BFA069002845D02348006800F0F5
:101BC0000C0008285DD0A069022845D100201F49DB
:101BD0000866FFF70BF9054606E0FFF707F9401B1B
:101BE000022801D9032035E6174808380068C0F3F9
:101BF00040600028F1D1D4E907010843616A40EA56
:101C000081110122A06AC2EB500041EA00412C2060
:101C1000005D41EA00600C49091F086001200B4982
:101C20000866FFF7E3F8054606E0FFF7DFF8401B1C
:101C3000022801D903200DE6034808380068C0F3E4
:101C400040600028F1D049E00838024000004742D7
:101C5000800E474200700040002021490866FFF7CF
:101C6000C5F8054606E0FFF7C1F8401B022801D978
:101C70000320EFE51B480068C0F340600028F2D164
:101C80002CE0A069012800D1E4E51648001D066893
:101C9000A069012820D006F48001E06981421BD1AF
:101CA00006F03F01206A814216D147F6C0703040ED
:101CB000616AB0EB811F0FD106F440310122A06AA6
:101CC000C2EB5000B1EB004F06D106F070612C2042
:101CD000005DB1EB006F01D00120BBE50020B9E54C
:101CE000000047420038024002460023106800F11D
:101CF000500303EB81031868704710B50023046894
:101D000004F1500303EB81031A6010BD70B5054662
:101D10000B4616460024286840680E4900EA010474
:101D2000200CD870C4F30420587004F03F00987061
:101D3000C4F3423018705EB9D87801F0CBFBD8708C
:101D4000587801F0C7FB5870987801F0C3FB987081
:101D5000002070BD3FFFFF0070B504460B461646DD
:101D600000252068806A586020680069C0F30E0072
:101D70009860206800680E4900EA0105C5F3054037
:101D80001870C5F30620587005F07F009870A80DF4
:101D9000D8705EB9187801F09DFB1870587801F082
:101DA00099FB5870987801F095FB9870002070BDF1
:101DB0007F7F7F0070B504460CB9012070BD607F45
:101DC00020B900202077204600F04EF802206077EE
:101DD0002068C068C0F3001000283CD100BFCA20B2
:101DE0002168486253202168486200BF204601F004
:101DF00089FB0546EDB9206880681A4908402168CA
:101E000088602169606808436169084321688968BE
:101E10000843216888602168E068086120680169DA
:101E2000208941EA004021680861204601F08FFBCB
:101E300005465DB92068006C20F4802021680864A4
:101E40002068006CA16908432168086400BFFF2076
:101E50002168486200E000250DB90120607728461E
:101E6000ACE70000BFFF8FFF1FB5044600200090C5
:101E70000190029003900949206888420CD1022009
:101E80000090C00103906846FFF7AEFA08B1FEF774
:101E9000B2FB0120024908601FBD0000002800407D
:101EA0003C0E47422DE9F04105460C4617464FF0DF
:101EB000000800BF287F012802D10220BDE8F08180
:101EC0000120287700BF022068774FB9607800F0C2
:101ED0001000102804D1607800F0EF000A30607024
:101EE00087B9E07801F001FB0304607801F0FDFAA6
:101EF00043EA0023A07801F0F8FA0343207843EA8C
:101F0000403809E0E0780004617840EA0120A178D7
:101F10000843217840EA413800BFCA202968486256
:101F200053202968486200BF284601F0EBFA0646B4
:101F300046B90B4808EA000029684860284601F0C5
:101F400006FB06460EB90120687700BFFF2029680E
:101F5000486200BF00BF0020287700BF3046ADE7D1
:101F60003FFFFF002DE9F04104460D4617464FF0B4
:101F7000000800BF207F012802D10220BDE8F081C7
:101F80000120207700BF02206077CFB920688068E9
:101F900000F0400000B102E00020E87000BF2878A7
:101FA00001F0A3FA0304687801F09FFA43EA0023E2
:101FB000A87801F09AFA0343E87843EA805812E0DF
:101FC0002068806800F0400000B102E00020E87066
:101FD00000BF28780004697840EA0120A978084306
:101FE000E97840EA815800BFCA202168486253203E
:101FF0002168486200BF204601F084FA0646B6B95F
:10200000124808EA0000216808602068806820F40F
:10201000802021688860D5E9030108432168896828
:10202000084321688860204601F091FA06460EB9FF
:102030000120607700BFFF202168486200BF00BF19
:102040000020207700BF304698E700007F7F7F00A8
:1020500070B5044600250B482168C860FEF7C6FE2F
:10206000054607E0FEF7C2FE401BB0F57A7F01D9B6
:10207000032070BD2068C06800F020000028F1D067
:102080000020F6E75F7F01007047704730B50246D9
:102090000B4600BF92F83C00012801D1022030BD60
:1020A000012082F83C0000BF022082F83D00106849
:1020B00044681068816824F070041868044310684C
:1020C0004460184D1068A8421BD01068B0F1804FD2
:1020D00017D0154D1068A84213D0144D1068A842AF
:1020E0000FD0134D1068A8420BD0124D1068A842B3
:1020F00007D0114D1068A84203D0104D1068A842B7
:1021000005D121F0800158680143106881600120E9
:1021100082F83D0000BF002082F83C0000BF00BFF5
:10212000BDE700000000014000040040000800403E
:10213000000C004000040140004001400018004035
:1021400010B504460CB9012010BD94F83D0028B923
:10215000002084F83C00204600F026F8022084F895
:102160003D00211D206802F06BFA012084F8460032
:1021700000BF84F83E0001213F2001554020015559
:102180004120015500BF00BF012084F842004320D8
:102190000155442001554520015500BF012084F818
:1021A0003D000020D0E7000038B504460E49206805
:1021B000884217D100BF002000900C48006840F012
:1021C00020000A4908600846006800F020000090DE
:1021D00000BF00BF002205213720FFF7B3F83720EA
:1021E000FFF79CF838BD0000001400404038024062
:1021F000014691F83D00012801D0012070470220DE
:1022000081F83D000868C06840F001000B68D860A4
:102210001A4B086898421BD00868B0F1804F17D05D
:10222000174B0868984213D0164B086898420FD095
:10223000154B086898420BD0144B0868984207D099
:10224000134B0868984203D0124B086898420CD18F
:102250000868806800F00702062A0CD00868006849
:1022600040F001000B68186005E00868006840F065
:1022700001000B6818600020C0E70000000001406A
:102280000004004000080040000C00400004014031
:102290000040014000180040704770B504462068B7
:1022A000C5682068066906F00200022819D105F009
:1022B0000200022815D1401F216808610120207703
:1022C0002068806900F0030018B12046FFF7E4FFA2
:1022D00005E0204600F097F8204600F095F8002031
:1022E000207706F00400042819D105F00400042822
:1022F00015D1C043216808610220207720688069D9
:1023000000F4407018B12046FFF7C6FF05E02046F4
:1023100000F079F8204600F077F80020207706F0EA
:102320000800082819D105F00800082815D1C04375
:1023300021680861042020772068C06900F003004C
:1023400018B12046FFF7A8FF05E0204600F05BF833
:10235000204600F059F80020207706F010001028E1
:1023600019D105F01000102815D1C043216808616B
:10237000082020772068C06900F4407018B120461A
:10238000FFF78AFF05E0204600F03DF8204600F008
:102390003BF80020207706F0010048B105F001006D
:1023A00030B16FF0010021680861204600F02EF87E
:1023B00006F08000802809D105F08000802805D132
:1023C000C043216808612046FFF75EFE06F040002A
:1023D000402809D105F04000402805D1C0432168BC
:1023E0000861204600F032F806F02000202809D1CC
:1023F00005F02000202805D1C0432168086120464F
:10240000FFF743FE70BD70477047000010B50446EB
:102410000A492068884201D1FEF7D2FE08492068A7
:10242000884209D107480068401C064908600648F0
:102430000068401C0449086010BD000000200040F6
:10244000001400408400002088000020704770477E
:10245000704700002DE9F84F0446206805682068A1
:10246000C668206847694FF00009CA4605F00F09A1
:10247000B9F1000F0AD105F0200038B106F02000B4
:1024800020B1204602F09BF9BDE8F88FB9F1000FAA
:102490007CD007F0010018B906F49070002875D0C0
:1024A00005F0010030B106F4807018B1606C40F0A6
:1024B0000100606405F0040030B107F0010018B1BC
:1024C000606C40F00200606405F0020030B107F07B
:1024D000010018B1606C40F00400606405F0080071
:1024E00048B106F0200010B907F0010018B1606C87
:1024F00040F008006064606C002846D005F02000C1
:1025000028B106F0200010B1204602F058F92068EA
:102510004069C0F3801A606C00F0080010B9BAF18D
:10252000000F2DD0204602F004F92068406900F029
:102530004000402820D100BF00BF2168143151E87D
:10254000001F21F040002168143141E80002002AF8
:10255000F3D100BFE06B50B17F48E16B0865E06BE1
:10256000FEF7B0FA88B1E06B016D88470DE02046B8
:10257000FFF76EFF09E009E02046FFF769FF04E07E
:102580002046FFF765FF002060647DE7206B01288F
:1025900078D105F01000002874D006F01000002853
:1025A000FAD000BF002000902068006800902068EA
:1025B0004068009000BF00BF2068406900F0400004
:1025C000402870D1E06B006840681FFA80F8B8F1CD
:1025D000000F58D0A08D404555DDA4F82E80E06B4B
:1025E000C069B0F5807F43D000BF00BF21680C31C7
:1025F00051E8001F21F4807021680C3141E800028D
:10260000002AF3D100BF00BF00BF2168143151E898
:10261000001F21F001002168143141E80002002A66
:10262000F3D100BF00BF00BF2168143151E8001F83
:1026300021F040002168143141E80002002AF3D162
:1026400000BF202084F842000020206300BF00BFAC
:1026500021680C3151E8001F21F0100021680C3175
:1026600041E80002002AF3D100BFE06BFEF7D4F985
:1026700002206063A08DE28D801A81B22046FFF7B0
:10268000E6FE0EE052E0A08D40450AD1E06BC06945
:10269000B0F5807F05D102206063A18D2046FFF751
:1026A000D6FEF1E6FFE7A08DE18D401A1FFA80F813
:1026B000E08DD0B3B8F1000F37D000BF00BF216864
:1026C0000C3151E8001F21F4907021680C3141E871
:1026D0000002002AF3D100BF00BF00BF21681431FF
:1026E00051E8001F21F001002168143141E8000287
:1026F000002AF3D100BF202084F84200002020638C
:1027000000BF00BF21680C3151E8001F21F010000C
:1027100021680C3141E80002002AF3D100BF0220F9
:10272000606341462046FFF792FEADE605F080006B
:1027300030B106F0800018B1204602F0F5F9A3E6AA
:1027400005F0400030B106F0400018B1204602F01C
:1027500026F899E600BF97E62147000810B5044621
:102760000CB9012010BDA06900B100E000BF94F8D1
:10277000410028B9002084F84000204600F02AF8E3
:10278000242084F841002068C06820F400502168AB
:10279000C860204602F092F82068006920F490405A
:1027A000216808612068406920F02A00216848619A
:1027B0002068C06840F400502168C8600020606450
:1027C000202084F8410084F842000020606300BFAC
:1027D000C8E7000010B586B00446142101A8FDF733
:1027E0008EFE1F492068884238D100BF002000902B
:1027F0001C48006840F480201A49086008460068B8
:1028000000F48020009000BF00BF00BF00200090B7
:1028100014481038006840F0080012491039086068
:102820000846006800F00800009000BF00BF4FF4A9
:102830004070019002200290002003900320049039
:102840000720059001A90848FEF7D0F900220521CC
:102850002720FEF777FD2720FEF760FD06B010BDAC
:102860000048004040380240000C024070B5044669
:102870000D46164694F8420020280BD105B10EB93A
:10288000012070BD0020206332462946204602F018
:102890002BF9F6E70220F4E770B5054651492868A0
:1028A000884274D150480078082871D2DFE800F0DF
:1028B0000415212D394551594C4800780A2806D174
:1028C0000120494908700A204949087004E00020A5
:1028D00045490870474908707DE0444800784649FA
:1028E0000870084600784249487002203E49087046
:1028F00071E03E48007841490870084600783C493C
:10290000887003203849087065E0384800783C49F1
:102910000870084600783649C870042032490870AB
:1029200059E0324800783749087008460078304945
:10293000087105202C4908704DE02C480078324978
:102940000870084600782A49487106202649087010
:1029500041E0264800782D49087007202249087078
:1029600039E0224800782A4908700621204802F000
:1029700081F928490880254800782549097801EB24
:10298000002024490988884212D1002407E028E069
:102990001BE01748005D20490855601CC4B2052C97
:1029A000F7DD01201349087000200F4908700BE083
:1029B000002404E0002018490855601CC4B2052C0E
:1029C000F8DD00200849087005E00020094908707A
:1029D0000549087000BF00BF012204490F48FFF7F6
:1029E00045FF70BD00480040C3000020BC0A002025
:1029F000C60B0020C2000020C4000020C50000203B
:102A0000C6000020C7000020C8000020C900002028
:102A1000CA000020CC000020D00B00203C02002087
:102A20002DE9F84F04460E46174699464FF0000A26
:102A300094F84100202850D106B117B90120BDE813
:102A4000F88F00206064212084F84100FEF7CEF961
:102A50008246A784E784A068B0F5805F04D120692E
:102A600010B90025B04602E035464FF000081EE0E0
:102A70005346002280212046CDF8009002F084F8D1
:102A800020B1202084F841000320D8E745B9B8F8E8
:102A90000000C0F308002168486008F1020803E064
:102AA0002878216848606D1CE08C401EE084E08C32
:102AB0000028DDD15346002240212046CDF8009069
:102AC00002F062F820B1202084F841000320B6E72C
:102AD000202084F841000020B1E70220AFE77047D2
:102AE00000BFFEE7014608684069C0F38020B0B12E
:102AF0006FF480600A68506100200863202081F82C
:102B00003D00002081F83E00086C40F0040008649D
:102B100000BF002081F83C0000BF0120704700206A
:102B2000FCE700002DE9F84304460D461746984699
:102B3000E66A082E04D0012E02D016F5803F06D199
:102B40002068006840F480702168086008E0206B0D
:102B5000122805D12068006840F480702168086060
:102B60003B4600224FF001112046CDF8008000F0D6
:102B7000BAF860B12068006800F48070B0F5807F1A
:102B800002D14FF4007020640320BDE8F88320696F
:102B9000B0F5804F04D105F0FE002168086112E015
:102BA00005F44070F02141EAE010216808614346D5
:102BB0003A460B49204600F0F5F808B10120E4E759
:102BC000E8B22168086143463A460549891F204614
:102BD00000F0E8F808B10120D7E70020D5E70000B1
:102BE0000800010008B521480078401C1F49087002
:102BF00008460078C72801DD002008707B201C49AA
:102C000008701C48807848701A48407888701420F2
:102C1000C8701848C078087117480078487116487D
:102C20004078887114488078C87165200872032044
:102C3000487202208872C720C872032008730220DD
:102C400048730A208873C873087448748874C874F9
:102C50000648007808757D204875642016230A46CA
:102C6000242100900548FEF7AFF908BD08000020B8
:102C7000840200200D000020B0020020800100200E
:102C800070B504460D46164625E02046FFF72AFF9C
:102C900008B1012070BD681CE8B1FEF7A7F8801BE1
:102CA000A84200D8BDB920684069C0F3800090B93F
:102CB00000202063202084F83D00002084F83E009E
:102CC000206C40F02000206400BF002084F83C000D
:102CD00000BF0120DEE720684069C0F380000028C3
:102CE000D3D00020D6E72DE9F04104460D46174623
:102CF0001E46DDF8188038E0701CA8B3FEF776F8A1
:102D0000A0EB0800B04200D876BBC5F3074001280D
:102D10000AD120684069A9B20840A9B2884201D10D
:102D200001200BE0002009E020688069A9B208407A
:102D3000A9B2884201D1012000E00020B84214D19C
:102D400000202063202084F83D00002084F83E000D
:102D5000206C40F02000206400BF002084F83C007C
:102D600000BF0120BDE8F081FFE7C5F3074001285F
:102D70000AD120684069A9B20840A9B2884201D1AD
:102D800001200BE0002009E020688069A9B208401A
:102D9000A9B2884201D1012000E00020B842ABD0A6
:102DA0000020DFE72DE9F04104460D4616461F4698
:102DB00058E020684069C0F38020E8B120680068CE
:102DC00040F40070216808606FF4806021684861F9
:102DD00000202063202084F83D00002084F83E007D
:102DE000206C40F00400206400BF002084F83C0008
:102DF00000BF0120BDE8F081701C90B3FDF7F6FF25
:102E0000C01BB04200D866BBC5F3074001280AD1F9
:102E100020684069A9B20840A9B2884201D10120C6
:102E20000BE0002009E020688069A9B20840A9B23F
:102E3000884201D1012000E0002090B900202063E9
:102E4000202084F83D00002084F83E00206C40F0F3
:102E50002000206400BF002084F83C0000BF012057
:102E6000C8E7FFE7C5F3074001280AD12068406999
:102E7000A9B20840A9B2884201D101200BE000208C
:102E800009E020688069A9B20840A9B2884201D14E
:102E9000012000E0002000288BD00020AAE770B5B8
:102EA00004460D46164625E02046FFF71BFE08B1F6
:102EB000012070BD681CE8B1FDF798FF801BA84297
:102EC00000D8BDB920684069C0F3C01090B9002097
:102ED0002063202084F83D00002084F83E00206C10
:102EE00040F02000206400BF002084F83C0000BFB8
:102EF0000120DEE720684069C0F3C0100028D3D06D
:102F00000020D6E764480078644908806248008859
:102F1000C0F30720624908805F480068C0F307409B
:102F2000604908805C480068000E5F4908805A4884
:102F300000795E49088058488088C0F307205C49C2
:102F4000088055484068C0F307405A4908805248F5
:102F50004068000E584908804F48007A5749087069
:102F60004D480089000A564908704B488068000C9B
:102F70005449087048488068000E53490860464824
:102F8000007B5249086044488089C0F307200860EC
:102F90004148C068000C4E4908703F48C068000EA8
:102FA0004C4908703C48007C4B4908803A48008AEC
:102FB000C0F307204949088037480069C0F307403B
:102FC0004749088034480069000E46490880324865
:102FD000007D454908803048808AC0F30720434976
:102FE00008802D484069C0F30740414908802A48BD
:102FF0004069000E3F4908802748007E3E4908701E
:103000002548008B000A3D49087023488069000C60
:103010003B49087020488069000E3A4908801E48E4
:10302000007F2A4908601C48808BC0F30720086095
:103030001948C069000C344908701748C069000E6F
:1030400032490870144890F820003149087012483D
:10305000008C000A2F4908700F48006A000C2E49A6
:1030600008700D48006A000E2C4908700A4890F854
:1030700024002B4908700848808CC0F307201349AE
:1030800008600548406AC0F3074008600248406A8B
:10309000000E244908707047DC0B00205C00002003
:1030A0005800002056000020540000206600002038
:1030B00064000020600000205E0000209D000020D1
:1030C0009E0000209C0000204C0000209400002066
:1030D000980000209F000020740000207000002055
:1030E0006E0000206C0000207E0000207C0000208C
:1030F0007800002076000020A5000020A600002017
:10310000A4000020800000209B000020A7000020D9
:10311000A3000020A1000020A2000020A0000020A9
:103120009A000020990000201CB50020009001901A
:103130000E480F4908600846FDF7C1FB08B1FDF7CE
:103140005AFA002000900190002269460848FDF7D5
:103150007FFB08B1FDF74FFA102269460448FDF7DE
:1031600077FB08B1FDF747FA1CBD00000074004072
:103170006C01002000B587B0142102A8FDF7BFF94B
:1031800000BF002001907248006840F010007049B4
:1031900008600846006800F01000019000BF00BF02
:1031A00000BF002001900846006840F0040008605D
:1031B0000846006800F00400019000BF00BF00BF97
:1031C000002001900846006840F080000860084632
:1031D000006800F08000019000BF00BF00BF002029
:1031E00001900846006840F0010008600846006849
:1031F00000F00100019000BF00BF00BF002001905F
:103200000846006840F0020008600846006800F0C8
:103210000200019000BF00BF00BF002001900846DF
:10322000006840F0080008600846006800F00800E8
:10323000019000BF00BF00227F214648FDF7D0FD6E
:10324000002242F2CD114448FDF7CAFD00220121BF
:103250004248FDF7C5FD002248F232314048FDF7F3
:10326000BFFD00224FF400413E48FDF7B9FD7F202D
:1032700002900120039000200490059002A9354897
:10328000FDF7B4FC42F2CD10029001200390002023
:103290000490059002A93048FDF7A8FC0120029097
:1032A000039000200490059002A92C48FDF79EFC95
:1032B00086200290022003900020049003200590B5
:1032C0000B20069002A92548FDF790FC48200290AB
:1032D000032003900020049002A92048FDF786FCFB
:1032E00030200290022003900020049003200590DB
:1032F0000B20069002A91848FDF778FC48F23230FE
:1033000002900120039000200490059002A9144827
:10331000FDF76CFC4FF460500290022003900020F7
:103320000490032005900B20069002A90C48FDF79D
:103330005DFC4FF4004002900120039000200490B7
:10334000059002A90748FDF751FC07B000BD000039
:1033500030380240001002400008024000000240E5
:1033600000040240000C024010B50B480B490860F5
:103370000B484860002109488160C1604FF48041DA
:103380000161002141618161C1610162FDF734FD8C
:1033900008B1FDF730F910BD005400408001002055
:1033A000A086010010B586B0142101A8FDF7A7F88A
:1033B00000200090224823490860002048607F21B7
:1033C00020488160FF21C16000210161416181616C
:1033D000FEF7F0FC08B1FDF70EF901211948FEF7E0
:1033E00083FC0446122C29D000208DF804008DF8AF
:1033F00005008DF8060004900590012201A91148EE
:10340000FEF7B0FD08B1FDF7F6F802208DF80000D8
:1034100004208DF8010014208DF8020026208DF87C
:103420000300012269460748FEF73CFD08B1FDF79D
:10343000E2F8122201210348FEF75FFC06B010BD3E
:1034400000280040D40100201CB50020009001900D
:103450000E480F4908600020486000210C48816038
:1034600042F2D001C16000218161FEF769FE08B11E
:10347000FDF7C1F800200090019069460448FEF76E
:1034800005FE08B1FDF7B7F81CBD000000140040B0
:10349000F401002010B50B480B4908604FF4E130EF
:1034A0004860002108488160C16001610C214161D0
:1034B00000218161C161FFF751F908B1FDF79BF867
:1034C00010BD0000004800403C02002000BFFEE7A5
:1034D00000BFFEE7014600BF080900EB8000420084
:1034E00001F00F001044C0B270470146002203E013
:1034F000521CA1F10A00C1B20A29F9D2100741EA0F
:103500001060704770B50446002600252068C0682A
:1035100000F04000C8B92068C06840F08000216811
:10352000C860FDF763FC064608E0FDF75FFC801B02
:10353000B0F57A7F02D90420607701252068C06841
:1035400000F0400008B9012DEFD1284670BD70B5DC
:10355000044600252068C06820F080002168C8600B
:103560002068806800F0200030B92046FEF770FD2A
:1035700010B1042060770125284670BD0146086817
:103580007047000000BF0022FD49FE48FEF7E4FB43
:103590000022FD49FB48FEF7B9FBFDF717F808B11B
:1035A000FFF720FBF948007801287DD1F848007822
:1035B000012803D0F6480078022876D1002400259F
:1035C000F448C078F4490870F2484079F34908702B
:1035D0000978481EC11700EB5171C910891DF04AC6
:1035E00011700A20EF490870E94800784870EB49EB
:1035F0000978481EC11700EB5171C910491CE94AEE
:10360000917000BF4FE00021E01CE64A1154E348EE
:103610000078092821DA00251AE0DE48C07800EB9E
:10362000C4004119DA480078401EC0EB0020DE4A91
:1036300002EB400010F8110000F00100A840E11C6E
:10364000D84A515C0843C1B2E01C1154681CC5B291
:10365000D24800788542E0DB22E0D0480078092893
:103660001EDD00251AE0CB48C07800EBC4004119EC
:10367000C7480078401EC0EB0020CB4A02EB400058
:1036800010F8110000F00100A840E11CC54A515C8F
:103690000843C1B2E01C1154681CC5B2082DE2DB1E
:1036A0000025601CC4B201E0D6E12DE0BB480078E3
:1036B0008442A8DB0024BA480078811EB94801F092
:1036C000D9FABA49088008460088010AB448007847
:1036D000801EB44A1154B5480178B1480078401EA4
:1036E00011540122D103B248FDF77AFBFF23AC4805
:1036F0000278AC49AF48FFF793F900224FF400413C
:10370000AB48FDF76DFBA7E1A148007803287CD109
:10371000A048C0789F49897840EA01209E490870F6
:103720009C4840799B49097940EA01209B490870EF
:1037300008460078052101EB4000994908700A20ED
:10374000984908709248007848709448007840067C
:10375000000E8870002029E0014600EBD1728E4BEC
:103760001B7803EB62038A4A1278521EC2EB0222D4
:103770008D4C04EB420232F81320130AC21C894C10
:10378000A35400EBD172844B1B7803EB6203804A95
:103790001278521EC2EB0222834C04EB420212F852
:1037A0001330021D7F4CA354811CC8B27B49097899
:1037B000B0EB410FD0DB7A480078811E794801F0E8
:1037C00059FA7A49088008460088010A7448007846
:1037D000801E744A11547548017871480078401E63
:1037E00011540122D1037248FDF7FAFAFF236C4805
:1037F00002786C496F48FFF713F900224FF400413B
:103800006B48FDF7EDFA27E1FFE7614800780428EF
:103810007DD16048C0785F49897840EA01205E49DF
:1038200008705C4840795B49097940EA0120401DF5
:103830005A49087008460078052101EB40005849B4
:1038400008700A205749087051480078487053485A
:1038500000784006000E8870002029E0014600EB49
:10386000D1724D4B1B7803EB6203494A1278521E0A
:10387000C2EB02224C4C04EB420232F81320130A32
:10388000C21C484CA35400EBD172434B1B7803EB92
:1038900062033F4A1278521EC2EB0222424C04EBF2
:1038A000420212F81330021D3E4CA354811CC8B2D0
:1038B0003A490978B0EB410FD0DB39480078811ED6
:1038C000384801F0D7F93949088008460088010ACC
:1038D00033480078801E334A115434480178304808
:1038E0000078401E11540122D1033148FDF778FAC7
:1038F000FF232B4802782B492E48FFF791F800222E
:103900004FF400412A48FDF76BFAA5E0FFE7204895
:103910000078052869D10A202249087005204870DE
:10392000002088701B48C078C8701A480079087158
:103930001848407948711748C0781F4908701548E1
:1039400000791E49088008460088FF2806D101201A
:103950001049C978144A22F8110005E000200D49E9
:10396000C978114A22F8110006210E4801F082F9A7
:103970000E49088008460088000A0A4988711FE03D
:10398000B0020020D40100200D000020C200002061
:10399000C4000020D00B0020BB000020B600002097
:1039A000B7000020C60A0020C4020020B400002096
:1039B000000402403C020020BC000020BE000020A9
:1039C000FE480078C8710122D103FD48FDF708FACE
:1039D000FF230822FB49FC48FFF722F800224FF49E
:1039E0000041F748FDF7FCF936E0F8480078062872
:1039F00032D1F748C078F7490870F5484079F44962
:103A0000097940EA0120F449088008460188F34812
:103A1000F04A127820F812100621EA4801F02AF93B
:103A2000E649088008460088000AE6498871E348AC
:103A30000078C8710122D103E148FDF7D1F9FF23D5
:103A4000E7480278DF49E048FEF7EAFF00224FF43A
:103A50000041DB48FDF7C4F94FF48071D948FCF709
:103A60002CFD0020DF490870DF48008842F6E06145
:103A700088427DDCDC480088401CDB490880DB484C
:103A80000188DB48A0F8EC14DA480188D848A0F88F
:103A9000EE14D9480188D648A0F8F014D748018818
:103AA000D348A0F8F214D6480188D148A0F8F414FD
:103AB000D4480188CE48A0F8F614D3480178CC4801
:103AC000A0F8F814D1480178C948A0F8FA14D048F1
:103AD0000178C748A0F81415CE480178C448A0F86A
:103AE0001615CD480078C2498887CC480068CC4973
:103AF00009680844CB4909680844CB490968084467
:103B0000CA490860CA480188B948A0F89214C9484F
:103B10000188B748A0F89414C7480188B448A0F8B1
:103B20009614C6480188B248A0F89814C448018881
:103B3000AF48A0F89A14C3480188AD48A0F89C1477
:103B4000C1480178AA48A0F89E14C0480178A84846
:103B5000A0F8A014BE480178A548A0F8B014BD484C
:103B60000178A348A0F8B214BB480078A04900E04F
:103B70002AE0C887B1480088B14909880844AE499D
:103B800009880844AF4909880844B4490860B44822
:103B900001789748A0F89215B24801789448A0F8A7
:103BA0009415B14801789248A0F89615AF4801786D
:103BB0008F48A0F89815AE4800788D49A1F84000CC
:103BC000AC480078A1F84400AB480088401CAA49E2
:103BD000088008460088B0F5487F04DB002084494F
:103BE000C882A5490880A54800884EF66021884211
:103BF00004DCA2480088401CA04908807C48B0F83A
:103C0000C200012808D19D4800884FF6FF71884204
:103C100002D1002099490880984800884EF27861C6
:103C200088421DDB954800884EF66021884217DCEB
:103C30004FF6FF709149088000216D48A0F870147C
:103C4000A0F87214A0F88814A0F88A14A0F88C14B4
:103C5000A0F88E14A0F8901400206549A1F8C200C5
:103C6000874801786248A0F8641485484178604824
:103C7000A0F86614824881785D48A0F868148148ED
:103C800081785B48A0F86A147E4841785848A0F8CB
:103C90006C147C48C1785648A0F86E14B0F8C00087
:103CA000012847D1524890F870047749087050486D
:103CB00090F8720448704E4890F88804887000208C
:103CC000C860086100227148FEF74CF94848B0F816
:103CD0009004012805DD464890F89004401E6C4988
:103CE00008704348B0F89004012802D107206849C1
:103CF00008703F4890F88C04654948703C4890F83B
:103D00008A0488703A4890F88E04C87000225F4890
:103D1000FEF7C8F8122201215C48FDF7EEFF0020F3
:103D20003349A1F8C0000120C88200205249088010
:103D3000524908802E48B0F8BC0001283CD12C48DC
:103D4000B0F8EC04294908802948B0F8EE04294964
:103D500008802748B0F8F004274908802448B0F8C4
:103D6000F204264908802248B0F8F4042449088067
:103D70001F48B0F8F604234908801D4890F8F8045D
:103D8000214908701A4890F8FA0420490870184828
:103D900090F814051E490870154890F816051D493D
:103DA0000870134890F83C001B4908700A223949F2
:103DB0003948FCF721FD71E0F4E00000B400002078
:103DC00000040240C60A00203C020020C40000207B
:103DD000D00B0020BC000020BE000020C006002048
:103DE000B7000020C2000020220000205400002064
:103DF000C402002056000020580000205C00002073
:103E00005E000020600000209C0000209E0000203A
:103E10009D0000209F00002098000020240000202A
:103E2000280000202C0000203C0000208C000020F6
:103E30006C0000206E000020700000207400002044
:103E40007600002078000020A4000020A6000020BA
:103E5000A5000020A70000209B000020900000206B
:103E6000A0000020A2000020A1000020A30000204C
:103E7000990000209A0000201E0000202000002051
:103E8000B00200200D0000209C020020D401002080
:103E900009000020DC0B002080000208EC48B0F88C
:103EA000EC04EC490860EA48B0F8EE04096840EA1E
:103EB0000120E8490860E648B0F8F004096840EAE3
:103EC0000120E4490860E248B0F8F204096840EAD9
:103ED0000120E0490860DE48B0F8F4044860DC489E
:103EE000B0F8F604496840EA0120DA49486008461B
:103EF0004068DD2141EA0020D64948600846406814
:103F0000DD2141EA0020D3494860DD208860084671
:103F10008068D149097841EA0020CE498860084686
:103F20008068CE49097841EA0020CA49886008467D
:103F30008068CB49097841EA0020C6498860C948B1
:103F40000078C8600846C068C749097841EA00207F
:103F5000C049C8600846C068EE2141EA0020BD495A
:103F6000C8600846C068EE2141EA0020B949C8602F
:103F70000A22BE48FCF751FCBD480068BD490968EB
:103F80000844BD4909680844BC4909680844BC495B
:103F900008600020AE49A1F8BC000120C8820020C2
:103FA000B8490880AA48B0F8BE0001287ED1A848C8
:103FB000B0F89204B4490880A548B0F89404B34915
:103FC0000880A348B0F89604B1490880A048B0F82A
:103FD0009804B04908809E48B0F89A04AE49088019
:103FE0009B48B0F89C04AD490880994890F89E041D
:103FF000AB490870964890F8A004AA490870944804
:1040000090F8B004A8490870914890F8B204A74904
:1040100008708F4890F83E00A54908700A228D4923
:104020009248FCF7E9FB8A48B0F892048949086194
:104030008748B0F89404096940EA0120854908617D
:104040008348B0F89604096940EA01208149086173
:104050007F48B0F89804096940EA01207D49086169
:104060007B48B0F89A0448617948B0F89C044969E3
:1040700040EA01207749486108464069DD2141EA6C
:1040800000207449486108464069DD2141EA00206A
:1040900070494861DD208861084680698049097857
:1040A00041EA00206B498861084600E041E08069F0
:1040B0007C49097841EA00206649886108468069A0
:1040C0007949097841EA0020624988617748007897
:1040D000C8610846C0697649097841EA00205D490F
:1040E000C8610846C069EE2141EA00205949C8610B
:1040F0000846C069EE2141EA00205649C8610A22FB
:104100005A48FCF78AFB63480088634909880844D9
:104110005F4909880844614909880844654908607D
:1041200000204B49A1F8BE000120C882002055495B
:1041300008804748B0F8C40001285FD1444890F88F
:1041400092055D490870424890F894055B490870F3
:104150003F4890F896055A4908703D4890F89805F0
:10416000584908703A4890F84000574908700A22A8
:1041700038493E48FCF740FB4F4800783549086213
:104180000846006A4D49097841EA00203149086231
:104190000846006A4A49097841EA00202D49086228
:1041A0000846006A4749097841EA0020294908621F
:1041B0004548007848620846406AEE2141EA0020FE
:1041C000244948620846406AEE2141EA002021491C
:1041D00048620846406A3D49097841EA00201D4985
:1041E00048620A222148FCF718FB00201849A1F870
:1041F000C4000120C8820020224908801448B0F879
:10420000C60001281ED1124890F844002F490870BA
:104210000A2210491548FCF7EFFA2C4801780D489E
:10422000406A61F300000B4948620A220F48FCF71C
:10423000F4FA00200649A1F8C6000120C882002037
:1042400010490880012000F0A6FDFFF79CB900008E
:10425000C4020020DC0B00209C0000209E000020F7
:104260009D0000209F000020980000208000020890
:1042700024000020280000202C0000203C0000200A
:104280008C0000201E0000206C0000206E0000202A
:1042900070000020740000207600002078000020CC
:1042A000A4000020A6000020A5000020A7000020F8
:1042B0009B00002090000020A0000020A200002011
:1042C000A1000020A3000020990000209A000020F7
:1042D0002DED028B00BF012211028348FCF780FD07
:1042E000002280218048FCF77BFD012240217E488E
:1042F000FCF776FD00224FF400417C48FCF770FD8E
:10430000002210217A48FCF76BFD01222021784819
:10431000FCF766FD00224FF480717548FCF760FDE4
:10432000012251027248FCF75BFD00220121714815
:10433000FCF756FD012202216E48FCF751FD0022D8
:1043400004216C48FCF74CFD012208216948FCF768
:1043500047FD002210216748FCF742FD0122202181
:104360006448FCF73DFD002240216248FCF738FD1F
:10437000012251035C48FCF733FD002201215A4819
:10438000FCF72EFD012204215748FCF729FD0022ED
:1043900008215548FCF724FD012211465648FCF738
:1043A0001FFD40F6C41000F0F6FC00224FF48071AF
:1043B0004D48FCF715FD012280214B48FCF710FD0C
:1043C000002240214848FCF70BFD0122D103474859
:1043D000FCF706FD012210214548FCF701FD0022F3
:1043E00020214348FCF7FCFC012211024048FCF765
:1043F000F7FC00224FF400713D48FCF7F1FC01226C
:1044000011463C48FCF7ECFC002202213948FCF73D
:10441000E7FC012204213748FCF7E2FC00220821D6
:104420003448FCF7DDFC012210213248FCF7D8FCAF
:10443000002220212F48FCF7D3FC012240212D48E7
:10444000FCF7CEFC00224FF400512748FCF7C8FCD3
:10445000012211462448FCF7C3FC00220421224813
:10446000FCF7BEFC012208211F48FCF7B9FC002222
:1044700001212148FCF7B4FC2048006801F0DCFC75
:1044800041EC180B9FED1E0B53EC102B01F09EFC22
:1044900004D29FED1D0A194880ED000A174890EDDF
:1044A000000AB0EE081AC0EE010A9FED180A20EECD
:1044B000800ADFED170A80EE201ABCEEC10A15480B
:1044C00080ED000A0022114603681348FCF74CFAFD
:1044D00010480022102103680F48FCF745FA40F607
:1044E000C41000F058FCF6E600080240000C024040
:1044F000000402400010024000000240AC00002016
:10450000CDCCCCCCCCCC234066661E4100F07F45A0
:1045100033335340B00000206C01002010B500BFC1
:10452000502080F31188BFF34F8FBFF36F8F00BF10
:1045300001F08AFA18B14FF080500449086000BFBA
:10454000002080F3118800BF10BD000004ED00E0E2
:1045500000B593B0302107A8FBF7D1FF142102A8C2
:10456000FBF7CDFF00BF002001902648006840F017
:104570008050244908600846006800F0805001908F
:1045800000BF00BF00BF002001901F48006840F43A
:1045900080401D4908600846006800F48040019092
:1045A00000BF00BF052007904FF480300890012025
:1045B000099002200D9041050E9119210F914FF4A1
:1045C000A8711091022111910421129107A8FDF701
:1045D0003DF908B1FCF70FF80F200290022003907C
:1045E000002004904FF4A05005904FF480500690A6
:1045F000052102A8FCF7C8FF08B1FBF7FCFF13B0C8
:1046000000BD0000403802400070004003480068D0
:1046100040F47000014908607047000088ED00E038
:1046200010B50248FDF739FE10BD0000F40100206E
:1046300010B50248FDF731FE10BD0000580E0020F5
:1046400010B502682B4B98420ED0B0F1804F0BD0C2
:10465000294B984208D0294B984205D0284B9842C4
:1046600002D0284B984203D122F070024B681A43C3
:10467000204B984220D0B0F1804F1DD01E4B984265
:104680001AD01E4B984217D01D4B984214D01D4B88
:10469000984211D01C4B98420ED01C4B98420BD024
:1046A0001B4B984208D01B4B984205D01A4B98429E
:1046B00002D01A4B984203D122F44072CB681A43BD
:1046C00022F080034C6943EA04028B68C3620B68E2
:1046D0008362084B984202D00A4B984201D10B6981
:1046E0000363036843F00403036001234361026032
:1046F00010BD000000000140000400400008004020
:10470000000C004000040140004001400044014012
:104710000048014000180040001C004000200040FC
:1047200070B50446A56B0020E8852846FDF790FE8D
:1047300070BD00BF00BF02680C3252E8002F22F4A7
:10474000907102680C3242E80013002BF3D100BFD5
:1047500000BF00BF0268143252E8002F22F00101AE
:104760000268143242E80013002BF3D100BF016B42
:1047700001290ED100BF00BF02680C3252E8002FA1
:1047800022F0100102680C3242E80013002BF3D132
:1047900000BF202180F8421000210163704710B54E
:1047A00004462068C06820F040002168C8602020CE
:1047B00084F841002046FEF792F9002010BDF8B5BC
:1047C00004460025002694F84200222873D1A068F0
:1047D000B0F5805F0BD1206948B9A66A20684068AF
:1047E000C0F308003080A06A801CA06214E0A56AB3
:1047F000A068B0F5805F03D0A06828B9206918B917
:1048000020684068287004E02068406800F07F005D
:104810002870A06A401CA062E08D401E80B2E08536
:10482000002846D12068C06820F020002168C860B8
:104830002068C06820F480702168C86020684069E2
:1048400020F0010021684861202084F84200002007
:104850006063206B012826D10020206300BF00BFC9
:1048600021680C3151E8001F21F0100021680C3143
:1048700041E80002002AF3D100BF2068006800F080
:10488000100010280AD100BF0020009020680068A6
:10489000009020684068009000BF00BFA18D2046B6
:1048A000FDF7D5FD02E02046FDF7F6FF0020F8BD3C
:1048B00001E00020FBE70220F9E700002DE9F84FB6
:1048C00004462068006920F44050E16808432168EC
:1048D00008612169A068084361690843E1690843E8
:1048E00000902068C06849F20C6188430099084331
:1048F0002168C8602068406920F44070A1690843BD
:104900002168486176492068884203D0754920684B
:10491000884203D1FCF732FF814602E0FCF71EFF1C
:104920008146E069B0F5004F6CD102206168A0FBC0
:10493000015003461920A9FB007001462A4638465B
:10494000FBF712FD6421B0FBF1F04FEA001A0220E0
:104950006168A0FB01510B461920A9FB00712A4692
:104960003846FBF701FD834602206168A0FB015039
:1049700003461920A9FB00712A463846FBF7F4FCD0
:104980006421B0FBF1F000EBC00101EB0010ABEBD8
:104990008000322101EBC0006421B0FBF1F000F097
:1049A000F8000AEB400A02206168A0FB01500346B0
:1049B0001920A9FB007001462A463846FBF7D4FCB3
:1049C000834602206168A0FB015003461920A9FB21
:1049D00000712A463846FBF7C7FC6421B0FBF1F0B2
:1049E00000EBC00101EB0010ABEB8000322101EBCA
:1049F000C0006421B0FBF1F000F0070050442168D2
:104A000088606AE004206168A0FB01500346192019
:104A1000A9FB007001462A463846FBF7A5FC8246F2
:104A200004206168A0FB015003461920A9FB007017
:104A300001462A463846FBF797FC6421B0FBF1F0AB
:104A400000EBC00101EB0010AAEB8000322101EB6A
:104A500000106421B0FBF1F000F0F00A042061685E
:104A6000A0FB017003461920A9FB00513A462846D5
:104A7000FBF77AFC6421B0FBF1F00AEB001A04208A
:104A80006168A0FB01510B461920A9FB00712A4661
:104A90003846FBF769FC834604206168A0FB01509F
:104AA00003461920A9FB007001462A463846FBF749
:104AB0005BFC6421B0FBF1F000EBC00101EB0010E6
:104AC000ABEB8000322101EB00106421B0FBF1F070
:104AD00000F00F00504421688860BDE8F88F0000A6
:104AE000001001400014014010B5034699629A85F8
:104AF000DA8500205864222083F84200186928B122
:104B00001868C06840F480701C68E06018684069EC
:104B100040F001001C6860611868C06840F0200027
:104B20001C68E060002010BD014691F8410021287A
:104B300028D18868B0F5805F0BD1086948B90A6A46
:104B40001088C0F308000B685860086A801C08626F
:104B500005E00B6A581C086218780B685860C88C0E
:104B6000401E80B2C88458B90868C06820F0800030
:104B70000B68D8600868C06840F040000B68D860D7
:104B8000002070470220FCE72DE9F84304460D465B
:104B900017469846089E31E0701C70B3FCF726F962
:104BA000A0EB0800B04200D816B90320BDE8F88396
:104BB0002068C06800F00400F8B1802D1ED0402DA0
:104BC0001CD020680068C0F3C000B0B100BF002056
:104BD000009020680068009020684068009000BF46
:104BE00000BF2046FFF7A5FD0820606400BF00203D
:104BF00084F8400000BF0120D8E7FFE72068006884
:104C00002840A84201D1012000E00020B842C3D0D2
:104C10000020CBE710B50248FDF71CFC10BD0000DA
:104C20003C02002000BFFEE770B505460C46224658
:104C3000002329460220FBF777FF70BD0248006879
:104C4000C0F30220704700000CED00E010B5002812
:104C500004DB0A07130E054A135406E00A07140E74
:104C6000034A00F00F031B1FD45410BD00E400E002
:104C700018ED00E030B502460B464FF6FF700021FC
:104C800012E0555C684000240AE000F0010525B1FF
:104C900040104AF20105684000E04010651CACB2CB
:104CA000072CF2DD4D1CA9B29942EADB050245EA68
:104CB0002025A8B230BD00008EB0FCF78DFAFFF7BA
:104CC00047FCFEF757FAFEF7BFFBFEF74DFBFEF77A
:104CD00069FBFEF729FAFEF7DDFB2148FDF788FAAC
:104CE00000212048FBF759FE10211E48FBF755FE16
:104CF0001D480068C06840F020001B490968C86072
:104D000001221A491848FDF7B1FD0A22184919482D
:104D1000FBF772FDFEF7F6F80A20FBF7E7FE00222C
:104D200002211548FCF75CF81C22144907A8FBF780
:104D300092FB002107A800F03FF8114908601C22EF
:104D40000E491C316846FBF786FB0021684600F0DF
:104D500033F80C49086000F02AF800BFFEE70000B5
:104D6000F40100206C0100203C020020BC0A00205D
:104D7000DC0B0020800002080004024030600008C4
:104D8000000000200400002001460020842901D0FA
:104D9000CA1C1044704770B5044625460DB129461B
:104DA00000E00121084600F037FC002070BD10B57E
:104DB00000F060FC002010BD7FB504460D46606920
:104DC00098B1A06988B1B4F90800FFF7DDFF064685
:104DD000D4E90510CDE9006102902B462269D4E99F
:104DE000001000F0D3FD039013E0B4F90800FFF7C2
:104DF000CBFF064603A8CDE90060238A9AB22B4672
:104E0000D4E9001000F090FD012802D0002004B089
:104E100070BD0398FBE700002DE9F04105460E4602
:104E20001C4807681C480068001D00F0F1FA50B9E2
:104E30001948006890F82C1001208840174909682B
:104E4000814316480160681C38B936B112480168C0
:104E5000091D134800F026FB1AE07C190E48006873
:104E60004460BC4207D20C480168091D0D48006827
:104E700000F0FEFA0CE008480168091D0A480068C5
:104E800000F0F6FA09480068844201D2074804603D
:104E9000BDE8F08118010020040100201C01002061
:104EA0007C0F00200C0100200801002034010020AC
:104EB00010B5044600F002FB23480068401C22495C
:104EC00008602248006840B920480460084600682D
:104ED00001280DD100F03EF90AE01D48006838B9FC
:104EE0001A480068C06AE16A884201D8174804601D
:104EF00018480068401C1749086094F82C100120DD
:104F0000884015490968084313490860E16A01EBC4
:104F10008101124A02EB8100211D00F0C3FA00F06A
:104F2000F7FA0B48006868B108480068C06AE16A8F
:104F3000884207D24FF0805009490860BFF34F8F75
:104F4000BFF36F8F10BD000014010020040100208A
:104F500020010020300100201C010020A00E0020B4
:104F600004ED00E010B516E000F0A8FA0C48C068A7
:104F7000C468201D00F04CFA0A480068401E094928
:104F8000086009480068401E0749086000F0C0FA40
:104F9000204600F00BF8044800680028E4D110BD5A
:104FA000680F0020140100201001002010B50446F5
:104FB00094F8510030B9206B00F0C8FA204600F098
:104FC000C5FA1AE094F85100012803D1204600F0F8
:104FD000BDFA12E094F85100022801D1012000E04E
:104FE000002050B900BF502080F31188BFF34F8FCD
:104FF000BFF36F8F00BF00BFFEE710BD30B54FF4A9
:105000007053174800F007042CB1C01D20F00700B2
:10501000134C041B1B1B0246124C22600024114D32
:105020006C60D018083820F007000F4C2060002476
:105030000D4D2D686C600C4D2D682C601146441A86
:105040004C60094C24680C60084D4C682C60084D7D
:105050004C682C604FF00044064D2C6030BD0000C1
:10506000900F002040010020480100205001002046
:105070004C0100205C01002000BFFFF773FF0648D1
:1050800000680128F9D94FF0805004490860BFF347
:105090004F8FBFF36F8FF0E7A00E002004ED00E00C
:1050A0002DE9FF5F81460E469246DDE90E7B109C9E
:1050B000AAF10100216B01EB800828F0070808F035
:1050C000070008B9012000E0002050B900BF5020BF
:1050D00080F31188BFF34F8FBFF36F8F00BF00BF06
:1050E000FEE786B1002507E0715D04F1340041550B
:1050F000705D00B902E06D1C102DF5D300BF0021DA
:105100004320015502E0002084F83400072F00D32B
:105110000627E76267640020A064201D00F0A5F95F
:1051200004F1180000F0A1F92461C7F10700A061A3
:1051300064620020E06484F8500049464046039AC7
:1051400000F050F92060BBF1000F01D0CBF8004017
:10515000BDE8FF9F10B5002407E004EB84010F4A6F
:1051600002EB810000F074F9641C072CF5D30C48A5
:1051700000F06EF90B4800F06BF90B4800F068F98D
:105180000A4800F065F90A4800F062F90448094944
:10519000086004480849086010BD0000A00E002007
:1051A0002C0F0020400F0020540F0020680F00201B
:1051B0007C0F0020080100200C01002010B50146E2
:1051C000164800E0006803688B42FBD30246436840
:1051D00013448B4204D143684C6823444360014626
:1051E0000A464B6813440468A34211D10C4C03686F
:1051F0002468A34208D04B680468646823444B6069
:1052000003681B680B6005E0054B1B680B6001E041
:1052100003680B60884200D0016010BD400100208F
:10522000480100200A490968096809B9012100E01C
:10523000002121B14FF0FF31064A116006E0044918
:105240000968C968C868034A41681160704700006E
:1052500008010020340100200E480068401C08B9F5
:10526000012000E0002050B900BF502080F31188D9
:10527000BFF34F8FBFF36F8F00BF00BFFEE700BFCC
:10528000502080F31188BFF34F8FBFF36F8F00BFA3
:1052900000BFFEE7600100202DE9F04104464FF019
:1052A000000800F03FFA4948006808B9FFF7A6FE79
:1052B000474800682040002870D1D4B1083404F079
:1052C0000700B0B104F00700C0F10800044404F086
:1052D000070008B9012000E0002050B900BF5020AD
:1052E00080F31188BFF34F8FBFF36F8F00BF00BFF4
:1052F000FEE7002C52D03748006884424ED8364E24
:105300003046056801E02E462D686868A04202D24A
:1053100028680028F7D12D48006885423ED03068C3
:1053200000F10808286830606868001B102819D947
:105330002F1907F0070008B9012000E0002050B93C
:1053400000BF502080F31188BFF34F8FBFF36F8FE2
:1053500000BF00BFFEE76868001B78606C603846DD
:10536000FFF72CFF1B4968680968081A194908608B
:105370000846006819490968884203D21548006840
:105380001649086012496868096808436860002087
:10539000286013480068401C1149086000F0F8FBC1
:1053A00008F0070008B9012000E0002050B900BF54
:1053B000502080F31188BFF34F8FBFF36F8F00BF72
:1053C00000BFFEE74046BDE8F08100004801002034
:1053D0005C0100204C010020400100205001002011
:1053E00054010020001F4FF080730360001F21F064
:1053F00001030360001F054B036014380260001FA7
:105400006FF0020303602038704700005952000813
:1054100001460A69D1E901309860D1E90103586079
:105420005068884201D18868506000200861106887
:10543000401E106010687047034B0360034B0B6005
:105440008023136070470000040C0020580C0020DB
:1054500000F1080141604FF0FF31816000F1080167
:10546000C160016100210160704700210161704746
:1054700010B502460B685C1C0CB9106907E002F11C
:10548000080000E04068446824689C42FAD94468F7
:105490004C604C68A160886041600A611468641CBB
:1054A000146010BD42684A6093688B6093685960CD
:1054B0009160086103685B1C0360704700BF502067
:1054C00080F31188BFF34F8FBFF36F8F00BF0E487B
:1054D0000068401C0C49086008460068012812D189
:1054E0000A480068C0B208B9012000E0002050B9A5
:1054F00000BF502080F31188BFF34F8FBFF36F8F31
:1055000000BF00BFFEE770476001002004ED00E02F
:105510000D48006850B900BF502080F31188BFF3D8
:105520004F8FBFF36F8F00BF00BFFEE706480068D4
:10553000401E054908600846006820B9002080F335
:10554000118800BF00BF70476001002070B506469B
:105550003546002E44D0083D2C4622496068096833
:10556000084008B1012000E0002050B900BF5020E1
:1055700080F31188BFF34F8FBFF36F8F00BF00BF61
:10558000FEE7206808B9012000E0002050B900BF04
:10559000502080F31188BFF34F8FBFF36F8F00BF90
:1055A00000BFFEE70F49606809680840C0B1206885
:1055B000B0B90C49606809688843606000F0B2F8CF
:1055C0000949606809680844074908602046FFF7F0
:1055D000F5FD06480068401C0449086000F0D8FA50
:1055E00070BD00005C0100204C010020580100202B
:1055F00000204FF0E02108618861064800684FF400
:105600007A71B0FBF1F0401E4FF0E02148610720B5
:10561000086170470001002070B504460025D4B130
:105620001248006808B9012000E0002050B900BF0E
:10563000502080F31188BFF34F8FBFF36F8F00BFEF
:1056400000BFFEE700F06EF800212046FFF7E4FB04
:1056500000F09EFA05463DB94FF0805004490860BD
:10566000BFF34F8FBFF36F8F70BD00003C01002070
:1056700004ED00E010B586B000200590049003AA68
:1056800004A905A8FFF7D8FE0022DDE9041013469F
:10569000CDE9002102901CA11D48039A00F076F983
:1056A0001C4908600846006808B1012400E0002495
:1056B000012C15D100BF502080F31188BFF34F8F0C
:1056C000BFF36F8F00BF4FF0FF3013490860012018
:1056D0001249086000201249086000F071F810E0DB
:1056E000601C08B1012000E0002050B900BF50202C
:1056F00080F31188BFF34F8FBFF36F8F00BF00BFE0
:10570000FEE706B010BD000049444C450000000013
:1057100079500008380100203401002020010020C9
:105720001801002002480068401C014908607047C9
:105730003C0100201D48006818B101201C49086088
:1057400032E000201A4908601A480068B0FA80F078
:10575000C0F11F0101EB8100174A52F8200008B187
:10576000012000E0002050B900BF502080F31188D4
:10577000BFF34F8FBFF36F8F00BF00BFFEE701EB9A
:1057800081020D4B03EB820042685268426000F1D7
:1057900008024368934202D14268526842604268FC
:1057A000D268064B1A6000BF704700003C01002021
:1057B000280100201C010020A00E00200401002070
:1057C0001CB5524800685249884201D0012000E0CF
:1057D000002050B900BF502080F31188BFF34F8FD5
:1057E000BFF36F8F00BF00BFFEE74848006848491D
:1057F000491E884201D0012000E0002050B900BFBE
:10580000502080F31188BFF34F8FBFF36F8F00BF1D
:1058100000BFFEE73F49084600780190FF200A4696
:1058200010700846007800909DF8000000F0F0002D
:105830009DF80020904201D1012000E0002050B9E5
:1058400000BF502080F31188BFF34F8FBFF36F8FDD
:1058500000BF00BFFEE79DF8000000F050002E4A98
:10586000107007202D4A106009E02C480068401E87
:105870002A4A10609DF800004006000E00909DF836
:10588000000000F080008028EFD024480068C0F1BC
:105890000700042801D1012000E0002050B900BF1A
:1058A000502080F31188BFF34F8FBFF36F8F00BF7D
:1058B00000BFFEE7194800680002184A1060104651
:1058C000008800F4E0601060124A019810700F48E0
:1058D0002030006840F470000C4920310860084610
:1058E000006840F070400860FFF782FE00200C491D
:1058F0000860FAF7DDFC0B48006840F040400949B9
:105900000860FAF7C1FC00201CBD000000ED00E0BB
:1059100071C20F4100E400E0640100206801002032
:105920006001002034EF00E02DE9FF4F85B0804694
:1059300089461746DDE912ABB800FFF7ADFC064615
:1059400056B15420FFF7A8FC04460CB1266304E0CE
:105950003046FFF7FBFD00E000248CB1002084F806
:105960005100CDE900ABCDE902403A4649464046F8
:10597000089BFFF795FB2046FFF79AFA012501E007
:105980004FF0FF35284609B0BDE8F08F2DE9F04F04
:1059900085B00746884691469A46DDE90EB6109CCA
:1059A0000EB1012000E0002050B900BF502080F36C
:1059B0001188BFF34F8FBFF36F8F00BF00BFFEE7AB
:1059C0000CB1012000E0002050B900BF502080F34E
:1059D0001188BFF34F8FBFF36F8F00BF00BFFEE78B
:1059E000542003900398542801D1012000E00020A6
:1059F00050B900BF502080F31188BFF34F8FBFF321
:105A00006F8F00BF00BFFEE700BFB4B1AEB1254647
:105A10002C462E63022085F85100002004A953462D
:105A20004A46CDE900B1CDE9025041463846FFF77C
:105A300037FB2846FFF73CFA01E000200490049869
:105A400005B0BDE8F08F00002DE9F0414FF00008EF
:105A50004448006800287CD143480068451C4248FF
:105A6000056015BB41480068006808B9012000E0E6
:105A7000002050B900BF502080F31188BFF34F8F32
:105A8000BFF36F8F00BF00BFFEE738480768384894
:105A90000068364908603648076036480068401C90
:105AA00034490860FFF7BEFB00BF334800688542F9
:105AB0003CD300BF2D480068006808B9012000E011
:105AC000002020B14FF0FF302B4908602DE027481F
:105AD0000068C068C4686668B54202D2264806609D
